{
	"CRUD/crud.sol": {
		"CRUD": {
			"abi": [
				{
					"inputs": [
						{
							"internalType": "string",
							"name": "_description",
							"type": "string"
						}
					],
					"name": "createItem",
					"outputs": [],
					"stateMutability": "nonpayable",
					"type": "function"
				},
				{
					"inputs": [],
					"name": "itemCount",
					"outputs": [
						{
							"internalType": "uint64",
							"name": "",
							"type": "uint64"
						}
					],
					"stateMutability": "view",
					"type": "function"
				},
				{
					"inputs": [
						{
							"internalType": "uint256",
							"name": "",
							"type": "uint256"
						}
					],
					"name": "items",
					"outputs": [
						{
							"internalType": "uint256",
							"name": "id",
							"type": "uint256"
						},
						{
							"internalType": "string",
							"name": "description",
							"type": "string"
						}
					],
					"stateMutability": "view",
					"type": "function"
				},
				{
					"inputs": [
						{
							"internalType": "uint256",
							"name": "_id",
							"type": "uint256"
						}
					],
					"name": "readItem",
					"outputs": [
						{
							"components": [
								{
									"internalType": "uint256",
									"name": "id",
									"type": "uint256"
								},
								{
									"internalType": "string",
									"name": "description",
									"type": "string"
								}
							],
							"internalType": "struct CRUD.Item",
							"name": "",
							"type": "tuple"
						}
					],
					"stateMutability": "view",
					"type": "function"
				},
				{
					"inputs": [
						{
							"internalType": "uint256",
							"name": "_id",
							"type": "uint256"
						},
						{
							"internalType": "string",
							"name": "_description",
							"type": "string"
						}
					],
					"name": "updateItem",
					"outputs": [],
					"stateMutability": "nonpayable",
					"type": "function"
				}
			],
			"devdoc": {
				"kind": "dev",
				"methods": {},
				"version": 1
			},
			"evm": {
				"assembly": "    /* \"CRUD/crud.sol\":60:760  contract CRUD {... */\n  mstore(0x40, 0x80)\n    /* \"CRUD/crud.sol\":107:108  0 */\n  0x00\n    /* \"CRUD/crud.sol\":81:108  uint64 public itemCount = 0 */\n  dup1\n  exp(0x0100, 0x00)\n  dup2\n  sload\n  dup2\n  0xffffffffffffffff\n  mul\n  not\n  and\n  swap1\n  dup4\n  0xffffffffffffffff\n  and\n  mul\n  or\n  swap1\n  sstore\n  pop\n    /* \"CRUD/crud.sol\":60:760  contract CRUD {... */\n  callvalue\n  dup1\n  iszero\n  tag_1\n  jumpi\n  0x00\n  dup1\n  revert\ntag_1:\n  pop\n  dataSize(sub_0)\n  dup1\n  dataOffset(sub_0)\n  0x00\n  codecopy\n  0x00\n  return\nstop\n\nsub_0: assembly {\n        /* \"CRUD/crud.sol\":60:760  contract CRUD {... */\n      mstore(0x40, 0x80)\n      callvalue\n      dup1\n      iszero\n      tag_1\n      jumpi\n      0x00\n      dup1\n      revert\n    tag_1:\n      pop\n      jumpi(tag_2, lt(calldatasize, 0x04))\n      shr(0xe0, calldataload(0x00))\n      dup1\n      0x3d54eebb\n      eq\n      tag_3\n      jumpi\n      dup1\n      0x6bfb0d01\n      eq\n      tag_4\n      jumpi\n      dup1\n      0x838b96bd\n      eq\n      tag_5\n      jumpi\n      dup1\n      0xb065b2a9\n      eq\n      tag_6\n      jumpi\n      dup1\n      0xbfb231d2\n      eq\n      tag_7\n      jumpi\n    tag_2:\n      0x00\n      dup1\n      revert\n        /* \"CRUD/crud.sol\":261:405  function createItem(string memory _description) public {... */\n    tag_3:\n      tag_8\n      0x04\n      dup1\n      calldatasize\n      sub\n      dup2\n      add\n      swap1\n      tag_9\n      swap2\n      swap1\n      tag_10\n      jump\t// in\n    tag_9:\n      tag_11\n      jump\t// in\n    tag_8:\n      stop\n        /* \"CRUD/crud.sol\":81:108  uint64 public itemCount = 0 */\n    tag_4:\n      tag_12\n      tag_13\n      jump\t// in\n    tag_12:\n      mload(0x40)\n      tag_14\n      swap2\n      swap1\n      tag_15\n      jump\t// in\n    tag_14:\n      mload(0x40)\n      dup1\n      swap2\n      sub\n      swap1\n      return\n        /* \"CRUD/crud.sol\":434:532  function readItem(uint _id) public view returns (Item memory) {... */\n    tag_5:\n      tag_16\n      0x04\n      dup1\n      calldatasize\n      sub\n      dup2\n      add\n      swap1\n      tag_17\n      swap2\n      swap1\n      tag_18\n      jump\t// in\n    tag_17:\n      tag_19\n      jump\t// in\n    tag_16:\n      mload(0x40)\n      tag_20\n      swap2\n      swap1\n      tag_21\n      jump\t// in\n    tag_20:\n      mload(0x40)\n      dup1\n      swap2\n      sub\n      swap1\n      return\n        /* \"CRUD/crud.sol\":564:755  function updateItem(uint _id, string memory _description) public {... */\n    tag_6:\n      tag_22\n      0x04\n      dup1\n      calldatasize\n      sub\n      dup2\n      add\n      swap1\n      tag_23\n      swap2\n      swap1\n      tag_24\n      jump\t// in\n    tag_23:\n      tag_25\n      jump\t// in\n    tag_22:\n      stop\n        /* \"CRUD/crud.sol\":192:226  mapping(uint => Item) public items */\n    tag_7:\n      tag_26\n      0x04\n      dup1\n      calldatasize\n      sub\n      dup2\n      add\n      swap1\n      tag_27\n      swap2\n      swap1\n      tag_18\n      jump\t// in\n    tag_27:\n      tag_28\n      jump\t// in\n    tag_26:\n      mload(0x40)\n      tag_29\n      swap3\n      swap2\n      swap1\n      tag_30\n      jump\t// in\n    tag_29:\n      mload(0x40)\n      dup1\n      swap2\n      sub\n      swap1\n      return\n        /* \"CRUD/crud.sol\":261:405  function createItem(string memory _description) public {... */\n    tag_11:\n        /* \"CRUD/crud.sol\":327:336  itemCount */\n      0x00\n      dup1\n        /* \"CRUD/crud.sol\":327:338  itemCount++ */\n      dup2\n      dup2\n      swap1\n      sload\n      swap1\n      0x0100\n      exp\n      swap1\n      div\n      0xffffffffffffffff\n      and\n      dup1\n      swap3\n      swap2\n      swap1\n      tag_32\n      swap1\n      tag_33\n      jump\t// in\n    tag_32:\n      swap2\n      swap1\n      0x0100\n      exp\n      dup2\n      sload\n      dup2\n      0xffffffffffffffff\n      mul\n      not\n      and\n      swap1\n      dup4\n      0xffffffffffffffff\n      and\n      mul\n      or\n      swap1\n      sstore\n      pop\n      pop\n        /* \"CRUD/crud.sol\":368:397  Item(itemCount, _description) */\n      mload(0x40)\n      dup1\n      0x40\n      add\n      0x40\n      mstore\n      dup1\n        /* \"CRUD/crud.sol\":373:382  itemCount */\n      0x00\n      dup1\n      sload\n      swap1\n      0x0100\n      exp\n      swap1\n      div\n      0xffffffffffffffff\n      and\n        /* \"CRUD/crud.sol\":368:397  Item(itemCount, _description) */\n      0xffffffffffffffff\n      and\n      dup2\n      mstore\n      0x20\n      add\n        /* \"CRUD/crud.sol\":384:396  _description */\n      dup3\n        /* \"CRUD/crud.sol\":368:397  Item(itemCount, _description) */\n      dup2\n      mstore\n      pop\n        /* \"CRUD/crud.sol\":349:354  items */\n      0x01\n        /* \"CRUD/crud.sol\":349:365  items[itemCount] */\n      0x00\n        /* \"CRUD/crud.sol\":355:364  itemCount */\n      dup1\n      0x00\n      swap1\n      sload\n      swap1\n      0x0100\n      exp\n      swap1\n      div\n      0xffffffffffffffff\n      and\n        /* \"CRUD/crud.sol\":349:365  items[itemCount] */\n      0xffffffffffffffff\n      and\n      dup2\n      mstore\n      0x20\n      add\n      swap1\n      dup2\n      mstore\n      0x20\n      add\n      0x00\n      keccak256\n        /* \"CRUD/crud.sol\":349:397  items[itemCount] = Item(itemCount, _description) */\n      0x00\n      dup3\n      add\n      mload\n      dup2\n      0x00\n      add\n      sstore\n      0x20\n      dup3\n      add\n      mload\n      dup2\n      0x01\n      add\n      swap1\n      dup2\n      tag_34\n      swap2\n      swap1\n      tag_35\n      jump\t// in\n    tag_34:\n      pop\n      swap1\n      pop\n      pop\n        /* \"CRUD/crud.sol\":261:405  function createItem(string memory _description) public {... */\n      pop\n      jump\t// out\n        /* \"CRUD/crud.sol\":81:108  uint64 public itemCount = 0 */\n    tag_13:\n      0x00\n      dup1\n      sload\n      swap1\n      0x0100\n      exp\n      swap1\n      div\n      0xffffffffffffffff\n      and\n      dup2\n      jump\t// out\n        /* \"CRUD/crud.sol\":434:532  function readItem(uint _id) public view returns (Item memory) {... */\n    tag_19:\n        /* \"CRUD/crud.sol\":483:494  Item memory */\n      tag_36\n      tag_37\n      jump\t// in\n    tag_36:\n        /* \"CRUD/crud.sol\":514:519  items */\n      0x01\n        /* \"CRUD/crud.sol\":514:524  items[_id] */\n      0x00\n        /* \"CRUD/crud.sol\":520:523  _id */\n      dup4\n        /* \"CRUD/crud.sol\":514:524  items[_id] */\n      dup2\n      mstore\n      0x20\n      add\n      swap1\n      dup2\n      mstore\n      0x20\n      add\n      0x00\n      keccak256\n        /* \"CRUD/crud.sol\":507:524  return items[_id] */\n      mload(0x40)\n      dup1\n      0x40\n      add\n      0x40\n      mstore\n      swap1\n      dup2\n      0x00\n      dup3\n      add\n      sload\n      dup2\n      mstore\n      0x20\n      add\n      0x01\n      dup3\n      add\n      dup1\n      sload\n      tag_39\n      swap1\n      tag_40\n      jump\t// in\n    tag_39:\n      dup1\n      0x1f\n      add\n      0x20\n      dup1\n      swap2\n      div\n      mul\n      0x20\n      add\n      mload(0x40)\n      swap1\n      dup2\n      add\n      0x40\n      mstore\n      dup1\n      swap3\n      swap2\n      swap1\n      dup2\n      dup2\n      mstore\n      0x20\n      add\n      dup3\n      dup1\n      sload\n      tag_41\n      swap1\n      tag_40\n      jump\t// in\n    tag_41:\n      dup1\n      iszero\n      tag_42\n      jumpi\n      dup1\n      0x1f\n      lt\n      tag_43\n      jumpi\n      0x0100\n      dup1\n      dup4\n      sload\n      div\n      mul\n      dup4\n      mstore\n      swap2\n      0x20\n      add\n      swap2\n      jump(tag_42)\n    tag_43:\n      dup3\n      add\n      swap2\n      swap1\n      0x00\n      mstore\n      keccak256(0x00, 0x20)\n      swap1\n    tag_44:\n      dup2\n      sload\n      dup2\n      mstore\n      swap1\n      0x01\n      add\n      swap1\n      0x20\n      add\n      dup1\n      dup4\n      gt\n      tag_44\n      jumpi\n      dup3\n      swap1\n      sub\n      0x1f\n      and\n      dup3\n      add\n      swap2\n    tag_42:\n      pop\n      pop\n      pop\n      pop\n      pop\n      dup2\n      mstore\n      pop\n      pop\n      swap1\n      pop\n        /* \"CRUD/crud.sol\":434:532  function readItem(uint _id) public view returns (Item memory) {... */\n      swap2\n      swap1\n      pop\n      jump\t// out\n        /* \"CRUD/crud.sol\":564:755  function updateItem(uint _id, string memory _description) public {... */\n    tag_25:\n        /* \"CRUD/crud.sol\":655:664  itemCount */\n      0x00\n      dup1\n      sload\n      swap1\n      0x0100\n      exp\n      swap1\n      div\n      0xffffffffffffffff\n      and\n        /* \"CRUD/crud.sol\":648:664  _id <= itemCount */\n      0xffffffffffffffff\n      and\n        /* \"CRUD/crud.sol\":648:651  _id */\n      dup3\n        /* \"CRUD/crud.sol\":648:664  _id <= itemCount */\n      gt\n      iszero\n        /* \"CRUD/crud.sol\":648:675  _id <= itemCount && _id > 0 */\n      dup1\n      iszero\n      tag_46\n      jumpi\n      pop\n        /* \"CRUD/crud.sol\":674:675  0 */\n      0x00\n        /* \"CRUD/crud.sol\":668:671  _id */\n      dup3\n        /* \"CRUD/crud.sol\":668:675  _id > 0 */\n      gt\n        /* \"CRUD/crud.sol\":648:675  _id <= itemCount && _id > 0 */\n    tag_46:\n        /* \"CRUD/crud.sol\":640:699  require(_id <= itemCount && _id > 0, \"Item does not exist\") */\n      tag_47\n      jumpi\n      mload(0x40)\n      0x08c379a000000000000000000000000000000000000000000000000000000000\n      dup2\n      mstore\n      0x04\n      add\n      tag_48\n      swap1\n      tag_49\n      jump\t// in\n    tag_48:\n      mload(0x40)\n      dup1\n      swap2\n      sub\n      swap1\n      revert\n    tag_47:\n        /* \"CRUD/crud.sol\":735:747  _description */\n      dup1\n        /* \"CRUD/crud.sol\":710:715  items */\n      0x01\n        /* \"CRUD/crud.sol\":710:720  items[_id] */\n      0x00\n        /* \"CRUD/crud.sol\":716:719  _id */\n      dup5\n        /* \"CRUD/crud.sol\":710:720  items[_id] */\n      dup2\n      mstore\n      0x20\n      add\n      swap1\n      dup2\n      mstore\n      0x20\n      add\n      0x00\n      keccak256\n        /* \"CRUD/crud.sol\":710:732  items[_id].description */\n      0x01\n      add\n        /* \"CRUD/crud.sol\":710:747  items[_id].description = _description */\n      swap1\n      dup2\n      tag_50\n      swap2\n      swap1\n      tag_35\n      jump\t// in\n    tag_50:\n      pop\n        /* \"CRUD/crud.sol\":564:755  function updateItem(uint _id, string memory _description) public {... */\n      pop\n      pop\n      jump\t// out\n        /* \"CRUD/crud.sol\":192:226  mapping(uint => Item) public items */\n    tag_28:\n      mstore(0x20, 0x01)\n      dup1\n      0x00\n      mstore\n      keccak256(0x00, 0x40)\n      0x00\n      swap2\n      pop\n      swap1\n      pop\n      dup1\n      0x00\n      add\n      sload\n      swap1\n      dup1\n      0x01\n      add\n      dup1\n      sload\n      tag_51\n      swap1\n      tag_40\n      jump\t// in\n    tag_51:\n      dup1\n      0x1f\n      add\n      0x20\n      dup1\n      swap2\n      div\n      mul\n      0x20\n      add\n      mload(0x40)\n      swap1\n      dup2\n      add\n      0x40\n      mstore\n      dup1\n      swap3\n      swap2\n      swap1\n      dup2\n      dup2\n      mstore\n      0x20\n      add\n      dup3\n      dup1\n      sload\n      tag_52\n      swap1\n      tag_40\n      jump\t// in\n    tag_52:\n      dup1\n      iszero\n      tag_53\n      jumpi\n      dup1\n      0x1f\n      lt\n      tag_54\n      jumpi\n      0x0100\n      dup1\n      dup4\n      sload\n      div\n      mul\n      dup4\n      mstore\n      swap2\n      0x20\n      add\n      swap2\n      jump(tag_53)\n    tag_54:\n      dup3\n      add\n      swap2\n      swap1\n      0x00\n      mstore\n      keccak256(0x00, 0x20)\n      swap1\n    tag_55:\n      dup2\n      sload\n      dup2\n      mstore\n      swap1\n      0x01\n      add\n      swap1\n      0x20\n      add\n      dup1\n      dup4\n      gt\n      tag_55\n      jumpi\n      dup3\n      swap1\n      sub\n      0x1f\n      and\n      dup3\n      add\n      swap2\n    tag_53:\n      pop\n      pop\n      pop\n      pop\n      pop\n      swap1\n      pop\n      dup3\n      jump\t// out\n    tag_37:\n      mload(0x40)\n      dup1\n      0x40\n      add\n      0x40\n      mstore\n      dup1\n      0x00\n      dup2\n      mstore\n      0x20\n      add\n      0x60\n      dup2\n      mstore\n      pop\n      swap1\n      jump\t// out\n        /* \"#utility.yul\":7:82   */\n    tag_56:\n        /* \"#utility.yul\":40:46   */\n      0x00\n        /* \"#utility.yul\":73:75   */\n      0x40\n        /* \"#utility.yul\":67:76   */\n      mload\n        /* \"#utility.yul\":57:76   */\n      swap1\n      pop\n        /* \"#utility.yul\":7:82   */\n      swap1\n      jump\t// out\n        /* \"#utility.yul\":88:205   */\n    tag_57:\n        /* \"#utility.yul\":197:198   */\n      0x00\n        /* \"#utility.yul\":194:195   */\n      dup1\n        /* \"#utility.yul\":187:199   */\n      revert\n        /* \"#utility.yul\":211:328   */\n    tag_58:\n        /* \"#utility.yul\":320:321   */\n      0x00\n        /* \"#utility.yul\":317:318   */\n      dup1\n        /* \"#utility.yul\":310:322   */\n      revert\n        /* \"#utility.yul\":334:451   */\n    tag_59:\n        /* \"#utility.yul\":443:444   */\n      0x00\n        /* \"#utility.yul\":440:441   */\n      dup1\n        /* \"#utility.yul\":433:445   */\n      revert\n        /* \"#utility.yul\":457:574   */\n    tag_60:\n        /* \"#utility.yul\":566:567   */\n      0x00\n        /* \"#utility.yul\":563:564   */\n      dup1\n        /* \"#utility.yul\":556:568   */\n      revert\n        /* \"#utility.yul\":580:682   */\n    tag_61:\n        /* \"#utility.yul\":621:627   */\n      0x00\n        /* \"#utility.yul\":672:674   */\n      0x1f\n        /* \"#utility.yul\":668:675   */\n      not\n        /* \"#utility.yul\":663:665   */\n      0x1f\n        /* \"#utility.yul\":656:661   */\n      dup4\n        /* \"#utility.yul\":652:666   */\n      add\n        /* \"#utility.yul\":648:676   */\n      and\n        /* \"#utility.yul\":638:676   */\n      swap1\n      pop\n        /* \"#utility.yul\":580:682   */\n      swap2\n      swap1\n      pop\n      jump\t// out\n        /* \"#utility.yul\":688:868   */\n    tag_62:\n        /* \"#utility.yul\":736:813   */\n      0x4e487b7100000000000000000000000000000000000000000000000000000000\n        /* \"#utility.yul\":733:734   */\n      0x00\n        /* \"#utility.yul\":726:814   */\n      mstore\n        /* \"#utility.yul\":833:837   */\n      0x41\n        /* \"#utility.yul\":830:831   */\n      0x04\n        /* \"#utility.yul\":823:838   */\n      mstore\n        /* \"#utility.yul\":857:861   */\n      0x24\n        /* \"#utility.yul\":854:855   */\n      0x00\n        /* \"#utility.yul\":847:862   */\n      revert\n        /* \"#utility.yul\":874:1155   */\n    tag_63:\n        /* \"#utility.yul\":957:984   */\n      tag_111\n        /* \"#utility.yul\":979:983   */\n      dup3\n        /* \"#utility.yul\":957:984   */\n      tag_61\n      jump\t// in\n    tag_111:\n        /* \"#utility.yul\":949:955   */\n      dup2\n        /* \"#utility.yul\":945:985   */\n      add\n        /* \"#utility.yul\":1087:1093   */\n      dup2\n        /* \"#utility.yul\":1075:1085   */\n      dup2\n        /* \"#utility.yul\":1072:1094   */\n      lt\n        /* \"#utility.yul\":1051:1069   */\n      0xffffffffffffffff\n        /* \"#utility.yul\":1039:1049   */\n      dup3\n        /* \"#utility.yul\":1036:1070   */\n      gt\n        /* \"#utility.yul\":1033:1095   */\n      or\n        /* \"#utility.yul\":1030:1118   */\n      iszero\n      tag_112\n      jumpi\n        /* \"#utility.yul\":1098:1116   */\n      tag_113\n      tag_62\n      jump\t// in\n    tag_113:\n        /* \"#utility.yul\":1030:1118   */\n    tag_112:\n        /* \"#utility.yul\":1138:1148   */\n      dup1\n        /* \"#utility.yul\":1134:1136   */\n      0x40\n        /* \"#utility.yul\":1127:1149   */\n      mstore\n        /* \"#utility.yul\":917:1155   */\n      pop\n        /* \"#utility.yul\":874:1155   */\n      pop\n      pop\n      jump\t// out\n        /* \"#utility.yul\":1161:1290   */\n    tag_64:\n        /* \"#utility.yul\":1195:1201   */\n      0x00\n        /* \"#utility.yul\":1222:1242   */\n      tag_115\n      tag_56\n      jump\t// in\n    tag_115:\n        /* \"#utility.yul\":1212:1242   */\n      swap1\n      pop\n        /* \"#utility.yul\":1251:1284   */\n      tag_116\n        /* \"#utility.yul\":1279:1283   */\n      dup3\n        /* \"#utility.yul\":1271:1277   */\n      dup3\n        /* \"#utility.yul\":1251:1284   */\n      tag_63\n      jump\t// in\n    tag_116:\n        /* \"#utility.yul\":1161:1290   */\n      swap2\n      swap1\n      pop\n      jump\t// out\n        /* \"#utility.yul\":1296:1604   */\n    tag_65:\n        /* \"#utility.yul\":1358:1362   */\n      0x00\n        /* \"#utility.yul\":1448:1466   */\n      0xffffffffffffffff\n        /* \"#utility.yul\":1440:1446   */\n      dup3\n        /* \"#utility.yul\":1437:1467   */\n      gt\n        /* \"#utility.yul\":1434:1490   */\n      iszero\n      tag_118\n      jumpi\n        /* \"#utility.yul\":1470:1488   */\n      tag_119\n      tag_62\n      jump\t// in\n    tag_119:\n        /* \"#utility.yul\":1434:1490   */\n    tag_118:\n        /* \"#utility.yul\":1508:1537   */\n      tag_120\n        /* \"#utility.yul\":1530:1536   */\n      dup3\n        /* \"#utility.yul\":1508:1537   */\n      tag_61\n      jump\t// in\n    tag_120:\n        /* \"#utility.yul\":1500:1537   */\n      swap1\n      pop\n        /* \"#utility.yul\":1592:1596   */\n      0x20\n        /* \"#utility.yul\":1586:1590   */\n      dup2\n        /* \"#utility.yul\":1582:1597   */\n      add\n        /* \"#utility.yul\":1574:1597   */\n      swap1\n      pop\n        /* \"#utility.yul\":1296:1604   */\n      swap2\n      swap1\n      pop\n      jump\t// out\n        /* \"#utility.yul\":1610:1758   */\n    tag_66:\n        /* \"#utility.yul\":1708:1714   */\n      dup3\n        /* \"#utility.yul\":1703:1706   */\n      dup2\n        /* \"#utility.yul\":1698:1701   */\n      dup4\n        /* \"#utility.yul\":1685:1715   */\n      calldatacopy\n        /* \"#utility.yul\":1749:1750   */\n      0x00\n        /* \"#utility.yul\":1740:1746   */\n      dup4\n        /* \"#utility.yul\":1735:1738   */\n      dup4\n        /* \"#utility.yul\":1731:1747   */\n      add\n        /* \"#utility.yul\":1724:1751   */\n      mstore\n        /* \"#utility.yul\":1610:1758   */\n      pop\n      pop\n      pop\n      jump\t// out\n        /* \"#utility.yul\":1764:2189   */\n    tag_67:\n        /* \"#utility.yul\":1842:1847   */\n      0x00\n        /* \"#utility.yul\":1867:1933   */\n      tag_123\n        /* \"#utility.yul\":1883:1932   */\n      tag_124\n        /* \"#utility.yul\":1925:1931   */\n      dup5\n        /* \"#utility.yul\":1883:1932   */\n      tag_65\n      jump\t// in\n    tag_124:\n        /* \"#utility.yul\":1867:1933   */\n      tag_64\n      jump\t// in\n    tag_123:\n        /* \"#utility.yul\":1858:1933   */\n      swap1\n      pop\n        /* \"#utility.yul\":1956:1962   */\n      dup3\n        /* \"#utility.yul\":1949:1954   */\n      dup2\n        /* \"#utility.yul\":1942:1963   */\n      mstore\n        /* \"#utility.yul\":1994:1998   */\n      0x20\n        /* \"#utility.yul\":1987:1992   */\n      dup2\n        /* \"#utility.yul\":1983:1999   */\n      add\n        /* \"#utility.yul\":2032:2035   */\n      dup5\n        /* \"#utility.yul\":2023:2029   */\n      dup5\n        /* \"#utility.yul\":2018:2021   */\n      dup5\n        /* \"#utility.yul\":2014:2030   */\n      add\n        /* \"#utility.yul\":2011:2036   */\n      gt\n        /* \"#utility.yul\":2008:2120   */\n      iszero\n      tag_125\n      jumpi\n        /* \"#utility.yul\":2039:2118   */\n      tag_126\n      tag_60\n      jump\t// in\n    tag_126:\n        /* \"#utility.yul\":2008:2120   */\n    tag_125:\n        /* \"#utility.yul\":2129:2183   */\n      tag_127\n        /* \"#utility.yul\":2176:2182   */\n      dup5\n        /* \"#utility.yul\":2171:2174   */\n      dup3\n        /* \"#utility.yul\":2166:2169   */\n      dup6\n        /* \"#utility.yul\":2129:2183   */\n      tag_66\n      jump\t// in\n    tag_127:\n        /* \"#utility.yul\":1848:2189   */\n      pop\n        /* \"#utility.yul\":1764:2189   */\n      swap4\n      swap3\n      pop\n      pop\n      pop\n      jump\t// out\n        /* \"#utility.yul\":2209:2549   */\n    tag_68:\n        /* \"#utility.yul\":2265:2270   */\n      0x00\n        /* \"#utility.yul\":2314:2317   */\n      dup3\n        /* \"#utility.yul\":2307:2311   */\n      0x1f\n        /* \"#utility.yul\":2299:2305   */\n      dup4\n        /* \"#utility.yul\":2295:2312   */\n      add\n        /* \"#utility.yul\":2291:2318   */\n      slt\n        /* \"#utility.yul\":2281:2403   */\n      tag_129\n      jumpi\n        /* \"#utility.yul\":2322:2401   */\n      tag_130\n      tag_59\n      jump\t// in\n    tag_130:\n        /* \"#utility.yul\":2281:2403   */\n    tag_129:\n        /* \"#utility.yul\":2439:2445   */\n      dup2\n        /* \"#utility.yul\":2426:2446   */\n      calldataload\n        /* \"#utility.yul\":2464:2543   */\n      tag_131\n        /* \"#utility.yul\":2539:2542   */\n      dup5\n        /* \"#utility.yul\":2531:2537   */\n      dup3\n        /* \"#utility.yul\":2524:2528   */\n      0x20\n        /* \"#utility.yul\":2516:2522   */\n      dup7\n        /* \"#utility.yul\":2512:2529   */\n      add\n        /* \"#utility.yul\":2464:2543   */\n      tag_67\n      jump\t// in\n    tag_131:\n        /* \"#utility.yul\":2455:2543   */\n      swap2\n      pop\n        /* \"#utility.yul\":2271:2549   */\n      pop\n        /* \"#utility.yul\":2209:2549   */\n      swap3\n      swap2\n      pop\n      pop\n      jump\t// out\n        /* \"#utility.yul\":2555:3064   */\n    tag_10:\n        /* \"#utility.yul\":2624:2630   */\n      0x00\n        /* \"#utility.yul\":2673:2675   */\n      0x20\n        /* \"#utility.yul\":2661:2670   */\n      dup3\n        /* \"#utility.yul\":2652:2659   */\n      dup5\n        /* \"#utility.yul\":2648:2671   */\n      sub\n        /* \"#utility.yul\":2644:2676   */\n      slt\n        /* \"#utility.yul\":2641:2760   */\n      iszero\n      tag_133\n      jumpi\n        /* \"#utility.yul\":2679:2758   */\n      tag_134\n      tag_57\n      jump\t// in\n    tag_134:\n        /* \"#utility.yul\":2641:2760   */\n    tag_133:\n        /* \"#utility.yul\":2827:2828   */\n      0x00\n        /* \"#utility.yul\":2816:2825   */\n      dup3\n        /* \"#utility.yul\":2812:2829   */\n      add\n        /* \"#utility.yul\":2799:2830   */\n      calldataload\n        /* \"#utility.yul\":2857:2875   */\n      0xffffffffffffffff\n        /* \"#utility.yul\":2849:2855   */\n      dup2\n        /* \"#utility.yul\":2846:2876   */\n      gt\n        /* \"#utility.yul\":2843:2960   */\n      iszero\n      tag_135\n      jumpi\n        /* \"#utility.yul\":2879:2958   */\n      tag_136\n      tag_58\n      jump\t// in\n    tag_136:\n        /* \"#utility.yul\":2843:2960   */\n    tag_135:\n        /* \"#utility.yul\":2984:3047   */\n      tag_137\n        /* \"#utility.yul\":3039:3046   */\n      dup5\n        /* \"#utility.yul\":3030:3036   */\n      dup3\n        /* \"#utility.yul\":3019:3028   */\n      dup6\n        /* \"#utility.yul\":3015:3037   */\n      add\n        /* \"#utility.yul\":2984:3047   */\n      tag_68\n      jump\t// in\n    tag_137:\n        /* \"#utility.yul\":2974:3047   */\n      swap2\n      pop\n        /* \"#utility.yul\":2770:3057   */\n      pop\n        /* \"#utility.yul\":2555:3064   */\n      swap3\n      swap2\n      pop\n      pop\n      jump\t// out\n        /* \"#utility.yul\":3070:3171   */\n    tag_69:\n        /* \"#utility.yul\":3106:3113   */\n      0x00\n        /* \"#utility.yul\":3146:3164   */\n      0xffffffffffffffff\n        /* \"#utility.yul\":3139:3144   */\n      dup3\n        /* \"#utility.yul\":3135:3165   */\n      and\n        /* \"#utility.yul\":3124:3165   */\n      swap1\n      pop\n        /* \"#utility.yul\":3070:3171   */\n      swap2\n      swap1\n      pop\n      jump\t// out\n        /* \"#utility.yul\":3177:3292   */\n    tag_70:\n        /* \"#utility.yul\":3262:3285   */\n      tag_140\n        /* \"#utility.yul\":3279:3284   */\n      dup2\n        /* \"#utility.yul\":3262:3285   */\n      tag_69\n      jump\t// in\n    tag_140:\n        /* \"#utility.yul\":3257:3260   */\n      dup3\n        /* \"#utility.yul\":3250:3286   */\n      mstore\n        /* \"#utility.yul\":3177:3292   */\n      pop\n      pop\n      jump\t// out\n        /* \"#utility.yul\":3298:3516   */\n    tag_15:\n        /* \"#utility.yul\":3389:3393   */\n      0x00\n        /* \"#utility.yul\":3427:3429   */\n      0x20\n        /* \"#utility.yul\":3416:3425   */\n      dup3\n        /* \"#utility.yul\":3412:3430   */\n      add\n        /* \"#utility.yul\":3404:3430   */\n      swap1\n      pop\n        /* \"#utility.yul\":3440:3509   */\n      tag_142\n        /* \"#utility.yul\":3506:3507   */\n      0x00\n        /* \"#utility.yul\":3495:3504   */\n      dup4\n        /* \"#utility.yul\":3491:3508   */\n      add\n        /* \"#utility.yul\":3482:3488   */\n      dup5\n        /* \"#utility.yul\":3440:3509   */\n      tag_70\n      jump\t// in\n    tag_142:\n        /* \"#utility.yul\":3298:3516   */\n      swap3\n      swap2\n      pop\n      pop\n      jump\t// out\n        /* \"#utility.yul\":3522:3599   */\n    tag_71:\n        /* \"#utility.yul\":3559:3566   */\n      0x00\n        /* \"#utility.yul\":3588:3593   */\n      dup2\n        /* \"#utility.yul\":3577:3593   */\n      swap1\n      pop\n        /* \"#utility.yul\":3522:3599   */\n      swap2\n      swap1\n      pop\n      jump\t// out\n        /* \"#utility.yul\":3605:3727   */\n    tag_72:\n        /* \"#utility.yul\":3678:3702   */\n      tag_145\n        /* \"#utility.yul\":3696:3701   */\n      dup2\n        /* \"#utility.yul\":3678:3702   */\n      tag_71\n      jump\t// in\n    tag_145:\n        /* \"#utility.yul\":3671:3676   */\n      dup2\n        /* \"#utility.yul\":3668:3703   */\n      eq\n        /* \"#utility.yul\":3658:3721   */\n      tag_146\n      jumpi\n        /* \"#utility.yul\":3717:3718   */\n      0x00\n        /* \"#utility.yul\":3714:3715   */\n      dup1\n        /* \"#utility.yul\":3707:3719   */\n      revert\n        /* \"#utility.yul\":3658:3721   */\n    tag_146:\n        /* \"#utility.yul\":3605:3727   */\n      pop\n      jump\t// out\n        /* \"#utility.yul\":3733:3872   */\n    tag_73:\n        /* \"#utility.yul\":3779:3784   */\n      0x00\n        /* \"#utility.yul\":3817:3823   */\n      dup2\n        /* \"#utility.yul\":3804:3824   */\n      calldataload\n        /* \"#utility.yul\":3795:3824   */\n      swap1\n      pop\n        /* \"#utility.yul\":3833:3866   */\n      tag_148\n        /* \"#utility.yul\":3860:3865   */\n      dup2\n        /* \"#utility.yul\":3833:3866   */\n      tag_72\n      jump\t// in\n    tag_148:\n        /* \"#utility.yul\":3733:3872   */\n      swap3\n      swap2\n      pop\n      pop\n      jump\t// out\n        /* \"#utility.yul\":3878:4207   */\n    tag_18:\n        /* \"#utility.yul\":3937:3943   */\n      0x00\n        /* \"#utility.yul\":3986:3988   */\n      0x20\n        /* \"#utility.yul\":3974:3983   */\n      dup3\n        /* \"#utility.yul\":3965:3972   */\n      dup5\n        /* \"#utility.yul\":3961:3984   */\n      sub\n        /* \"#utility.yul\":3957:3989   */\n      slt\n        /* \"#utility.yul\":3954:4073   */\n      iszero\n      tag_150\n      jumpi\n        /* \"#utility.yul\":3992:4071   */\n      tag_151\n      tag_57\n      jump\t// in\n    tag_151:\n        /* \"#utility.yul\":3954:4073   */\n    tag_150:\n        /* \"#utility.yul\":4112:4113   */\n      0x00\n        /* \"#utility.yul\":4137:4190   */\n      tag_152\n        /* \"#utility.yul\":4182:4189   */\n      dup5\n        /* \"#utility.yul\":4173:4179   */\n      dup3\n        /* \"#utility.yul\":4162:4171   */\n      dup6\n        /* \"#utility.yul\":4158:4180   */\n      add\n        /* \"#utility.yul\":4137:4190   */\n      tag_73\n      jump\t// in\n    tag_152:\n        /* \"#utility.yul\":4127:4190   */\n      swap2\n      pop\n        /* \"#utility.yul\":4083:4200   */\n      pop\n        /* \"#utility.yul\":3878:4207   */\n      swap3\n      swap2\n      pop\n      pop\n      jump\t// out\n        /* \"#utility.yul\":4213:4321   */\n    tag_74:\n        /* \"#utility.yul\":4290:4314   */\n      tag_154\n        /* \"#utility.yul\":4308:4313   */\n      dup2\n        /* \"#utility.yul\":4290:4314   */\n      tag_71\n      jump\t// in\n    tag_154:\n        /* \"#utility.yul\":4285:4288   */\n      dup3\n        /* \"#utility.yul\":4278:4315   */\n      mstore\n        /* \"#utility.yul\":4213:4321   */\n      pop\n      pop\n      jump\t// out\n        /* \"#utility.yul\":4327:4426   */\n    tag_75:\n        /* \"#utility.yul\":4379:4385   */\n      0x00\n        /* \"#utility.yul\":4413:4418   */\n      dup2\n        /* \"#utility.yul\":4407:4419   */\n      mload\n        /* \"#utility.yul\":4397:4419   */\n      swap1\n      pop\n        /* \"#utility.yul\":4327:4426   */\n      swap2\n      swap1\n      pop\n      jump\t// out\n        /* \"#utility.yul\":4432:4591   */\n    tag_76:\n        /* \"#utility.yul\":4506:4517   */\n      0x00\n        /* \"#utility.yul\":4540:4546   */\n      dup3\n        /* \"#utility.yul\":4535:4538   */\n      dup3\n        /* \"#utility.yul\":4528:4547   */\n      mstore\n        /* \"#utility.yul\":4580:4584   */\n      0x20\n        /* \"#utility.yul\":4575:4578   */\n      dup3\n        /* \"#utility.yul\":4571:4585   */\n      add\n        /* \"#utility.yul\":4556:4585   */\n      swap1\n      pop\n        /* \"#utility.yul\":4432:4591   */\n      swap3\n      swap2\n      pop\n      pop\n      jump\t// out\n        /* \"#utility.yul\":4597:4736   */\n    tag_77:\n        /* \"#utility.yul\":4686:4692   */\n      dup3\n        /* \"#utility.yul\":4681:4684   */\n      dup2\n        /* \"#utility.yul\":4676:4679   */\n      dup4\n        /* \"#utility.yul\":4670:4693   */\n      mcopy\n        /* \"#utility.yul\":4727:4728   */\n      0x00\n        /* \"#utility.yul\":4718:4724   */\n      dup4\n        /* \"#utility.yul\":4713:4716   */\n      dup4\n        /* \"#utility.yul\":4709:4725   */\n      add\n        /* \"#utility.yul\":4702:4729   */\n      mstore\n        /* \"#utility.yul\":4597:4736   */\n      pop\n      pop\n      pop\n      jump\t// out\n        /* \"#utility.yul\":4742:5099   */\n    tag_78:\n        /* \"#utility.yul\":4820:4823   */\n      0x00\n        /* \"#utility.yul\":4848:4887   */\n      tag_159\n        /* \"#utility.yul\":4881:4886   */\n      dup3\n        /* \"#utility.yul\":4848:4887   */\n      tag_75\n      jump\t// in\n    tag_159:\n        /* \"#utility.yul\":4903:4964   */\n      tag_160\n        /* \"#utility.yul\":4957:4963   */\n      dup2\n        /* \"#utility.yul\":4952:4955   */\n      dup6\n        /* \"#utility.yul\":4903:4964   */\n      tag_76\n      jump\t// in\n    tag_160:\n        /* \"#utility.yul\":4896:4964   */\n      swap4\n      pop\n        /* \"#utility.yul\":4973:5038   */\n      tag_161\n        /* \"#utility.yul\":5031:5037   */\n      dup2\n        /* \"#utility.yul\":5026:5029   */\n      dup6\n        /* \"#utility.yul\":5019:5023   */\n      0x20\n        /* \"#utility.yul\":5012:5017   */\n      dup7\n        /* \"#utility.yul\":5008:5024   */\n      add\n        /* \"#utility.yul\":4973:5038   */\n      tag_77\n      jump\t// in\n    tag_161:\n        /* \"#utility.yul\":5063:5092   */\n      tag_162\n        /* \"#utility.yul\":5085:5091   */\n      dup2\n        /* \"#utility.yul\":5063:5092   */\n      tag_61\n      jump\t// in\n    tag_162:\n        /* \"#utility.yul\":5058:5061   */\n      dup5\n        /* \"#utility.yul\":5054:5093   */\n      add\n        /* \"#utility.yul\":5047:5093   */\n      swap2\n      pop\n        /* \"#utility.yul\":4824:5099   */\n      pop\n        /* \"#utility.yul\":4742:5099   */\n      swap3\n      swap2\n      pop\n      pop\n      jump\t// out\n        /* \"#utility.yul\":5149:5748   */\n    tag_79:\n        /* \"#utility.yul\":5256:5259   */\n      0x00\n        /* \"#utility.yul\":5292:5296   */\n      0x40\n        /* \"#utility.yul\":5287:5290   */\n      dup4\n        /* \"#utility.yul\":5283:5297   */\n      add\n        /* \"#utility.yul\":5377:5381   */\n      0x00\n        /* \"#utility.yul\":5370:5375   */\n      dup4\n        /* \"#utility.yul\":5366:5382   */\n      add\n        /* \"#utility.yul\":5360:5383   */\n      mload\n        /* \"#utility.yul\":5396:5459   */\n      tag_164\n        /* \"#utility.yul\":5453:5457   */\n      0x00\n        /* \"#utility.yul\":5448:5451   */\n      dup7\n        /* \"#utility.yul\":5444:5458   */\n      add\n        /* \"#utility.yul\":5430:5442   */\n      dup3\n        /* \"#utility.yul\":5396:5459   */\n      tag_74\n      jump\t// in\n    tag_164:\n        /* \"#utility.yul\":5307:5469   */\n      pop\n        /* \"#utility.yul\":5558:5562   */\n      0x20\n        /* \"#utility.yul\":5551:5556   */\n      dup4\n        /* \"#utility.yul\":5547:5563   */\n      add\n        /* \"#utility.yul\":5541:5564   */\n      mload\n        /* \"#utility.yul\":5611:5614   */\n      dup5\n        /* \"#utility.yul\":5605:5609   */\n      dup3\n        /* \"#utility.yul\":5601:5615   */\n      sub\n        /* \"#utility.yul\":5594:5598   */\n      0x20\n        /* \"#utility.yul\":5589:5592   */\n      dup7\n        /* \"#utility.yul\":5585:5599   */\n      add\n        /* \"#utility.yul\":5578:5616   */\n      mstore\n        /* \"#utility.yul\":5637:5710   */\n      tag_165\n        /* \"#utility.yul\":5705:5709   */\n      dup3\n        /* \"#utility.yul\":5691:5703   */\n      dup3\n        /* \"#utility.yul\":5637:5710   */\n      tag_78\n      jump\t// in\n    tag_165:\n        /* \"#utility.yul\":5629:5710   */\n      swap2\n      pop\n        /* \"#utility.yul\":5479:5721   */\n      pop\n        /* \"#utility.yul\":5738:5742   */\n      dup1\n        /* \"#utility.yul\":5731:5742   */\n      swap2\n      pop\n        /* \"#utility.yul\":5261:5748   */\n      pop\n        /* \"#utility.yul\":5149:5748   */\n      swap3\n      swap2\n      pop\n      pop\n      jump\t// out\n        /* \"#utility.yul\":5754:6103   */\n    tag_21:\n        /* \"#utility.yul\":5885:5889   */\n      0x00\n        /* \"#utility.yul\":5923:5925   */\n      0x20\n        /* \"#utility.yul\":5912:5921   */\n      dup3\n        /* \"#utility.yul\":5908:5926   */\n      add\n        /* \"#utility.yul\":5900:5926   */\n      swap1\n      pop\n        /* \"#utility.yul\":5972:5981   */\n      dup2\n        /* \"#utility.yul\":5966:5970   */\n      dup2\n        /* \"#utility.yul\":5962:5982   */\n      sub\n        /* \"#utility.yul\":5958:5959   */\n      0x00\n        /* \"#utility.yul\":5947:5956   */\n      dup4\n        /* \"#utility.yul\":5943:5960   */\n      add\n        /* \"#utility.yul\":5936:5983   */\n      mstore\n        /* \"#utility.yul\":6000:6096   */\n      tag_167\n        /* \"#utility.yul\":6091:6095   */\n      dup2\n        /* \"#utility.yul\":6082:6088   */\n      dup5\n        /* \"#utility.yul\":6000:6096   */\n      tag_79\n      jump\t// in\n    tag_167:\n        /* \"#utility.yul\":5992:6096   */\n      swap1\n      pop\n        /* \"#utility.yul\":5754:6103   */\n      swap3\n      swap2\n      pop\n      pop\n      jump\t// out\n        /* \"#utility.yul\":6109:6763   */\n    tag_24:\n        /* \"#utility.yul\":6187:6193   */\n      0x00\n        /* \"#utility.yul\":6195:6201   */\n      dup1\n        /* \"#utility.yul\":6244:6246   */\n      0x40\n        /* \"#utility.yul\":6232:6241   */\n      dup4\n        /* \"#utility.yul\":6223:6230   */\n      dup6\n        /* \"#utility.yul\":6219:6242   */\n      sub\n        /* \"#utility.yul\":6215:6247   */\n      slt\n        /* \"#utility.yul\":6212:6331   */\n      iszero\n      tag_169\n      jumpi\n        /* \"#utility.yul\":6250:6329   */\n      tag_170\n      tag_57\n      jump\t// in\n    tag_170:\n        /* \"#utility.yul\":6212:6331   */\n    tag_169:\n        /* \"#utility.yul\":6370:6371   */\n      0x00\n        /* \"#utility.yul\":6395:6448   */\n      tag_171\n        /* \"#utility.yul\":6440:6447   */\n      dup6\n        /* \"#utility.yul\":6431:6437   */\n      dup3\n        /* \"#utility.yul\":6420:6429   */\n      dup7\n        /* \"#utility.yul\":6416:6438   */\n      add\n        /* \"#utility.yul\":6395:6448   */\n      tag_73\n      jump\t// in\n    tag_171:\n        /* \"#utility.yul\":6385:6448   */\n      swap3\n      pop\n        /* \"#utility.yul\":6341:6458   */\n      pop\n        /* \"#utility.yul\":6525:6527   */\n      0x20\n        /* \"#utility.yul\":6514:6523   */\n      dup4\n        /* \"#utility.yul\":6510:6528   */\n      add\n        /* \"#utility.yul\":6497:6529   */\n      calldataload\n        /* \"#utility.yul\":6556:6574   */\n      0xffffffffffffffff\n        /* \"#utility.yul\":6548:6554   */\n      dup2\n        /* \"#utility.yul\":6545:6575   */\n      gt\n        /* \"#utility.yul\":6542:6659   */\n      iszero\n      tag_172\n      jumpi\n        /* \"#utility.yul\":6578:6657   */\n      tag_173\n      tag_58\n      jump\t// in\n    tag_173:\n        /* \"#utility.yul\":6542:6659   */\n    tag_172:\n        /* \"#utility.yul\":6683:6746   */\n      tag_174\n        /* \"#utility.yul\":6738:6745   */\n      dup6\n        /* \"#utility.yul\":6729:6735   */\n      dup3\n        /* \"#utility.yul\":6718:6727   */\n      dup7\n        /* \"#utility.yul\":6714:6736   */\n      add\n        /* \"#utility.yul\":6683:6746   */\n      tag_68\n      jump\t// in\n    tag_174:\n        /* \"#utility.yul\":6673:6746   */\n      swap2\n      pop\n        /* \"#utility.yul\":6468:6756   */\n      pop\n        /* \"#utility.yul\":6109:6763   */\n      swap3\n      pop\n      swap3\n      swap1\n      pop\n      jump\t// out\n        /* \"#utility.yul\":6769:6887   */\n    tag_80:\n        /* \"#utility.yul\":6856:6880   */\n      tag_176\n        /* \"#utility.yul\":6874:6879   */\n      dup2\n        /* \"#utility.yul\":6856:6880   */\n      tag_71\n      jump\t// in\n    tag_176:\n        /* \"#utility.yul\":6851:6854   */\n      dup3\n        /* \"#utility.yul\":6844:6881   */\n      mstore\n        /* \"#utility.yul\":6769:6887   */\n      pop\n      pop\n      jump\t// out\n        /* \"#utility.yul\":6893:7062   */\n    tag_81:\n        /* \"#utility.yul\":6977:6988   */\n      0x00\n        /* \"#utility.yul\":7011:7017   */\n      dup3\n        /* \"#utility.yul\":7006:7009   */\n      dup3\n        /* \"#utility.yul\":6999:7018   */\n      mstore\n        /* \"#utility.yul\":7051:7055   */\n      0x20\n        /* \"#utility.yul\":7046:7049   */\n      dup3\n        /* \"#utility.yul\":7042:7056   */\n      add\n        /* \"#utility.yul\":7027:7056   */\n      swap1\n      pop\n        /* \"#utility.yul\":6893:7062   */\n      swap3\n      swap2\n      pop\n      pop\n      jump\t// out\n        /* \"#utility.yul\":7068:7445   */\n    tag_82:\n        /* \"#utility.yul\":7156:7159   */\n      0x00\n        /* \"#utility.yul\":7184:7223   */\n      tag_179\n        /* \"#utility.yul\":7217:7222   */\n      dup3\n        /* \"#utility.yul\":7184:7223   */\n      tag_75\n      jump\t// in\n    tag_179:\n        /* \"#utility.yul\":7239:7310   */\n      tag_180\n        /* \"#utility.yul\":7303:7309   */\n      dup2\n        /* \"#utility.yul\":7298:7301   */\n      dup6\n        /* \"#utility.yul\":7239:7310   */\n      tag_81\n      jump\t// in\n    tag_180:\n        /* \"#utility.yul\":7232:7310   */\n      swap4\n      pop\n        /* \"#utility.yul\":7319:7384   */\n      tag_181\n        /* \"#utility.yul\":7377:7383   */\n      dup2\n        /* \"#utility.yul\":7372:7375   */\n      dup6\n        /* \"#utility.yul\":7365:7369   */\n      0x20\n        /* \"#utility.yul\":7358:7363   */\n      dup7\n        /* \"#utility.yul\":7354:7370   */\n      add\n        /* \"#utility.yul\":7319:7384   */\n      tag_77\n      jump\t// in\n    tag_181:\n        /* \"#utility.yul\":7409:7438   */\n      tag_182\n        /* \"#utility.yul\":7431:7437   */\n      dup2\n        /* \"#utility.yul\":7409:7438   */\n      tag_61\n      jump\t// in\n    tag_182:\n        /* \"#utility.yul\":7404:7407   */\n      dup5\n        /* \"#utility.yul\":7400:7439   */\n      add\n        /* \"#utility.yul\":7393:7439   */\n      swap2\n      pop\n        /* \"#utility.yul\":7160:7445   */\n      pop\n        /* \"#utility.yul\":7068:7445   */\n      swap3\n      swap2\n      pop\n      pop\n      jump\t// out\n        /* \"#utility.yul\":7451:7874   */\n    tag_30:\n        /* \"#utility.yul\":7592:7596   */\n      0x00\n        /* \"#utility.yul\":7630:7632   */\n      0x40\n        /* \"#utility.yul\":7619:7628   */\n      dup3\n        /* \"#utility.yul\":7615:7633   */\n      add\n        /* \"#utility.yul\":7607:7633   */\n      swap1\n      pop\n        /* \"#utility.yul\":7643:7714   */\n      tag_184\n        /* \"#utility.yul\":7711:7712   */\n      0x00\n        /* \"#utility.yul\":7700:7709   */\n      dup4\n        /* \"#utility.yul\":7696:7713   */\n      add\n        /* \"#utility.yul\":7687:7693   */\n      dup6\n        /* \"#utility.yul\":7643:7714   */\n      tag_80\n      jump\t// in\n    tag_184:\n        /* \"#utility.yul\":7761:7770   */\n      dup2\n        /* \"#utility.yul\":7755:7759   */\n      dup2\n        /* \"#utility.yul\":7751:7771   */\n      sub\n        /* \"#utility.yul\":7746:7748   */\n      0x20\n        /* \"#utility.yul\":7735:7744   */\n      dup4\n        /* \"#utility.yul\":7731:7749   */\n      add\n        /* \"#utility.yul\":7724:7772   */\n      mstore\n        /* \"#utility.yul\":7789:7867   */\n      tag_185\n        /* \"#utility.yul\":7862:7866   */\n      dup2\n        /* \"#utility.yul\":7853:7859   */\n      dup5\n        /* \"#utility.yul\":7789:7867   */\n      tag_82\n      jump\t// in\n    tag_185:\n        /* \"#utility.yul\":7781:7867   */\n      swap1\n      pop\n        /* \"#utility.yul\":7451:7874   */\n      swap4\n      swap3\n      pop\n      pop\n      pop\n      jump\t// out\n        /* \"#utility.yul\":7880:8060   */\n    tag_83:\n        /* \"#utility.yul\":7928:8005   */\n      0x4e487b7100000000000000000000000000000000000000000000000000000000\n        /* \"#utility.yul\":7925:7926   */\n      0x00\n        /* \"#utility.yul\":7918:8006   */\n      mstore\n        /* \"#utility.yul\":8025:8029   */\n      0x11\n        /* \"#utility.yul\":8022:8023   */\n      0x04\n        /* \"#utility.yul\":8015:8030   */\n      mstore\n        /* \"#utility.yul\":8049:8053   */\n      0x24\n        /* \"#utility.yul\":8046:8047   */\n      0x00\n        /* \"#utility.yul\":8039:8054   */\n      revert\n        /* \"#utility.yul\":8066:8249   */\n    tag_33:\n        /* \"#utility.yul\":8104:8107   */\n      0x00\n        /* \"#utility.yul\":8127:8150   */\n      tag_188\n        /* \"#utility.yul\":8144:8149   */\n      dup3\n        /* \"#utility.yul\":8127:8150   */\n      tag_69\n      jump\t// in\n    tag_188:\n        /* \"#utility.yul\":8118:8150   */\n      swap2\n      pop\n        /* \"#utility.yul\":8172:8190   */\n      0xffffffffffffffff\n        /* \"#utility.yul\":8165:8170   */\n      dup3\n        /* \"#utility.yul\":8162:8191   */\n      sub\n        /* \"#utility.yul\":8159:8214   */\n      tag_189\n      jumpi\n        /* \"#utility.yul\":8194:8212   */\n      tag_190\n      tag_83\n      jump\t// in\n    tag_190:\n        /* \"#utility.yul\":8159:8214   */\n    tag_189:\n        /* \"#utility.yul\":8241:8242   */\n      0x01\n        /* \"#utility.yul\":8234:8239   */\n      dup3\n        /* \"#utility.yul\":8230:8243   */\n      add\n        /* \"#utility.yul\":8223:8243   */\n      swap1\n      pop\n        /* \"#utility.yul\":8066:8249   */\n      swap2\n      swap1\n      pop\n      jump\t// out\n        /* \"#utility.yul\":8255:8435   */\n    tag_84:\n        /* \"#utility.yul\":8303:8380   */\n      0x4e487b7100000000000000000000000000000000000000000000000000000000\n        /* \"#utility.yul\":8300:8301   */\n      0x00\n        /* \"#utility.yul\":8293:8381   */\n      mstore\n        /* \"#utility.yul\":8400:8404   */\n      0x22\n        /* \"#utility.yul\":8397:8398   */\n      0x04\n        /* \"#utility.yul\":8390:8405   */\n      mstore\n        /* \"#utility.yul\":8424:8428   */\n      0x24\n        /* \"#utility.yul\":8421:8422   */\n      0x00\n        /* \"#utility.yul\":8414:8429   */\n      revert\n        /* \"#utility.yul\":8441:8761   */\n    tag_40:\n        /* \"#utility.yul\":8485:8491   */\n      0x00\n        /* \"#utility.yul\":8522:8523   */\n      0x02\n        /* \"#utility.yul\":8516:8520   */\n      dup3\n        /* \"#utility.yul\":8512:8524   */\n      div\n        /* \"#utility.yul\":8502:8524   */\n      swap1\n      pop\n        /* \"#utility.yul\":8569:8570   */\n      0x01\n        /* \"#utility.yul\":8563:8567   */\n      dup3\n        /* \"#utility.yul\":8559:8571   */\n      and\n        /* \"#utility.yul\":8590:8608   */\n      dup1\n        /* \"#utility.yul\":8580:8661   */\n      tag_193\n      jumpi\n        /* \"#utility.yul\":8646:8650   */\n      0x7f\n        /* \"#utility.yul\":8638:8644   */\n      dup3\n        /* \"#utility.yul\":8634:8651   */\n      and\n        /* \"#utility.yul\":8624:8651   */\n      swap2\n      pop\n        /* \"#utility.yul\":8580:8661   */\n    tag_193:\n        /* \"#utility.yul\":8708:8710   */\n      0x20\n        /* \"#utility.yul\":8700:8706   */\n      dup3\n        /* \"#utility.yul\":8697:8711   */\n      lt\n        /* \"#utility.yul\":8677:8695   */\n      dup2\n        /* \"#utility.yul\":8674:8712   */\n      sub\n        /* \"#utility.yul\":8671:8755   */\n      tag_194\n      jumpi\n        /* \"#utility.yul\":8727:8745   */\n      tag_195\n      tag_84\n      jump\t// in\n    tag_195:\n        /* \"#utility.yul\":8671:8755   */\n    tag_194:\n        /* \"#utility.yul\":8492:8761   */\n      pop\n        /* \"#utility.yul\":8441:8761   */\n      swap2\n      swap1\n      pop\n      jump\t// out\n        /* \"#utility.yul\":8767:8908   */\n    tag_85:\n        /* \"#utility.yul\":8816:8820   */\n      0x00\n        /* \"#utility.yul\":8839:8842   */\n      dup2\n        /* \"#utility.yul\":8831:8842   */\n      swap1\n      pop\n        /* \"#utility.yul\":8862:8865   */\n      dup2\n        /* \"#utility.yul\":8859:8860   */\n      0x00\n        /* \"#utility.yul\":8852:8866   */\n      mstore\n        /* \"#utility.yul\":8896:8900   */\n      0x20\n        /* \"#utility.yul\":8893:8894   */\n      0x00\n        /* \"#utility.yul\":8883:8901   */\n      keccak256\n        /* \"#utility.yul\":8875:8901   */\n      swap1\n      pop\n        /* \"#utility.yul\":8767:8908   */\n      swap2\n      swap1\n      pop\n      jump\t// out\n        /* \"#utility.yul\":8914:9007   */\n    tag_86:\n        /* \"#utility.yul\":8951:8957   */\n      0x00\n        /* \"#utility.yul\":8998:9000   */\n      0x20\n        /* \"#utility.yul\":8993:8995   */\n      0x1f\n        /* \"#utility.yul\":8986:8991   */\n      dup4\n        /* \"#utility.yul\":8982:8996   */\n      add\n        /* \"#utility.yul\":8978:9001   */\n      div\n        /* \"#utility.yul\":8968:9001   */\n      swap1\n      pop\n        /* \"#utility.yul\":8914:9007   */\n      swap2\n      swap1\n      pop\n      jump\t// out\n        /* \"#utility.yul\":9013:9120   */\n    tag_87:\n        /* \"#utility.yul\":9057:9065   */\n      0x00\n        /* \"#utility.yul\":9107:9112   */\n      dup3\n        /* \"#utility.yul\":9101:9105   */\n      dup3\n        /* \"#utility.yul\":9097:9113   */\n      shl\n        /* \"#utility.yul\":9076:9113   */\n      swap1\n      pop\n        /* \"#utility.yul\":9013:9120   */\n      swap3\n      swap2\n      pop\n      pop\n      jump\t// out\n        /* \"#utility.yul\":9126:9519   */\n    tag_88:\n        /* \"#utility.yul\":9195:9201   */\n      0x00\n        /* \"#utility.yul\":9245:9246   */\n      0x08\n        /* \"#utility.yul\":9233:9243   */\n      dup4\n        /* \"#utility.yul\":9229:9247   */\n      mul\n        /* \"#utility.yul\":9268:9365   */\n      tag_200\n        /* \"#utility.yul\":9298:9364   */\n      0xffffffffffffffffffffffffffffffffffffffffffffffffffffffffffffffff\n        /* \"#utility.yul\":9287:9296   */\n      dup3\n        /* \"#utility.yul\":9268:9365   */\n      tag_87\n      jump\t// in\n    tag_200:\n        /* \"#utility.yul\":9386:9425   */\n      tag_201\n        /* \"#utility.yul\":9416:9424   */\n      dup7\n        /* \"#utility.yul\":9405:9414   */\n      dup4\n        /* \"#utility.yul\":9386:9425   */\n      tag_87\n      jump\t// in\n    tag_201:\n        /* \"#utility.yul\":9374:9425   */\n      swap6\n      pop\n        /* \"#utility.yul\":9458:9462   */\n      dup1\n        /* \"#utility.yul\":9454:9463   */\n      not\n        /* \"#utility.yul\":9447:9452   */\n      dup5\n        /* \"#utility.yul\":9443:9464   */\n      and\n        /* \"#utility.yul\":9434:9464   */\n      swap4\n      pop\n        /* \"#utility.yul\":9507:9511   */\n      dup1\n        /* \"#utility.yul\":9497:9505   */\n      dup7\n        /* \"#utility.yul\":9493:9512   */\n      and\n        /* \"#utility.yul\":9486:9491   */\n      dup5\n        /* \"#utility.yul\":9483:9513   */\n      or\n        /* \"#utility.yul\":9473:9513   */\n      swap3\n      pop\n        /* \"#utility.yul\":9202:9519   */\n      pop\n      pop\n        /* \"#utility.yul\":9126:9519   */\n      swap4\n      swap3\n      pop\n      pop\n      pop\n      jump\t// out\n        /* \"#utility.yul\":9525:9585   */\n    tag_89:\n        /* \"#utility.yul\":9553:9556   */\n      0x00\n        /* \"#utility.yul\":9574:9579   */\n      dup2\n        /* \"#utility.yul\":9567:9579   */\n      swap1\n      pop\n        /* \"#utility.yul\":9525:9585   */\n      swap2\n      swap1\n      pop\n      jump\t// out\n        /* \"#utility.yul\":9591:9733   */\n    tag_90:\n        /* \"#utility.yul\":9641:9650   */\n      0x00\n        /* \"#utility.yul\":9674:9727   */\n      tag_204\n        /* \"#utility.yul\":9692:9726   */\n      tag_205\n        /* \"#utility.yul\":9701:9725   */\n      tag_206\n        /* \"#utility.yul\":9719:9724   */\n      dup5\n        /* \"#utility.yul\":9701:9725   */\n      tag_71\n      jump\t// in\n    tag_206:\n        /* \"#utility.yul\":9692:9726   */\n      tag_89\n      jump\t// in\n    tag_205:\n        /* \"#utility.yul\":9674:9727   */\n      tag_71\n      jump\t// in\n    tag_204:\n        /* \"#utility.yul\":9661:9727   */\n      swap1\n      pop\n        /* \"#utility.yul\":9591:9733   */\n      swap2\n      swap1\n      pop\n      jump\t// out\n        /* \"#utility.yul\":9739:9814   */\n    tag_91:\n        /* \"#utility.yul\":9782:9785   */\n      0x00\n        /* \"#utility.yul\":9803:9808   */\n      dup2\n        /* \"#utility.yul\":9796:9808   */\n      swap1\n      pop\n        /* \"#utility.yul\":9739:9814   */\n      swap2\n      swap1\n      pop\n      jump\t// out\n        /* \"#utility.yul\":9820:10089   */\n    tag_92:\n        /* \"#utility.yul\":9930:9969   */\n      tag_209\n        /* \"#utility.yul\":9961:9968   */\n      dup4\n        /* \"#utility.yul\":9930:9969   */\n      tag_90\n      jump\t// in\n    tag_209:\n        /* \"#utility.yul\":9991:10082   */\n      tag_210\n        /* \"#utility.yul\":10040:10081   */\n      tag_211\n        /* \"#utility.yul\":10064:10080   */\n      dup3\n        /* \"#utility.yul\":10040:10081   */\n      tag_91\n      jump\t// in\n    tag_211:\n        /* \"#utility.yul\":10032:10038   */\n      dup5\n        /* \"#utility.yul\":10025:10029   */\n      dup5\n        /* \"#utility.yul\":10019:10030   */\n      sload\n        /* \"#utility.yul\":9991:10082   */\n      tag_88\n      jump\t// in\n    tag_210:\n        /* \"#utility.yul\":9985:9989   */\n      dup3\n        /* \"#utility.yul\":9978:10083   */\n      sstore\n        /* \"#utility.yul\":9896:10089   */\n      pop\n        /* \"#utility.yul\":9820:10089   */\n      pop\n      pop\n      pop\n      jump\t// out\n        /* \"#utility.yul\":10095:10168   */\n    tag_93:\n        /* \"#utility.yul\":10140:10143   */\n      0x00\n        /* \"#utility.yul\":10095:10168   */\n      swap1\n      jump\t// out\n        /* \"#utility.yul\":10174:10363   */\n    tag_94:\n        /* \"#utility.yul\":10251:10283   */\n      tag_214\n      tag_93\n      jump\t// in\n    tag_214:\n        /* \"#utility.yul\":10292:10357   */\n      tag_215\n        /* \"#utility.yul\":10350:10356   */\n      dup2\n        /* \"#utility.yul\":10342:10348   */\n      dup5\n        /* \"#utility.yul\":10336:10340   */\n      dup5\n        /* \"#utility.yul\":10292:10357   */\n      tag_92\n      jump\t// in\n    tag_215:\n        /* \"#utility.yul\":10227:10363   */\n      pop\n        /* \"#utility.yul\":10174:10363   */\n      pop\n      pop\n      jump\t// out\n        /* \"#utility.yul\":10369:10555   */\n    tag_95:\n        /* \"#utility.yul\":10429:10549   */\n    tag_217:\n        /* \"#utility.yul\":10446:10449   */\n      dup2\n        /* \"#utility.yul\":10439:10444   */\n      dup2\n        /* \"#utility.yul\":10436:10450   */\n      lt\n        /* \"#utility.yul\":10429:10549   */\n      iszero\n      tag_219\n      jumpi\n        /* \"#utility.yul\":10500:10539   */\n      tag_220\n        /* \"#utility.yul\":10537:10538   */\n      0x00\n        /* \"#utility.yul\":10530:10535   */\n      dup3\n        /* \"#utility.yul\":10500:10539   */\n      tag_94\n      jump\t// in\n    tag_220:\n        /* \"#utility.yul\":10473:10474   */\n      0x01\n        /* \"#utility.yul\":10466:10471   */\n      dup2\n        /* \"#utility.yul\":10462:10475   */\n      add\n        /* \"#utility.yul\":10453:10475   */\n      swap1\n      pop\n        /* \"#utility.yul\":10429:10549   */\n      jump(tag_217)\n    tag_219:\n        /* \"#utility.yul\":10369:10555   */\n      pop\n      pop\n      jump\t// out\n        /* \"#utility.yul\":10561:11104   */\n    tag_96:\n        /* \"#utility.yul\":10662:10664   */\n      0x1f\n        /* \"#utility.yul\":10657:10660   */\n      dup3\n        /* \"#utility.yul\":10654:10665   */\n      gt\n        /* \"#utility.yul\":10651:11097   */\n      iszero\n      tag_222\n      jumpi\n        /* \"#utility.yul\":10696:10734   */\n      tag_223\n        /* \"#utility.yul\":10728:10733   */\n      dup2\n        /* \"#utility.yul\":10696:10734   */\n      tag_85\n      jump\t// in\n    tag_223:\n        /* \"#utility.yul\":10780:10809   */\n      tag_224\n        /* \"#utility.yul\":10798:10808   */\n      dup5\n        /* \"#utility.yul\":10780:10809   */\n      tag_86\n      jump\t// in\n    tag_224:\n        /* \"#utility.yul\":10770:10778   */\n      dup2\n        /* \"#utility.yul\":10766:10810   */\n      add\n        /* \"#utility.yul\":10963:10965   */\n      0x20\n        /* \"#utility.yul\":10951:10961   */\n      dup6\n        /* \"#utility.yul\":10948:10966   */\n      lt\n        /* \"#utility.yul\":10945:10994   */\n      iszero\n      tag_225\n      jumpi\n        /* \"#utility.yul\":10984:10992   */\n      dup2\n        /* \"#utility.yul\":10969:10992   */\n      swap1\n      pop\n        /* \"#utility.yul\":10945:10994   */\n    tag_225:\n        /* \"#utility.yul\":11007:11087   */\n      tag_226\n        /* \"#utility.yul\":11063:11085   */\n      tag_227\n        /* \"#utility.yul\":11081:11084   */\n      dup6\n        /* \"#utility.yul\":11063:11085   */\n      tag_86\n      jump\t// in\n    tag_227:\n        /* \"#utility.yul\":11053:11061   */\n      dup4\n        /* \"#utility.yul\":11049:11086   */\n      add\n        /* \"#utility.yul\":11036:11047   */\n      dup3\n        /* \"#utility.yul\":11007:11087   */\n      tag_95\n      jump\t// in\n    tag_226:\n        /* \"#utility.yul\":10666:11097   */\n      pop\n      pop\n        /* \"#utility.yul\":10651:11097   */\n    tag_222:\n        /* \"#utility.yul\":10561:11104   */\n      pop\n      pop\n      pop\n      jump\t// out\n        /* \"#utility.yul\":11110:11227   */\n    tag_97:\n        /* \"#utility.yul\":11164:11172   */\n      0x00\n        /* \"#utility.yul\":11214:11219   */\n      dup3\n        /* \"#utility.yul\":11208:11212   */\n      dup3\n        /* \"#utility.yul\":11204:11220   */\n      shr\n        /* \"#utility.yul\":11183:11220   */\n      swap1\n      pop\n        /* \"#utility.yul\":11110:11227   */\n      swap3\n      swap2\n      pop\n      pop\n      jump\t// out\n        /* \"#utility.yul\":11233:11402   */\n    tag_98:\n        /* \"#utility.yul\":11277:11283   */\n      0x00\n        /* \"#utility.yul\":11310:11361   */\n      tag_230\n        /* \"#utility.yul\":11358:11359   */\n      0x00\n        /* \"#utility.yul\":11354:11360   */\n      not\n        /* \"#utility.yul\":11346:11351   */\n      dup5\n        /* \"#utility.yul\":11343:11344   */\n      0x08\n        /* \"#utility.yul\":11339:11352   */\n      mul\n        /* \"#utility.yul\":11310:11361   */\n      tag_97\n      jump\t// in\n    tag_230:\n        /* \"#utility.yul\":11306:11362   */\n      not\n        /* \"#utility.yul\":11391:11395   */\n      dup1\n        /* \"#utility.yul\":11385:11389   */\n      dup4\n        /* \"#utility.yul\":11381:11396   */\n      and\n        /* \"#utility.yul\":11371:11396   */\n      swap2\n      pop\n        /* \"#utility.yul\":11284:11402   */\n      pop\n        /* \"#utility.yul\":11233:11402   */\n      swap3\n      swap2\n      pop\n      pop\n      jump\t// out\n        /* \"#utility.yul\":11407:11702   */\n    tag_99:\n        /* \"#utility.yul\":11483:11487   */\n      0x00\n        /* \"#utility.yul\":11629:11658   */\n      tag_232\n        /* \"#utility.yul\":11654:11657   */\n      dup4\n        /* \"#utility.yul\":11648:11652   */\n      dup4\n        /* \"#utility.yul\":11629:11658   */\n      tag_98\n      jump\t// in\n    tag_232:\n        /* \"#utility.yul\":11621:11658   */\n      swap2\n      pop\n        /* \"#utility.yul\":11691:11694   */\n      dup3\n        /* \"#utility.yul\":11688:11689   */\n      0x02\n        /* \"#utility.yul\":11684:11695   */\n      mul\n        /* \"#utility.yul\":11678:11682   */\n      dup3\n        /* \"#utility.yul\":11675:11696   */\n      or\n        /* \"#utility.yul\":11667:11696   */\n      swap1\n      pop\n        /* \"#utility.yul\":11407:11702   */\n      swap3\n      swap2\n      pop\n      pop\n      jump\t// out\n        /* \"#utility.yul\":11707:13102   */\n    tag_35:\n        /* \"#utility.yul\":11824:11861   */\n      tag_234\n        /* \"#utility.yul\":11857:11860   */\n      dup3\n        /* \"#utility.yul\":11824:11861   */\n      tag_75\n      jump\t// in\n    tag_234:\n        /* \"#utility.yul\":11926:11944   */\n      0xffffffffffffffff\n        /* \"#utility.yul\":11918:11924   */\n      dup2\n        /* \"#utility.yul\":11915:11945   */\n      gt\n        /* \"#utility.yul\":11912:11968   */\n      iszero\n      tag_235\n      jumpi\n        /* \"#utility.yul\":11948:11966   */\n      tag_236\n      tag_62\n      jump\t// in\n    tag_236:\n        /* \"#utility.yul\":11912:11968   */\n    tag_235:\n        /* \"#utility.yul\":11992:12030   */\n      tag_237\n        /* \"#utility.yul\":12024:12028   */\n      dup3\n        /* \"#utility.yul\":12018:12029   */\n      sload\n        /* \"#utility.yul\":11992:12030   */\n      tag_40\n      jump\t// in\n    tag_237:\n        /* \"#utility.yul\":12077:12144   */\n      tag_238\n        /* \"#utility.yul\":12137:12143   */\n      dup3\n        /* \"#utility.yul\":12129:12135   */\n      dup3\n        /* \"#utility.yul\":12123:12127   */\n      dup6\n        /* \"#utility.yul\":12077:12144   */\n      tag_96\n      jump\t// in\n    tag_238:\n        /* \"#utility.yul\":12171:12172   */\n      0x00\n        /* \"#utility.yul\":12195:12199   */\n      0x20\n        /* \"#utility.yul\":12182:12199   */\n      swap1\n      pop\n        /* \"#utility.yul\":12227:12229   */\n      0x1f\n        /* \"#utility.yul\":12219:12225   */\n      dup4\n        /* \"#utility.yul\":12216:12230   */\n      gt\n        /* \"#utility.yul\":12244:12245   */\n      0x01\n        /* \"#utility.yul\":12239:12857   */\n      dup2\n      eq\n      tag_240\n      jumpi\n        /* \"#utility.yul\":12901:12902   */\n      0x00\n        /* \"#utility.yul\":12918:12924   */\n      dup5\n        /* \"#utility.yul\":12915:12992   */\n      iszero\n      tag_241\n      jumpi\n        /* \"#utility.yul\":12967:12976   */\n      dup3\n        /* \"#utility.yul\":12962:12965   */\n      dup8\n        /* \"#utility.yul\":12958:12977   */\n      add\n        /* \"#utility.yul\":12952:12978   */\n      mload\n        /* \"#utility.yul\":12943:12978   */\n      swap1\n      pop\n        /* \"#utility.yul\":12915:12992   */\n    tag_241:\n        /* \"#utility.yul\":13018:13085   */\n      tag_242\n        /* \"#utility.yul\":13078:13084   */\n      dup6\n        /* \"#utility.yul\":13071:13076   */\n      dup3\n        /* \"#utility.yul\":13018:13085   */\n      tag_99\n      jump\t// in\n    tag_242:\n        /* \"#utility.yul\":13012:13016   */\n      dup7\n        /* \"#utility.yul\":13005:13086   */\n      sstore\n        /* \"#utility.yul\":12874:13096   */\n      pop\n        /* \"#utility.yul\":12209:13096   */\n      jump(tag_239)\n        /* \"#utility.yul\":12239:12857   */\n    tag_240:\n        /* \"#utility.yul\":12291:12295   */\n      0x1f\n        /* \"#utility.yul\":12287:12296   */\n      not\n        /* \"#utility.yul\":12279:12285   */\n      dup5\n        /* \"#utility.yul\":12275:12297   */\n      and\n        /* \"#utility.yul\":12325:12362   */\n      tag_243\n        /* \"#utility.yul\":12357:12361   */\n      dup7\n        /* \"#utility.yul\":12325:12362   */\n      tag_85\n      jump\t// in\n    tag_243:\n        /* \"#utility.yul\":12384:12385   */\n      0x00\n        /* \"#utility.yul\":12398:12606   */\n    tag_244:\n        /* \"#utility.yul\":12412:12419   */\n      dup3\n        /* \"#utility.yul\":12409:12410   */\n      dup2\n        /* \"#utility.yul\":12406:12420   */\n      lt\n        /* \"#utility.yul\":12398:12606   */\n      iszero\n      tag_246\n      jumpi\n        /* \"#utility.yul\":12491:12500   */\n      dup5\n        /* \"#utility.yul\":12486:12489   */\n      dup10\n        /* \"#utility.yul\":12482:12501   */\n      add\n        /* \"#utility.yul\":12476:12502   */\n      mload\n        /* \"#utility.yul\":12468:12474   */\n      dup3\n        /* \"#utility.yul\":12461:12503   */\n      sstore\n        /* \"#utility.yul\":12542:12543   */\n      0x01\n        /* \"#utility.yul\":12534:12540   */\n      dup3\n        /* \"#utility.yul\":12530:12544   */\n      add\n        /* \"#utility.yul\":12520:12544   */\n      swap2\n      pop\n        /* \"#utility.yul\":12589:12591   */\n      0x20\n        /* \"#utility.yul\":12578:12587   */\n      dup6\n        /* \"#utility.yul\":12574:12592   */\n      add\n        /* \"#utility.yul\":12561:12592   */\n      swap5\n      pop\n        /* \"#utility.yul\":12435:12439   */\n      0x20\n        /* \"#utility.yul\":12432:12433   */\n      dup2\n        /* \"#utility.yul\":12428:12440   */\n      add\n        /* \"#utility.yul\":12423:12440   */\n      swap1\n      pop\n        /* \"#utility.yul\":12398:12606   */\n      jump(tag_244)\n    tag_246:\n        /* \"#utility.yul\":12634:12640   */\n      dup7\n        /* \"#utility.yul\":12625:12632   */\n      dup4\n        /* \"#utility.yul\":12622:12641   */\n      lt\n        /* \"#utility.yul\":12619:12798   */\n      iszero\n      tag_247\n      jumpi\n        /* \"#utility.yul\":12692:12701   */\n      dup5\n        /* \"#utility.yul\":12687:12690   */\n      dup10\n        /* \"#utility.yul\":12683:12702   */\n      add\n        /* \"#utility.yul\":12677:12703   */\n      mload\n        /* \"#utility.yul\":12735:12783   */\n      tag_248\n        /* \"#utility.yul\":12777:12781   */\n      0x1f\n        /* \"#utility.yul\":12769:12775   */\n      dup10\n        /* \"#utility.yul\":12765:12782   */\n      and\n        /* \"#utility.yul\":12754:12763   */\n      dup3\n        /* \"#utility.yul\":12735:12783   */\n      tag_98\n      jump\t// in\n    tag_248:\n        /* \"#utility.yul\":12727:12733   */\n      dup4\n        /* \"#utility.yul\":12720:12784   */\n      sstore\n        /* \"#utility.yul\":12642:12798   */\n      pop\n        /* \"#utility.yul\":12619:12798   */\n    tag_247:\n        /* \"#utility.yul\":12844:12845   */\n      0x01\n        /* \"#utility.yul\":12840:12841   */\n      0x02\n        /* \"#utility.yul\":12832:12838   */\n      dup9\n        /* \"#utility.yul\":12828:12842   */\n      mul\n        /* \"#utility.yul\":12824:12846   */\n      add\n        /* \"#utility.yul\":12818:12822   */\n      dup9\n        /* \"#utility.yul\":12811:12847   */\n      sstore\n        /* \"#utility.yul\":12246:12857   */\n      pop\n      pop\n      pop\n        /* \"#utility.yul\":12209:13096   */\n    tag_239:\n      pop\n        /* \"#utility.yul\":11799:13102   */\n      pop\n      pop\n      pop\n        /* \"#utility.yul\":11707:13102   */\n      pop\n      pop\n      jump\t// out\n        /* \"#utility.yul\":13108:13277   */\n    tag_100:\n        /* \"#utility.yul\":13248:13269   */\n      0x4974656d20646f6573206e6f7420657869737400000000000000000000000000\n        /* \"#utility.yul\":13244:13245   */\n      0x00\n        /* \"#utility.yul\":13236:13242   */\n      dup3\n        /* \"#utility.yul\":13232:13246   */\n      add\n        /* \"#utility.yul\":13225:13270   */\n      mstore\n        /* \"#utility.yul\":13108:13277   */\n      pop\n      jump\t// out\n        /* \"#utility.yul\":13283:13649   */\n    tag_101:\n        /* \"#utility.yul\":13425:13428   */\n      0x00\n        /* \"#utility.yul\":13446:13513   */\n      tag_251\n        /* \"#utility.yul\":13510:13512   */\n      0x13\n        /* \"#utility.yul\":13505:13508   */\n      dup4\n        /* \"#utility.yul\":13446:13513   */\n      tag_81\n      jump\t// in\n    tag_251:\n        /* \"#utility.yul\":13439:13513   */\n      swap2\n      pop\n        /* \"#utility.yul\":13522:13615   */\n      tag_252\n        /* \"#utility.yul\":13611:13614   */\n      dup3\n        /* \"#utility.yul\":13522:13615   */\n      tag_100\n      jump\t// in\n    tag_252:\n        /* \"#utility.yul\":13640:13642   */\n      0x20\n        /* \"#utility.yul\":13635:13638   */\n      dup3\n        /* \"#utility.yul\":13631:13643   */\n      add\n        /* \"#utility.yul\":13624:13643   */\n      swap1\n      pop\n        /* \"#utility.yul\":13283:13649   */\n      swap2\n      swap1\n      pop\n      jump\t// out\n        /* \"#utility.yul\":13655:14074   */\n    tag_49:\n        /* \"#utility.yul\":13821:13825   */\n      0x00\n        /* \"#utility.yul\":13859:13861   */\n      0x20\n        /* \"#utility.yul\":13848:13857   */\n      dup3\n        /* \"#utility.yul\":13844:13862   */\n      add\n        /* \"#utility.yul\":13836:13862   */\n      swap1\n      pop\n        /* \"#utility.yul\":13908:13917   */\n      dup2\n        /* \"#utility.yul\":13902:13906   */\n      dup2\n        /* \"#utility.yul\":13898:13918   */\n      sub\n        /* \"#utility.yul\":13894:13895   */\n      0x00\n        /* \"#utility.yul\":13883:13892   */\n      dup4\n        /* \"#utility.yul\":13879:13896   */\n      add\n        /* \"#utility.yul\":13872:13919   */\n      mstore\n        /* \"#utility.yul\":13936:14067   */\n      tag_254\n        /* \"#utility.yul\":14062:14066   */\n      dup2\n        /* \"#utility.yul\":13936:14067   */\n      tag_101\n      jump\t// in\n    tag_254:\n        /* \"#utility.yul\":13928:14067   */\n      swap1\n      pop\n        /* \"#utility.yul\":13655:14074   */\n      swap2\n      swap1\n      pop\n      jump\t// out\n\n    auxdata: 0xa2646970667358221220b3600cb745ae04b032b71c91f2e5194c92421e30baaf3593811e80076410d0ed64736f6c634300081a0033\n}\n",
				"bytecode": {
					"linkReferences": {},
					"object": "60806040525f805f6101000a81548167ffffffffffffffff021916908367ffffffffffffffff1602179055503480156035575f80fd5b50610ba3806100435f395ff3fe608060405234801561000f575f80fd5b5060043610610055575f3560e01c80633d54eebb146100595780636bfb0d0114610075578063838b96bd14610093578063b065b2a9146100c3578063bfb231d2146100df575b5f80fd5b610073600480360381019061006e9190610558565b610110565b005b61007d6101e0565b60405161008a91906105c1565b60405180910390f35b6100ad60048036038101906100a8919061060d565b6101f7565b6040516100ba91906106e1565b60405180910390f35b6100dd60048036038101906100d89190610701565b6102bb565b005b6100f960048036038101906100f4919061060d565b61034c565b6040516101079291906107b2565b60405180910390f35b5f8081819054906101000a900467ffffffffffffffff16809291906101349061080d565b91906101000a81548167ffffffffffffffff021916908367ffffffffffffffff1602179055505060405180604001604052805f8054906101000a900467ffffffffffffffff1667ffffffffffffffff1681526020018281525060015f805f9054906101000a900467ffffffffffffffff1667ffffffffffffffff1681526020019081526020015f205f820151815f015560208201518160010190816101d99190610a36565b5090505050565b5f8054906101000a900467ffffffffffffffff1681565b6101ff6103f2565b60015f8381526020019081526020015f206040518060400160405290815f820154815260200160018201805461023490610869565b80601f016020809104026020016040519081016040528092919081815260200182805461026090610869565b80156102ab5780601f10610282576101008083540402835291602001916102ab565b820191905f5260205f20905b81548152906001019060200180831161028e57829003601f168201915b5050505050815250509050919050565b5f8054906101000a900467ffffffffffffffff1667ffffffffffffffff1682111580156102e757505f82115b610326576040517f08c379a000000000000000000000000000000000000000000000000000000000815260040161031d90610b4f565b60405180910390fd5b8060015f8481526020019081526020015f2060010190816103479190610a36565b505050565b6001602052805f5260405f205f91509050805f01549080600101805461037190610869565b80601f016020809104026020016040519081016040528092919081815260200182805461039d90610869565b80156103e85780601f106103bf576101008083540402835291602001916103e8565b820191905f5260205f20905b8154815290600101906020018083116103cb57829003601f168201915b5050505050905082565b60405180604001604052805f8152602001606081525090565b5f604051905090565b5f80fd5b5f80fd5b5f80fd5b5f80fd5b5f601f19601f8301169050919050565b7f4e487b71000000000000000000000000000000000000000000000000000000005f52604160045260245ffd5b61046a82610424565b810181811067ffffffffffffffff8211171561048957610488610434565b5b80604052505050565b5f61049b61040b565b90506104a78282610461565b919050565b5f67ffffffffffffffff8211156104c6576104c5610434565b5b6104cf82610424565b9050602081019050919050565b828183375f83830152505050565b5f6104fc6104f7846104ac565b610492565b90508281526020810184848401111561051857610517610420565b5b6105238482856104dc565b509392505050565b5f82601f83011261053f5761053e61041c565b5b813561054f8482602086016104ea565b91505092915050565b5f6020828403121561056d5761056c610414565b5b5f82013567ffffffffffffffff81111561058a57610589610418565b5b6105968482850161052b565b91505092915050565b5f67ffffffffffffffff82169050919050565b6105bb8161059f565b82525050565b5f6020820190506105d45f8301846105b2565b92915050565b5f819050919050565b6105ec816105da565b81146105f6575f80fd5b50565b5f81359050610607816105e3565b92915050565b5f6020828403121561062257610621610414565b5b5f61062f848285016105f9565b91505092915050565b610641816105da565b82525050565b5f81519050919050565b5f82825260208201905092915050565b8281835e5f83830152505050565b5f61067982610647565b6106838185610651565b9350610693818560208601610661565b61069c81610424565b840191505092915050565b5f604083015f8301516106bc5f860182610638565b50602083015184820360208601526106d4828261066f565b9150508091505092915050565b5f6020820190508181035f8301526106f981846106a7565b905092915050565b5f806040838503121561071757610716610414565b5b5f610724858286016105f9565b925050602083013567ffffffffffffffff81111561074557610744610418565b5b6107518582860161052b565b9150509250929050565b610764816105da565b82525050565b5f82825260208201905092915050565b5f61078482610647565b61078e818561076a565b935061079e818560208601610661565b6107a781610424565b840191505092915050565b5f6040820190506107c55f83018561075b565b81810360208301526107d7818461077a565b90509392505050565b7f4e487b71000000000000000000000000000000000000000000000000000000005f52601160045260245ffd5b5f6108178261059f565b915067ffffffffffffffff8203610831576108306107e0565b5b600182019050919050565b7f4e487b71000000000000000000000000000000000000000000000000000000005f52602260045260245ffd5b5f600282049050600182168061088057607f821691505b6020821081036108935761089261083c565b5b50919050565b5f819050815f5260205f209050919050565b5f6020601f8301049050919050565b5f82821b905092915050565b5f600883026108f57fffffffffffffffffffffffffffffffffffffffffffffffffffffffffffffffff826108ba565b6108ff86836108ba565b95508019841693508086168417925050509392505050565b5f819050919050565b5f61093a610935610930846105da565b610917565b6105da565b9050919050565b5f819050919050565b61095383610920565b61096761095f82610941565b8484546108c6565b825550505050565b5f90565b61097b61096f565b61098681848461094a565b505050565b5b818110156109a95761099e5f82610973565b60018101905061098c565b5050565b601f8211156109ee576109bf81610899565b6109c8846108ab565b810160208510156109d7578190505b6109eb6109e3856108ab565b83018261098b565b50505b505050565b5f82821c905092915050565b5f610a0e5f19846008026109f3565b1980831691505092915050565b5f610a2683836109ff565b9150826002028217905092915050565b610a3f82610647565b67ffffffffffffffff811115610a5857610a57610434565b5b610a628254610869565b610a6d8282856109ad565b5f60209050601f831160018114610a9e575f8415610a8c578287015190505b610a968582610a1b565b865550610afd565b601f198416610aac86610899565b5f5b82811015610ad357848901518255600182019150602085019450602081019050610aae565b86831015610af05784890151610aec601f8916826109ff565b8355505b6001600288020188555050505b505050505050565b7f4974656d20646f6573206e6f74206578697374000000000000000000000000005f82015250565b5f610b3960138361076a565b9150610b4482610b05565b602082019050919050565b5f6020820190508181035f830152610b6681610b2d565b905091905056fea2646970667358221220b3600cb745ae04b032b71c91f2e5194c92421e30baaf3593811e80076410d0ed64736f6c634300081a0033",
					"opcodes": "PUSH1 0x80 PUSH1 0x40 MSTORE PUSH0 DUP1 PUSH0 PUSH2 0x100 EXP DUP2 SLOAD DUP2 PUSH8 0xFFFFFFFFFFFFFFFF MUL NOT AND SWAP1 DUP4 PUSH8 0xFFFFFFFFFFFFFFFF AND MUL OR SWAP1 SSTORE POP CALLVALUE DUP1 ISZERO PUSH1 0x35 JUMPI PUSH0 DUP1 REVERT JUMPDEST POP PUSH2 0xBA3 DUP1 PUSH2 0x43 PUSH0 CODECOPY PUSH0 RETURN INVALID PUSH1 0x80 PUSH1 0x40 MSTORE CALLVALUE DUP1 ISZERO PUSH2 0xF JUMPI PUSH0 DUP1 REVERT JUMPDEST POP PUSH1 0x4 CALLDATASIZE LT PUSH2 0x55 JUMPI PUSH0 CALLDATALOAD PUSH1 0xE0 SHR DUP1 PUSH4 0x3D54EEBB EQ PUSH2 0x59 JUMPI DUP1 PUSH4 0x6BFB0D01 EQ PUSH2 0x75 JUMPI DUP1 PUSH4 0x838B96BD EQ PUSH2 0x93 JUMPI DUP1 PUSH4 0xB065B2A9 EQ PUSH2 0xC3 JUMPI DUP1 PUSH4 0xBFB231D2 EQ PUSH2 0xDF JUMPI JUMPDEST PUSH0 DUP1 REVERT JUMPDEST PUSH2 0x73 PUSH1 0x4 DUP1 CALLDATASIZE SUB DUP2 ADD SWAP1 PUSH2 0x6E SWAP2 SWAP1 PUSH2 0x558 JUMP JUMPDEST PUSH2 0x110 JUMP JUMPDEST STOP JUMPDEST PUSH2 0x7D PUSH2 0x1E0 JUMP JUMPDEST PUSH1 0x40 MLOAD PUSH2 0x8A SWAP2 SWAP1 PUSH2 0x5C1 JUMP JUMPDEST PUSH1 0x40 MLOAD DUP1 SWAP2 SUB SWAP1 RETURN JUMPDEST PUSH2 0xAD PUSH1 0x4 DUP1 CALLDATASIZE SUB DUP2 ADD SWAP1 PUSH2 0xA8 SWAP2 SWAP1 PUSH2 0x60D JUMP JUMPDEST PUSH2 0x1F7 JUMP JUMPDEST PUSH1 0x40 MLOAD PUSH2 0xBA SWAP2 SWAP1 PUSH2 0x6E1 JUMP JUMPDEST PUSH1 0x40 MLOAD DUP1 SWAP2 SUB SWAP1 RETURN JUMPDEST PUSH2 0xDD PUSH1 0x4 DUP1 CALLDATASIZE SUB DUP2 ADD SWAP1 PUSH2 0xD8 SWAP2 SWAP1 PUSH2 0x701 JUMP JUMPDEST PUSH2 0x2BB JUMP JUMPDEST STOP JUMPDEST PUSH2 0xF9 PUSH1 0x4 DUP1 CALLDATASIZE SUB DUP2 ADD SWAP1 PUSH2 0xF4 SWAP2 SWAP1 PUSH2 0x60D JUMP JUMPDEST PUSH2 0x34C JUMP JUMPDEST PUSH1 0x40 MLOAD PUSH2 0x107 SWAP3 SWAP2 SWAP1 PUSH2 0x7B2 JUMP JUMPDEST PUSH1 0x40 MLOAD DUP1 SWAP2 SUB SWAP1 RETURN JUMPDEST PUSH0 DUP1 DUP2 DUP2 SWAP1 SLOAD SWAP1 PUSH2 0x100 EXP SWAP1 DIV PUSH8 0xFFFFFFFFFFFFFFFF AND DUP1 SWAP3 SWAP2 SWAP1 PUSH2 0x134 SWAP1 PUSH2 0x80D JUMP JUMPDEST SWAP2 SWAP1 PUSH2 0x100 EXP DUP2 SLOAD DUP2 PUSH8 0xFFFFFFFFFFFFFFFF MUL NOT AND SWAP1 DUP4 PUSH8 0xFFFFFFFFFFFFFFFF AND MUL OR SWAP1 SSTORE POP POP PUSH1 0x40 MLOAD DUP1 PUSH1 0x40 ADD PUSH1 0x40 MSTORE DUP1 PUSH0 DUP1 SLOAD SWAP1 PUSH2 0x100 EXP SWAP1 DIV PUSH8 0xFFFFFFFFFFFFFFFF AND PUSH8 0xFFFFFFFFFFFFFFFF AND DUP2 MSTORE PUSH1 0x20 ADD DUP3 DUP2 MSTORE POP PUSH1 0x1 PUSH0 DUP1 PUSH0 SWAP1 SLOAD SWAP1 PUSH2 0x100 EXP SWAP1 DIV PUSH8 0xFFFFFFFFFFFFFFFF AND PUSH8 0xFFFFFFFFFFFFFFFF AND DUP2 MSTORE PUSH1 0x20 ADD SWAP1 DUP2 MSTORE PUSH1 0x20 ADD PUSH0 KECCAK256 PUSH0 DUP3 ADD MLOAD DUP2 PUSH0 ADD SSTORE PUSH1 0x20 DUP3 ADD MLOAD DUP2 PUSH1 0x1 ADD SWAP1 DUP2 PUSH2 0x1D9 SWAP2 SWAP1 PUSH2 0xA36 JUMP JUMPDEST POP SWAP1 POP POP POP JUMP JUMPDEST PUSH0 DUP1 SLOAD SWAP1 PUSH2 0x100 EXP SWAP1 DIV PUSH8 0xFFFFFFFFFFFFFFFF AND DUP2 JUMP JUMPDEST PUSH2 0x1FF PUSH2 0x3F2 JUMP JUMPDEST PUSH1 0x1 PUSH0 DUP4 DUP2 MSTORE PUSH1 0x20 ADD SWAP1 DUP2 MSTORE PUSH1 0x20 ADD PUSH0 KECCAK256 PUSH1 0x40 MLOAD DUP1 PUSH1 0x40 ADD PUSH1 0x40 MSTORE SWAP1 DUP2 PUSH0 DUP3 ADD SLOAD DUP2 MSTORE PUSH1 0x20 ADD PUSH1 0x1 DUP3 ADD DUP1 SLOAD PUSH2 0x234 SWAP1 PUSH2 0x869 JUMP JUMPDEST DUP1 PUSH1 0x1F ADD PUSH1 0x20 DUP1 SWAP2 DIV MUL PUSH1 0x20 ADD PUSH1 0x40 MLOAD SWAP1 DUP2 ADD PUSH1 0x40 MSTORE DUP1 SWAP3 SWAP2 SWAP1 DUP2 DUP2 MSTORE PUSH1 0x20 ADD DUP3 DUP1 SLOAD PUSH2 0x260 SWAP1 PUSH2 0x869 JUMP JUMPDEST DUP1 ISZERO PUSH2 0x2AB JUMPI DUP1 PUSH1 0x1F LT PUSH2 0x282 JUMPI PUSH2 0x100 DUP1 DUP4 SLOAD DIV MUL DUP4 MSTORE SWAP2 PUSH1 0x20 ADD SWAP2 PUSH2 0x2AB JUMP JUMPDEST DUP3 ADD SWAP2 SWAP1 PUSH0 MSTORE PUSH1 0x20 PUSH0 KECCAK256 SWAP1 JUMPDEST DUP2 SLOAD DUP2 MSTORE SWAP1 PUSH1 0x1 ADD SWAP1 PUSH1 0x20 ADD DUP1 DUP4 GT PUSH2 0x28E JUMPI DUP3 SWAP1 SUB PUSH1 0x1F AND DUP3 ADD SWAP2 JUMPDEST POP POP POP POP POP DUP2 MSTORE POP POP SWAP1 POP SWAP2 SWAP1 POP JUMP JUMPDEST PUSH0 DUP1 SLOAD SWAP1 PUSH2 0x100 EXP SWAP1 DIV PUSH8 0xFFFFFFFFFFFFFFFF AND PUSH8 0xFFFFFFFFFFFFFFFF AND DUP3 GT ISZERO DUP1 ISZERO PUSH2 0x2E7 JUMPI POP PUSH0 DUP3 GT JUMPDEST PUSH2 0x326 JUMPI PUSH1 0x40 MLOAD PUSH32 0x8C379A000000000000000000000000000000000000000000000000000000000 DUP2 MSTORE PUSH1 0x4 ADD PUSH2 0x31D SWAP1 PUSH2 0xB4F JUMP JUMPDEST PUSH1 0x40 MLOAD DUP1 SWAP2 SUB SWAP1 REVERT JUMPDEST DUP1 PUSH1 0x1 PUSH0 DUP5 DUP2 MSTORE PUSH1 0x20 ADD SWAP1 DUP2 MSTORE PUSH1 0x20 ADD PUSH0 KECCAK256 PUSH1 0x1 ADD SWAP1 DUP2 PUSH2 0x347 SWAP2 SWAP1 PUSH2 0xA36 JUMP JUMPDEST POP POP POP JUMP JUMPDEST PUSH1 0x1 PUSH1 0x20 MSTORE DUP1 PUSH0 MSTORE PUSH1 0x40 PUSH0 KECCAK256 PUSH0 SWAP2 POP SWAP1 POP DUP1 PUSH0 ADD SLOAD SWAP1 DUP1 PUSH1 0x1 ADD DUP1 SLOAD PUSH2 0x371 SWAP1 PUSH2 0x869 JUMP JUMPDEST DUP1 PUSH1 0x1F ADD PUSH1 0x20 DUP1 SWAP2 DIV MUL PUSH1 0x20 ADD PUSH1 0x40 MLOAD SWAP1 DUP2 ADD PUSH1 0x40 MSTORE DUP1 SWAP3 SWAP2 SWAP1 DUP2 DUP2 MSTORE PUSH1 0x20 ADD DUP3 DUP1 SLOAD PUSH2 0x39D SWAP1 PUSH2 0x869 JUMP JUMPDEST DUP1 ISZERO PUSH2 0x3E8 JUMPI DUP1 PUSH1 0x1F LT PUSH2 0x3BF JUMPI PUSH2 0x100 DUP1 DUP4 SLOAD DIV MUL DUP4 MSTORE SWAP2 PUSH1 0x20 ADD SWAP2 PUSH2 0x3E8 JUMP JUMPDEST DUP3 ADD SWAP2 SWAP1 PUSH0 MSTORE PUSH1 0x20 PUSH0 KECCAK256 SWAP1 JUMPDEST DUP2 SLOAD DUP2 MSTORE SWAP1 PUSH1 0x1 ADD SWAP1 PUSH1 0x20 ADD DUP1 DUP4 GT PUSH2 0x3CB JUMPI DUP3 SWAP1 SUB PUSH1 0x1F AND DUP3 ADD SWAP2 JUMPDEST POP POP POP POP POP SWAP1 POP DUP3 JUMP JUMPDEST PUSH1 0x40 MLOAD DUP1 PUSH1 0x40 ADD PUSH1 0x40 MSTORE DUP1 PUSH0 DUP2 MSTORE PUSH1 0x20 ADD PUSH1 0x60 DUP2 MSTORE POP SWAP1 JUMP JUMPDEST PUSH0 PUSH1 0x40 MLOAD SWAP1 POP SWAP1 JUMP JUMPDEST PUSH0 DUP1 REVERT JUMPDEST PUSH0 DUP1 REVERT JUMPDEST PUSH0 DUP1 REVERT JUMPDEST PUSH0 DUP1 REVERT JUMPDEST PUSH0 PUSH1 0x1F NOT PUSH1 0x1F DUP4 ADD AND SWAP1 POP SWAP2 SWAP1 POP JUMP JUMPDEST PUSH32 0x4E487B7100000000000000000000000000000000000000000000000000000000 PUSH0 MSTORE PUSH1 0x41 PUSH1 0x4 MSTORE PUSH1 0x24 PUSH0 REVERT JUMPDEST PUSH2 0x46A DUP3 PUSH2 0x424 JUMP JUMPDEST DUP2 ADD DUP2 DUP2 LT PUSH8 0xFFFFFFFFFFFFFFFF DUP3 GT OR ISZERO PUSH2 0x489 JUMPI PUSH2 0x488 PUSH2 0x434 JUMP JUMPDEST JUMPDEST DUP1 PUSH1 0x40 MSTORE POP POP POP JUMP JUMPDEST PUSH0 PUSH2 0x49B PUSH2 0x40B JUMP JUMPDEST SWAP1 POP PUSH2 0x4A7 DUP3 DUP3 PUSH2 0x461 JUMP JUMPDEST SWAP2 SWAP1 POP JUMP JUMPDEST PUSH0 PUSH8 0xFFFFFFFFFFFFFFFF DUP3 GT ISZERO PUSH2 0x4C6 JUMPI PUSH2 0x4C5 PUSH2 0x434 JUMP JUMPDEST JUMPDEST PUSH2 0x4CF DUP3 PUSH2 0x424 JUMP JUMPDEST SWAP1 POP PUSH1 0x20 DUP2 ADD SWAP1 POP SWAP2 SWAP1 POP JUMP JUMPDEST DUP3 DUP2 DUP4 CALLDATACOPY PUSH0 DUP4 DUP4 ADD MSTORE POP POP POP JUMP JUMPDEST PUSH0 PUSH2 0x4FC PUSH2 0x4F7 DUP5 PUSH2 0x4AC JUMP JUMPDEST PUSH2 0x492 JUMP JUMPDEST SWAP1 POP DUP3 DUP2 MSTORE PUSH1 0x20 DUP2 ADD DUP5 DUP5 DUP5 ADD GT ISZERO PUSH2 0x518 JUMPI PUSH2 0x517 PUSH2 0x420 JUMP JUMPDEST JUMPDEST PUSH2 0x523 DUP5 DUP3 DUP6 PUSH2 0x4DC JUMP JUMPDEST POP SWAP4 SWAP3 POP POP POP JUMP JUMPDEST PUSH0 DUP3 PUSH1 0x1F DUP4 ADD SLT PUSH2 0x53F JUMPI PUSH2 0x53E PUSH2 0x41C JUMP JUMPDEST JUMPDEST DUP2 CALLDATALOAD PUSH2 0x54F DUP5 DUP3 PUSH1 0x20 DUP7 ADD PUSH2 0x4EA JUMP JUMPDEST SWAP2 POP POP SWAP3 SWAP2 POP POP JUMP JUMPDEST PUSH0 PUSH1 0x20 DUP3 DUP5 SUB SLT ISZERO PUSH2 0x56D JUMPI PUSH2 0x56C PUSH2 0x414 JUMP JUMPDEST JUMPDEST PUSH0 DUP3 ADD CALLDATALOAD PUSH8 0xFFFFFFFFFFFFFFFF DUP2 GT ISZERO PUSH2 0x58A JUMPI PUSH2 0x589 PUSH2 0x418 JUMP JUMPDEST JUMPDEST PUSH2 0x596 DUP5 DUP3 DUP6 ADD PUSH2 0x52B JUMP JUMPDEST SWAP2 POP POP SWAP3 SWAP2 POP POP JUMP JUMPDEST PUSH0 PUSH8 0xFFFFFFFFFFFFFFFF DUP3 AND SWAP1 POP SWAP2 SWAP1 POP JUMP JUMPDEST PUSH2 0x5BB DUP2 PUSH2 0x59F JUMP JUMPDEST DUP3 MSTORE POP POP JUMP JUMPDEST PUSH0 PUSH1 0x20 DUP3 ADD SWAP1 POP PUSH2 0x5D4 PUSH0 DUP4 ADD DUP5 PUSH2 0x5B2 JUMP JUMPDEST SWAP3 SWAP2 POP POP JUMP JUMPDEST PUSH0 DUP2 SWAP1 POP SWAP2 SWAP1 POP JUMP JUMPDEST PUSH2 0x5EC DUP2 PUSH2 0x5DA JUMP JUMPDEST DUP2 EQ PUSH2 0x5F6 JUMPI PUSH0 DUP1 REVERT JUMPDEST POP JUMP JUMPDEST PUSH0 DUP2 CALLDATALOAD SWAP1 POP PUSH2 0x607 DUP2 PUSH2 0x5E3 JUMP JUMPDEST SWAP3 SWAP2 POP POP JUMP JUMPDEST PUSH0 PUSH1 0x20 DUP3 DUP5 SUB SLT ISZERO PUSH2 0x622 JUMPI PUSH2 0x621 PUSH2 0x414 JUMP JUMPDEST JUMPDEST PUSH0 PUSH2 0x62F DUP5 DUP3 DUP6 ADD PUSH2 0x5F9 JUMP JUMPDEST SWAP2 POP POP SWAP3 SWAP2 POP POP JUMP JUMPDEST PUSH2 0x641 DUP2 PUSH2 0x5DA JUMP JUMPDEST DUP3 MSTORE POP POP JUMP JUMPDEST PUSH0 DUP2 MLOAD SWAP1 POP SWAP2 SWAP1 POP JUMP JUMPDEST PUSH0 DUP3 DUP3 MSTORE PUSH1 0x20 DUP3 ADD SWAP1 POP SWAP3 SWAP2 POP POP JUMP JUMPDEST DUP3 DUP2 DUP4 MCOPY PUSH0 DUP4 DUP4 ADD MSTORE POP POP POP JUMP JUMPDEST PUSH0 PUSH2 0x679 DUP3 PUSH2 0x647 JUMP JUMPDEST PUSH2 0x683 DUP2 DUP6 PUSH2 0x651 JUMP JUMPDEST SWAP4 POP PUSH2 0x693 DUP2 DUP6 PUSH1 0x20 DUP7 ADD PUSH2 0x661 JUMP JUMPDEST PUSH2 0x69C DUP2 PUSH2 0x424 JUMP JUMPDEST DUP5 ADD SWAP2 POP POP SWAP3 SWAP2 POP POP JUMP JUMPDEST PUSH0 PUSH1 0x40 DUP4 ADD PUSH0 DUP4 ADD MLOAD PUSH2 0x6BC PUSH0 DUP7 ADD DUP3 PUSH2 0x638 JUMP JUMPDEST POP PUSH1 0x20 DUP4 ADD MLOAD DUP5 DUP3 SUB PUSH1 0x20 DUP7 ADD MSTORE PUSH2 0x6D4 DUP3 DUP3 PUSH2 0x66F JUMP JUMPDEST SWAP2 POP POP DUP1 SWAP2 POP POP SWAP3 SWAP2 POP POP JUMP JUMPDEST PUSH0 PUSH1 0x20 DUP3 ADD SWAP1 POP DUP2 DUP2 SUB PUSH0 DUP4 ADD MSTORE PUSH2 0x6F9 DUP2 DUP5 PUSH2 0x6A7 JUMP JUMPDEST SWAP1 POP SWAP3 SWAP2 POP POP JUMP JUMPDEST PUSH0 DUP1 PUSH1 0x40 DUP4 DUP6 SUB SLT ISZERO PUSH2 0x717 JUMPI PUSH2 0x716 PUSH2 0x414 JUMP JUMPDEST JUMPDEST PUSH0 PUSH2 0x724 DUP6 DUP3 DUP7 ADD PUSH2 0x5F9 JUMP JUMPDEST SWAP3 POP POP PUSH1 0x20 DUP4 ADD CALLDATALOAD PUSH8 0xFFFFFFFFFFFFFFFF DUP2 GT ISZERO PUSH2 0x745 JUMPI PUSH2 0x744 PUSH2 0x418 JUMP JUMPDEST JUMPDEST PUSH2 0x751 DUP6 DUP3 DUP7 ADD PUSH2 0x52B JUMP JUMPDEST SWAP2 POP POP SWAP3 POP SWAP3 SWAP1 POP JUMP JUMPDEST PUSH2 0x764 DUP2 PUSH2 0x5DA JUMP JUMPDEST DUP3 MSTORE POP POP JUMP JUMPDEST PUSH0 DUP3 DUP3 MSTORE PUSH1 0x20 DUP3 ADD SWAP1 POP SWAP3 SWAP2 POP POP JUMP JUMPDEST PUSH0 PUSH2 0x784 DUP3 PUSH2 0x647 JUMP JUMPDEST PUSH2 0x78E DUP2 DUP6 PUSH2 0x76A JUMP JUMPDEST SWAP4 POP PUSH2 0x79E DUP2 DUP6 PUSH1 0x20 DUP7 ADD PUSH2 0x661 JUMP JUMPDEST PUSH2 0x7A7 DUP2 PUSH2 0x424 JUMP JUMPDEST DUP5 ADD SWAP2 POP POP SWAP3 SWAP2 POP POP JUMP JUMPDEST PUSH0 PUSH1 0x40 DUP3 ADD SWAP1 POP PUSH2 0x7C5 PUSH0 DUP4 ADD DUP6 PUSH2 0x75B JUMP JUMPDEST DUP2 DUP2 SUB PUSH1 0x20 DUP4 ADD MSTORE PUSH2 0x7D7 DUP2 DUP5 PUSH2 0x77A JUMP JUMPDEST SWAP1 POP SWAP4 SWAP3 POP POP POP JUMP JUMPDEST PUSH32 0x4E487B7100000000000000000000000000000000000000000000000000000000 PUSH0 MSTORE PUSH1 0x11 PUSH1 0x4 MSTORE PUSH1 0x24 PUSH0 REVERT JUMPDEST PUSH0 PUSH2 0x817 DUP3 PUSH2 0x59F JUMP JUMPDEST SWAP2 POP PUSH8 0xFFFFFFFFFFFFFFFF DUP3 SUB PUSH2 0x831 JUMPI PUSH2 0x830 PUSH2 0x7E0 JUMP JUMPDEST JUMPDEST PUSH1 0x1 DUP3 ADD SWAP1 POP SWAP2 SWAP1 POP JUMP JUMPDEST PUSH32 0x4E487B7100000000000000000000000000000000000000000000000000000000 PUSH0 MSTORE PUSH1 0x22 PUSH1 0x4 MSTORE PUSH1 0x24 PUSH0 REVERT JUMPDEST PUSH0 PUSH1 0x2 DUP3 DIV SWAP1 POP PUSH1 0x1 DUP3 AND DUP1 PUSH2 0x880 JUMPI PUSH1 0x7F DUP3 AND SWAP2 POP JUMPDEST PUSH1 0x20 DUP3 LT DUP2 SUB PUSH2 0x893 JUMPI PUSH2 0x892 PUSH2 0x83C JUMP JUMPDEST JUMPDEST POP SWAP2 SWAP1 POP JUMP JUMPDEST PUSH0 DUP2 SWAP1 POP DUP2 PUSH0 MSTORE PUSH1 0x20 PUSH0 KECCAK256 SWAP1 POP SWAP2 SWAP1 POP JUMP JUMPDEST PUSH0 PUSH1 0x20 PUSH1 0x1F DUP4 ADD DIV SWAP1 POP SWAP2 SWAP1 POP JUMP JUMPDEST PUSH0 DUP3 DUP3 SHL SWAP1 POP SWAP3 SWAP2 POP POP JUMP JUMPDEST PUSH0 PUSH1 0x8 DUP4 MUL PUSH2 0x8F5 PUSH32 0xFFFFFFFFFFFFFFFFFFFFFFFFFFFFFFFFFFFFFFFFFFFFFFFFFFFFFFFFFFFFFFFF DUP3 PUSH2 0x8BA JUMP JUMPDEST PUSH2 0x8FF DUP7 DUP4 PUSH2 0x8BA JUMP JUMPDEST SWAP6 POP DUP1 NOT DUP5 AND SWAP4 POP DUP1 DUP7 AND DUP5 OR SWAP3 POP POP POP SWAP4 SWAP3 POP POP POP JUMP JUMPDEST PUSH0 DUP2 SWAP1 POP SWAP2 SWAP1 POP JUMP JUMPDEST PUSH0 PUSH2 0x93A PUSH2 0x935 PUSH2 0x930 DUP5 PUSH2 0x5DA JUMP JUMPDEST PUSH2 0x917 JUMP JUMPDEST PUSH2 0x5DA JUMP JUMPDEST SWAP1 POP SWAP2 SWAP1 POP JUMP JUMPDEST PUSH0 DUP2 SWAP1 POP SWAP2 SWAP1 POP JUMP JUMPDEST PUSH2 0x953 DUP4 PUSH2 0x920 JUMP JUMPDEST PUSH2 0x967 PUSH2 0x95F DUP3 PUSH2 0x941 JUMP JUMPDEST DUP5 DUP5 SLOAD PUSH2 0x8C6 JUMP JUMPDEST DUP3 SSTORE POP POP POP POP JUMP JUMPDEST PUSH0 SWAP1 JUMP JUMPDEST PUSH2 0x97B PUSH2 0x96F JUMP JUMPDEST PUSH2 0x986 DUP2 DUP5 DUP5 PUSH2 0x94A JUMP JUMPDEST POP POP POP JUMP JUMPDEST JUMPDEST DUP2 DUP2 LT ISZERO PUSH2 0x9A9 JUMPI PUSH2 0x99E PUSH0 DUP3 PUSH2 0x973 JUMP JUMPDEST PUSH1 0x1 DUP2 ADD SWAP1 POP PUSH2 0x98C JUMP JUMPDEST POP POP JUMP JUMPDEST PUSH1 0x1F DUP3 GT ISZERO PUSH2 0x9EE JUMPI PUSH2 0x9BF DUP2 PUSH2 0x899 JUMP JUMPDEST PUSH2 0x9C8 DUP5 PUSH2 0x8AB JUMP JUMPDEST DUP2 ADD PUSH1 0x20 DUP6 LT ISZERO PUSH2 0x9D7 JUMPI DUP2 SWAP1 POP JUMPDEST PUSH2 0x9EB PUSH2 0x9E3 DUP6 PUSH2 0x8AB JUMP JUMPDEST DUP4 ADD DUP3 PUSH2 0x98B JUMP JUMPDEST POP POP JUMPDEST POP POP POP JUMP JUMPDEST PUSH0 DUP3 DUP3 SHR SWAP1 POP SWAP3 SWAP2 POP POP JUMP JUMPDEST PUSH0 PUSH2 0xA0E PUSH0 NOT DUP5 PUSH1 0x8 MUL PUSH2 0x9F3 JUMP JUMPDEST NOT DUP1 DUP4 AND SWAP2 POP POP SWAP3 SWAP2 POP POP JUMP JUMPDEST PUSH0 PUSH2 0xA26 DUP4 DUP4 PUSH2 0x9FF JUMP JUMPDEST SWAP2 POP DUP3 PUSH1 0x2 MUL DUP3 OR SWAP1 POP SWAP3 SWAP2 POP POP JUMP JUMPDEST PUSH2 0xA3F DUP3 PUSH2 0x647 JUMP JUMPDEST PUSH8 0xFFFFFFFFFFFFFFFF DUP2 GT ISZERO PUSH2 0xA58 JUMPI PUSH2 0xA57 PUSH2 0x434 JUMP JUMPDEST JUMPDEST PUSH2 0xA62 DUP3 SLOAD PUSH2 0x869 JUMP JUMPDEST PUSH2 0xA6D DUP3 DUP3 DUP6 PUSH2 0x9AD JUMP JUMPDEST PUSH0 PUSH1 0x20 SWAP1 POP PUSH1 0x1F DUP4 GT PUSH1 0x1 DUP2 EQ PUSH2 0xA9E JUMPI PUSH0 DUP5 ISZERO PUSH2 0xA8C JUMPI DUP3 DUP8 ADD MLOAD SWAP1 POP JUMPDEST PUSH2 0xA96 DUP6 DUP3 PUSH2 0xA1B JUMP JUMPDEST DUP7 SSTORE POP PUSH2 0xAFD JUMP JUMPDEST PUSH1 0x1F NOT DUP5 AND PUSH2 0xAAC DUP7 PUSH2 0x899 JUMP JUMPDEST PUSH0 JUMPDEST DUP3 DUP2 LT ISZERO PUSH2 0xAD3 JUMPI DUP5 DUP10 ADD MLOAD DUP3 SSTORE PUSH1 0x1 DUP3 ADD SWAP2 POP PUSH1 0x20 DUP6 ADD SWAP5 POP PUSH1 0x20 DUP2 ADD SWAP1 POP PUSH2 0xAAE JUMP JUMPDEST DUP7 DUP4 LT ISZERO PUSH2 0xAF0 JUMPI DUP5 DUP10 ADD MLOAD PUSH2 0xAEC PUSH1 0x1F DUP10 AND DUP3 PUSH2 0x9FF JUMP JUMPDEST DUP4 SSTORE POP JUMPDEST PUSH1 0x1 PUSH1 0x2 DUP9 MUL ADD DUP9 SSTORE POP POP POP JUMPDEST POP POP POP POP POP POP JUMP JUMPDEST PUSH32 0x4974656D20646F6573206E6F7420657869737400000000000000000000000000 PUSH0 DUP3 ADD MSTORE POP JUMP JUMPDEST PUSH0 PUSH2 0xB39 PUSH1 0x13 DUP4 PUSH2 0x76A JUMP JUMPDEST SWAP2 POP PUSH2 0xB44 DUP3 PUSH2 0xB05 JUMP JUMPDEST PUSH1 0x20 DUP3 ADD SWAP1 POP SWAP2 SWAP1 POP JUMP JUMPDEST PUSH0 PUSH1 0x20 DUP3 ADD SWAP1 POP DUP2 DUP2 SUB PUSH0 DUP4 ADD MSTORE PUSH2 0xB66 DUP2 PUSH2 0xB2D JUMP JUMPDEST SWAP1 POP SWAP2 SWAP1 POP JUMP INVALID LOG2 PUSH5 0x6970667358 0x22 SLT KECCAK256 0xB3 PUSH1 0xC 0xB7 GASLIMIT 0xAE DIV 0xB0 ORIGIN 0xB7 SHR SWAP2 CALLCODE 0xE5 NOT 0x4C SWAP3 TIMESTAMP 0x1E ADDRESS 0xBA 0xAF CALLDATALOAD SWAP4 DUP2 0x1E DUP1 SMOD PUSH5 0x10D0ED6473 PUSH16 0x6C634300081A00330000000000000000 "
				},
				"gasEstimates": {
					"creation": {
						"codeDepositCost": "595800",
						"executionCost": "24895",
						"totalCost": "620695"
					},
					"external": {
						"createItem(string)": "infinite",
						"itemCount()": "2463",
						"items(uint256)": "infinite",
						"readItem(uint256)": "infinite",
						"updateItem(uint256,string)": "infinite"
					}
				},
				"methodIdentifiers": {
					"createItem(string)": "3d54eebb",
					"itemCount()": "6bfb0d01",
					"items(uint256)": "bfb231d2",
					"readItem(uint256)": "838b96bd",
					"updateItem(uint256,string)": "b065b2a9"
				}
			},
			"storageLayout": {
				"storage": [
					{
						"astId": 4,
						"contract": "CRUD/crud.sol:CRUD",
						"label": "itemCount",
						"offset": 0,
						"slot": "0",
						"type": "t_uint64"
					},
					{
						"astId": 14,
						"contract": "CRUD/crud.sol:CRUD",
						"label": "items",
						"offset": 0,
						"slot": "1",
						"type": "t_mapping(t_uint256,t_struct(Item)9_storage)"
					}
				],
				"types": {
					"t_mapping(t_uint256,t_struct(Item)9_storage)": {
						"encoding": "mapping",
						"key": "t_uint256",
						"label": "mapping(uint256 => struct CRUD.Item)",
						"numberOfBytes": "32",
						"value": "t_struct(Item)9_storage"
					},
					"t_string_storage": {
						"encoding": "bytes",
						"label": "string",
						"numberOfBytes": "32"
					},
					"t_struct(Item)9_storage": {
						"encoding": "inplace",
						"label": "struct CRUD.Item",
						"members": [
							{
								"astId": 6,
								"contract": "CRUD/crud.sol:CRUD",
								"label": "id",
								"offset": 0,
								"slot": "0",
								"type": "t_uint256"
							},
							{
								"astId": 8,
								"contract": "CRUD/crud.sol:CRUD",
								"label": "description",
								"offset": 0,
								"slot": "1",
								"type": "t_string_storage"
							}
						],
						"numberOfBytes": "64"
					},
					"t_uint256": {
						"encoding": "inplace",
						"label": "uint256",
						"numberOfBytes": "32"
					},
					"t_uint64": {
						"encoding": "inplace",
						"label": "uint64",
						"numberOfBytes": "8"
					}
				}
			},
			"userdoc": {
				"kind": "user",
				"methods": {},
				"version": 1
			}
		}
	}
}