{
	"CRUD/crud.sol": {
		"CRUD": {
			"abi": [
				{
					"inputs": [
						{
							"internalType": "string",
							"name": "_description",
							"type": "string"
						}
					],
					"name": "createItem",
					"outputs": [],
					"stateMutability": "nonpayable",
					"type": "function"
				},
				{
					"inputs": [],
					"name": "itemCount",
					"outputs": [
						{
							"internalType": "uint64",
							"name": "",
							"type": "uint64"
						}
					],
					"stateMutability": "view",
					"type": "function"
				},
				{
					"inputs": [
						{
							"internalType": "uint256",
							"name": "",
							"type": "uint256"
						}
					],
					"name": "items",
					"outputs": [
						{
							"internalType": "uint256",
							"name": "id",
							"type": "uint256"
						},
						{
							"internalType": "string",
							"name": "description",
							"type": "string"
						}
					],
					"stateMutability": "view",
					"type": "function"
				},
				{
					"inputs": [
						{
							"internalType": "uint256",
							"name": "_id",
							"type": "uint256"
						}
					],
					"name": "readItem",
					"outputs": [
						{
							"components": [
								{
									"internalType": "uint256",
									"name": "id",
									"type": "uint256"
								},
								{
									"internalType": "string",
									"name": "description",
									"type": "string"
								}
							],
							"internalType": "struct CRUD.Item",
							"name": "",
							"type": "tuple"
						}
					],
					"stateMutability": "view",
					"type": "function"
				}
			],
			"devdoc": {
				"kind": "dev",
				"methods": {},
				"version": 1
			},
			"evm": {
				"assembly": "    /* \"CRUD/crud.sol\":60:537  contract CRUD {... */\n  mstore(0x40, 0x80)\n    /* \"CRUD/crud.sol\":107:108  0 */\n  0x00\n    /* \"CRUD/crud.sol\":81:108  uint64 public itemCount = 0 */\n  dup1\n  exp(0x0100, 0x00)\n  dup2\n  sload\n  dup2\n  0xffffffffffffffff\n  mul\n  not\n  and\n  swap1\n  dup4\n  0xffffffffffffffff\n  and\n  mul\n  or\n  swap1\n  sstore\n  pop\n    /* \"CRUD/crud.sol\":60:537  contract CRUD {... */\n  callvalue\n  dup1\n  iszero\n  tag_1\n  jumpi\n  0x00\n  dup1\n  revert\ntag_1:\n  pop\n  dataSize(sub_0)\n  dup1\n  dataOffset(sub_0)\n  0x00\n  codecopy\n  0x00\n  return\nstop\n\nsub_0: assembly {\n        /* \"CRUD/crud.sol\":60:537  contract CRUD {... */\n      mstore(0x40, 0x80)\n      callvalue\n      dup1\n      iszero\n      tag_1\n      jumpi\n      0x00\n      dup1\n      revert\n    tag_1:\n      pop\n      jumpi(tag_2, lt(calldatasize, 0x04))\n      shr(0xe0, calldataload(0x00))\n      dup1\n      0x3d54eebb\n      eq\n      tag_3\n      jumpi\n      dup1\n      0x6bfb0d01\n      eq\n      tag_4\n      jumpi\n      dup1\n      0x838b96bd\n      eq\n      tag_5\n      jumpi\n      dup1\n      0xbfb231d2\n      eq\n      tag_6\n      jumpi\n    tag_2:\n      0x00\n      dup1\n      revert\n        /* \"CRUD/crud.sol\":261:405  function createItem(string memory _description) public {... */\n    tag_3:\n      tag_7\n      0x04\n      dup1\n      calldatasize\n      sub\n      dup2\n      add\n      swap1\n      tag_8\n      swap2\n      swap1\n      tag_9\n      jump\t// in\n    tag_8:\n      tag_10\n      jump\t// in\n    tag_7:\n      stop\n        /* \"CRUD/crud.sol\":81:108  uint64 public itemCount = 0 */\n    tag_4:\n      tag_11\n      tag_12\n      jump\t// in\n    tag_11:\n      mload(0x40)\n      tag_13\n      swap2\n      swap1\n      tag_14\n      jump\t// in\n    tag_13:\n      mload(0x40)\n      dup1\n      swap2\n      sub\n      swap1\n      return\n        /* \"CRUD/crud.sol\":434:532  function readItem(uint _id) public view returns (Item memory) {... */\n    tag_5:\n      tag_15\n      0x04\n      dup1\n      calldatasize\n      sub\n      dup2\n      add\n      swap1\n      tag_16\n      swap2\n      swap1\n      tag_17\n      jump\t// in\n    tag_16:\n      tag_18\n      jump\t// in\n    tag_15:\n      mload(0x40)\n      tag_19\n      swap2\n      swap1\n      tag_20\n      jump\t// in\n    tag_19:\n      mload(0x40)\n      dup1\n      swap2\n      sub\n      swap1\n      return\n        /* \"CRUD/crud.sol\":192:226  mapping(uint => Item) public items */\n    tag_6:\n      tag_21\n      0x04\n      dup1\n      calldatasize\n      sub\n      dup2\n      add\n      swap1\n      tag_22\n      swap2\n      swap1\n      tag_17\n      jump\t// in\n    tag_22:\n      tag_23\n      jump\t// in\n    tag_21:\n      mload(0x40)\n      tag_24\n      swap3\n      swap2\n      swap1\n      tag_25\n      jump\t// in\n    tag_24:\n      mload(0x40)\n      dup1\n      swap2\n      sub\n      swap1\n      return\n        /* \"CRUD/crud.sol\":261:405  function createItem(string memory _description) public {... */\n    tag_10:\n        /* \"CRUD/crud.sol\":327:336  itemCount */\n      0x00\n      dup1\n        /* \"CRUD/crud.sol\":327:338  itemCount++ */\n      dup2\n      dup2\n      swap1\n      sload\n      swap1\n      0x0100\n      exp\n      swap1\n      div\n      0xffffffffffffffff\n      and\n      dup1\n      swap3\n      swap2\n      swap1\n      tag_27\n      swap1\n      tag_28\n      jump\t// in\n    tag_27:\n      swap2\n      swap1\n      0x0100\n      exp\n      dup2\n      sload\n      dup2\n      0xffffffffffffffff\n      mul\n      not\n      and\n      swap1\n      dup4\n      0xffffffffffffffff\n      and\n      mul\n      or\n      swap1\n      sstore\n      pop\n      pop\n        /* \"CRUD/crud.sol\":368:397  Item(itemCount, _description) */\n      mload(0x40)\n      dup1\n      0x40\n      add\n      0x40\n      mstore\n      dup1\n        /* \"CRUD/crud.sol\":373:382  itemCount */\n      0x00\n      dup1\n      sload\n      swap1\n      0x0100\n      exp\n      swap1\n      div\n      0xffffffffffffffff\n      and\n        /* \"CRUD/crud.sol\":368:397  Item(itemCount, _description) */\n      0xffffffffffffffff\n      and\n      dup2\n      mstore\n      0x20\n      add\n        /* \"CRUD/crud.sol\":384:396  _description */\n      dup3\n        /* \"CRUD/crud.sol\":368:397  Item(itemCount, _description) */\n      dup2\n      mstore\n      pop\n        /* \"CRUD/crud.sol\":349:354  items */\n      0x01\n        /* \"CRUD/crud.sol\":349:365  items[itemCount] */\n      0x00\n        /* \"CRUD/crud.sol\":355:364  itemCount */\n      dup1\n      0x00\n      swap1\n      sload\n      swap1\n      0x0100\n      exp\n      swap1\n      div\n      0xffffffffffffffff\n      and\n        /* \"CRUD/crud.sol\":349:365  items[itemCount] */\n      0xffffffffffffffff\n      and\n      dup2\n      mstore\n      0x20\n      add\n      swap1\n      dup2\n      mstore\n      0x20\n      add\n      0x00\n      keccak256\n        /* \"CRUD/crud.sol\":349:397  items[itemCount] = Item(itemCount, _description) */\n      0x00\n      dup3\n      add\n      mload\n      dup2\n      0x00\n      add\n      sstore\n      0x20\n      dup3\n      add\n      mload\n      dup2\n      0x01\n      add\n      swap1\n      dup2\n      tag_29\n      swap2\n      swap1\n      tag_30\n      jump\t// in\n    tag_29:\n      pop\n      swap1\n      pop\n      pop\n        /* \"CRUD/crud.sol\":261:405  function createItem(string memory _description) public {... */\n      pop\n      jump\t// out\n        /* \"CRUD/crud.sol\":81:108  uint64 public itemCount = 0 */\n    tag_12:\n      0x00\n      dup1\n      sload\n      swap1\n      0x0100\n      exp\n      swap1\n      div\n      0xffffffffffffffff\n      and\n      dup2\n      jump\t// out\n        /* \"CRUD/crud.sol\":434:532  function readItem(uint _id) public view returns (Item memory) {... */\n    tag_18:\n        /* \"CRUD/crud.sol\":483:494  Item memory */\n      tag_31\n      tag_32\n      jump\t// in\n    tag_31:\n        /* \"CRUD/crud.sol\":514:519  items */\n      0x01\n        /* \"CRUD/crud.sol\":514:524  items[_id] */\n      0x00\n        /* \"CRUD/crud.sol\":520:523  _id */\n      dup4\n        /* \"CRUD/crud.sol\":514:524  items[_id] */\n      dup2\n      mstore\n      0x20\n      add\n      swap1\n      dup2\n      mstore\n      0x20\n      add\n      0x00\n      keccak256\n        /* \"CRUD/crud.sol\":507:524  return items[_id] */\n      mload(0x40)\n      dup1\n      0x40\n      add\n      0x40\n      mstore\n      swap1\n      dup2\n      0x00\n      dup3\n      add\n      sload\n      dup2\n      mstore\n      0x20\n      add\n      0x01\n      dup3\n      add\n      dup1\n      sload\n      tag_34\n      swap1\n      tag_35\n      jump\t// in\n    tag_34:\n      dup1\n      0x1f\n      add\n      0x20\n      dup1\n      swap2\n      div\n      mul\n      0x20\n      add\n      mload(0x40)\n      swap1\n      dup2\n      add\n      0x40\n      mstore\n      dup1\n      swap3\n      swap2\n      swap1\n      dup2\n      dup2\n      mstore\n      0x20\n      add\n      dup3\n      dup1\n      sload\n      tag_36\n      swap1\n      tag_35\n      jump\t// in\n    tag_36:\n      dup1\n      iszero\n      tag_37\n      jumpi\n      dup1\n      0x1f\n      lt\n      tag_38\n      jumpi\n      0x0100\n      dup1\n      dup4\n      sload\n      div\n      mul\n      dup4\n      mstore\n      swap2\n      0x20\n      add\n      swap2\n      jump(tag_37)\n    tag_38:\n      dup3\n      add\n      swap2\n      swap1\n      0x00\n      mstore\n      keccak256(0x00, 0x20)\n      swap1\n    tag_39:\n      dup2\n      sload\n      dup2\n      mstore\n      swap1\n      0x01\n      add\n      swap1\n      0x20\n      add\n      dup1\n      dup4\n      gt\n      tag_39\n      jumpi\n      dup3\n      swap1\n      sub\n      0x1f\n      and\n      dup3\n      add\n      swap2\n    tag_37:\n      pop\n      pop\n      pop\n      pop\n      pop\n      dup2\n      mstore\n      pop\n      pop\n      swap1\n      pop\n        /* \"CRUD/crud.sol\":434:532  function readItem(uint _id) public view returns (Item memory) {... */\n      swap2\n      swap1\n      pop\n      jump\t// out\n        /* \"CRUD/crud.sol\":192:226  mapping(uint => Item) public items */\n    tag_23:\n      mstore(0x20, 0x01)\n      dup1\n      0x00\n      mstore\n      keccak256(0x00, 0x40)\n      0x00\n      swap2\n      pop\n      swap1\n      pop\n      dup1\n      0x00\n      add\n      sload\n      swap1\n      dup1\n      0x01\n      add\n      dup1\n      sload\n      tag_40\n      swap1\n      tag_35\n      jump\t// in\n    tag_40:\n      dup1\n      0x1f\n      add\n      0x20\n      dup1\n      swap2\n      div\n      mul\n      0x20\n      add\n      mload(0x40)\n      swap1\n      dup2\n      add\n      0x40\n      mstore\n      dup1\n      swap3\n      swap2\n      swap1\n      dup2\n      dup2\n      mstore\n      0x20\n      add\n      dup3\n      dup1\n      sload\n      tag_41\n      swap1\n      tag_35\n      jump\t// in\n    tag_41:\n      dup1\n      iszero\n      tag_42\n      jumpi\n      dup1\n      0x1f\n      lt\n      tag_43\n      jumpi\n      0x0100\n      dup1\n      dup4\n      sload\n      div\n      mul\n      dup4\n      mstore\n      swap2\n      0x20\n      add\n      swap2\n      jump(tag_42)\n    tag_43:\n      dup3\n      add\n      swap2\n      swap1\n      0x00\n      mstore\n      keccak256(0x00, 0x20)\n      swap1\n    tag_44:\n      dup2\n      sload\n      dup2\n      mstore\n      swap1\n      0x01\n      add\n      swap1\n      0x20\n      add\n      dup1\n      dup4\n      gt\n      tag_44\n      jumpi\n      dup3\n      swap1\n      sub\n      0x1f\n      and\n      dup3\n      add\n      swap2\n    tag_42:\n      pop\n      pop\n      pop\n      pop\n      pop\n      swap1\n      pop\n      dup3\n      jump\t// out\n    tag_32:\n      mload(0x40)\n      dup1\n      0x40\n      add\n      0x40\n      mstore\n      dup1\n      0x00\n      dup2\n      mstore\n      0x20\n      add\n      0x60\n      dup2\n      mstore\n      pop\n      swap1\n      jump\t// out\n        /* \"#utility.yul\":7:82   */\n    tag_45:\n        /* \"#utility.yul\":40:46   */\n      0x00\n        /* \"#utility.yul\":73:75   */\n      0x40\n        /* \"#utility.yul\":67:76   */\n      mload\n        /* \"#utility.yul\":57:76   */\n      swap1\n      pop\n        /* \"#utility.yul\":7:82   */\n      swap1\n      jump\t// out\n        /* \"#utility.yul\":88:205   */\n    tag_46:\n        /* \"#utility.yul\":197:198   */\n      0x00\n        /* \"#utility.yul\":194:195   */\n      dup1\n        /* \"#utility.yul\":187:199   */\n      revert\n        /* \"#utility.yul\":211:328   */\n    tag_47:\n        /* \"#utility.yul\":320:321   */\n      0x00\n        /* \"#utility.yul\":317:318   */\n      dup1\n        /* \"#utility.yul\":310:322   */\n      revert\n        /* \"#utility.yul\":334:451   */\n    tag_48:\n        /* \"#utility.yul\":443:444   */\n      0x00\n        /* \"#utility.yul\":440:441   */\n      dup1\n        /* \"#utility.yul\":433:445   */\n      revert\n        /* \"#utility.yul\":457:574   */\n    tag_49:\n        /* \"#utility.yul\":566:567   */\n      0x00\n        /* \"#utility.yul\":563:564   */\n      dup1\n        /* \"#utility.yul\":556:568   */\n      revert\n        /* \"#utility.yul\":580:682   */\n    tag_50:\n        /* \"#utility.yul\":621:627   */\n      0x00\n        /* \"#utility.yul\":672:674   */\n      0x1f\n        /* \"#utility.yul\":668:675   */\n      not\n        /* \"#utility.yul\":663:665   */\n      0x1f\n        /* \"#utility.yul\":656:661   */\n      dup4\n        /* \"#utility.yul\":652:666   */\n      add\n        /* \"#utility.yul\":648:676   */\n      and\n        /* \"#utility.yul\":638:676   */\n      swap1\n      pop\n        /* \"#utility.yul\":580:682   */\n      swap2\n      swap1\n      pop\n      jump\t// out\n        /* \"#utility.yul\":688:868   */\n    tag_51:\n        /* \"#utility.yul\":736:813   */\n      0x4e487b7100000000000000000000000000000000000000000000000000000000\n        /* \"#utility.yul\":733:734   */\n      0x00\n        /* \"#utility.yul\":726:814   */\n      mstore\n        /* \"#utility.yul\":833:837   */\n      0x41\n        /* \"#utility.yul\":830:831   */\n      0x04\n        /* \"#utility.yul\":823:838   */\n      mstore\n        /* \"#utility.yul\":857:861   */\n      0x24\n        /* \"#utility.yul\":854:855   */\n      0x00\n        /* \"#utility.yul\":847:862   */\n      revert\n        /* \"#utility.yul\":874:1155   */\n    tag_52:\n        /* \"#utility.yul\":957:984   */\n      tag_98\n        /* \"#utility.yul\":979:983   */\n      dup3\n        /* \"#utility.yul\":957:984   */\n      tag_50\n      jump\t// in\n    tag_98:\n        /* \"#utility.yul\":949:955   */\n      dup2\n        /* \"#utility.yul\":945:985   */\n      add\n        /* \"#utility.yul\":1087:1093   */\n      dup2\n        /* \"#utility.yul\":1075:1085   */\n      dup2\n        /* \"#utility.yul\":1072:1094   */\n      lt\n        /* \"#utility.yul\":1051:1069   */\n      0xffffffffffffffff\n        /* \"#utility.yul\":1039:1049   */\n      dup3\n        /* \"#utility.yul\":1036:1070   */\n      gt\n        /* \"#utility.yul\":1033:1095   */\n      or\n        /* \"#utility.yul\":1030:1118   */\n      iszero\n      tag_99\n      jumpi\n        /* \"#utility.yul\":1098:1116   */\n      tag_100\n      tag_51\n      jump\t// in\n    tag_100:\n        /* \"#utility.yul\":1030:1118   */\n    tag_99:\n        /* \"#utility.yul\":1138:1148   */\n      dup1\n        /* \"#utility.yul\":1134:1136   */\n      0x40\n        /* \"#utility.yul\":1127:1149   */\n      mstore\n        /* \"#utility.yul\":917:1155   */\n      pop\n        /* \"#utility.yul\":874:1155   */\n      pop\n      pop\n      jump\t// out\n        /* \"#utility.yul\":1161:1290   */\n    tag_53:\n        /* \"#utility.yul\":1195:1201   */\n      0x00\n        /* \"#utility.yul\":1222:1242   */\n      tag_102\n      tag_45\n      jump\t// in\n    tag_102:\n        /* \"#utility.yul\":1212:1242   */\n      swap1\n      pop\n        /* \"#utility.yul\":1251:1284   */\n      tag_103\n        /* \"#utility.yul\":1279:1283   */\n      dup3\n        /* \"#utility.yul\":1271:1277   */\n      dup3\n        /* \"#utility.yul\":1251:1284   */\n      tag_52\n      jump\t// in\n    tag_103:\n        /* \"#utility.yul\":1161:1290   */\n      swap2\n      swap1\n      pop\n      jump\t// out\n        /* \"#utility.yul\":1296:1604   */\n    tag_54:\n        /* \"#utility.yul\":1358:1362   */\n      0x00\n        /* \"#utility.yul\":1448:1466   */\n      0xffffffffffffffff\n        /* \"#utility.yul\":1440:1446   */\n      dup3\n        /* \"#utility.yul\":1437:1467   */\n      gt\n        /* \"#utility.yul\":1434:1490   */\n      iszero\n      tag_105\n      jumpi\n        /* \"#utility.yul\":1470:1488   */\n      tag_106\n      tag_51\n      jump\t// in\n    tag_106:\n        /* \"#utility.yul\":1434:1490   */\n    tag_105:\n        /* \"#utility.yul\":1508:1537   */\n      tag_107\n        /* \"#utility.yul\":1530:1536   */\n      dup3\n        /* \"#utility.yul\":1508:1537   */\n      tag_50\n      jump\t// in\n    tag_107:\n        /* \"#utility.yul\":1500:1537   */\n      swap1\n      pop\n        /* \"#utility.yul\":1592:1596   */\n      0x20\n        /* \"#utility.yul\":1586:1590   */\n      dup2\n        /* \"#utility.yul\":1582:1597   */\n      add\n        /* \"#utility.yul\":1574:1597   */\n      swap1\n      pop\n        /* \"#utility.yul\":1296:1604   */\n      swap2\n      swap1\n      pop\n      jump\t// out\n        /* \"#utility.yul\":1610:1758   */\n    tag_55:\n        /* \"#utility.yul\":1708:1714   */\n      dup3\n        /* \"#utility.yul\":1703:1706   */\n      dup2\n        /* \"#utility.yul\":1698:1701   */\n      dup4\n        /* \"#utility.yul\":1685:1715   */\n      calldatacopy\n        /* \"#utility.yul\":1749:1750   */\n      0x00\n        /* \"#utility.yul\":1740:1746   */\n      dup4\n        /* \"#utility.yul\":1735:1738   */\n      dup4\n        /* \"#utility.yul\":1731:1747   */\n      add\n        /* \"#utility.yul\":1724:1751   */\n      mstore\n        /* \"#utility.yul\":1610:1758   */\n      pop\n      pop\n      pop\n      jump\t// out\n        /* \"#utility.yul\":1764:2189   */\n    tag_56:\n        /* \"#utility.yul\":1842:1847   */\n      0x00\n        /* \"#utility.yul\":1867:1933   */\n      tag_110\n        /* \"#utility.yul\":1883:1932   */\n      tag_111\n        /* \"#utility.yul\":1925:1931   */\n      dup5\n        /* \"#utility.yul\":1883:1932   */\n      tag_54\n      jump\t// in\n    tag_111:\n        /* \"#utility.yul\":1867:1933   */\n      tag_53\n      jump\t// in\n    tag_110:\n        /* \"#utility.yul\":1858:1933   */\n      swap1\n      pop\n        /* \"#utility.yul\":1956:1962   */\n      dup3\n        /* \"#utility.yul\":1949:1954   */\n      dup2\n        /* \"#utility.yul\":1942:1963   */\n      mstore\n        /* \"#utility.yul\":1994:1998   */\n      0x20\n        /* \"#utility.yul\":1987:1992   */\n      dup2\n        /* \"#utility.yul\":1983:1999   */\n      add\n        /* \"#utility.yul\":2032:2035   */\n      dup5\n        /* \"#utility.yul\":2023:2029   */\n      dup5\n        /* \"#utility.yul\":2018:2021   */\n      dup5\n        /* \"#utility.yul\":2014:2030   */\n      add\n        /* \"#utility.yul\":2011:2036   */\n      gt\n        /* \"#utility.yul\":2008:2120   */\n      iszero\n      tag_112\n      jumpi\n        /* \"#utility.yul\":2039:2118   */\n      tag_113\n      tag_49\n      jump\t// in\n    tag_113:\n        /* \"#utility.yul\":2008:2120   */\n    tag_112:\n        /* \"#utility.yul\":2129:2183   */\n      tag_114\n        /* \"#utility.yul\":2176:2182   */\n      dup5\n        /* \"#utility.yul\":2171:2174   */\n      dup3\n        /* \"#utility.yul\":2166:2169   */\n      dup6\n        /* \"#utility.yul\":2129:2183   */\n      tag_55\n      jump\t// in\n    tag_114:\n        /* \"#utility.yul\":1848:2189   */\n      pop\n        /* \"#utility.yul\":1764:2189   */\n      swap4\n      swap3\n      pop\n      pop\n      pop\n      jump\t// out\n        /* \"#utility.yul\":2209:2549   */\n    tag_57:\n        /* \"#utility.yul\":2265:2270   */\n      0x00\n        /* \"#utility.yul\":2314:2317   */\n      dup3\n        /* \"#utility.yul\":2307:2311   */\n      0x1f\n        /* \"#utility.yul\":2299:2305   */\n      dup4\n        /* \"#utility.yul\":2295:2312   */\n      add\n        /* \"#utility.yul\":2291:2318   */\n      slt\n        /* \"#utility.yul\":2281:2403   */\n      tag_116\n      jumpi\n        /* \"#utility.yul\":2322:2401   */\n      tag_117\n      tag_48\n      jump\t// in\n    tag_117:\n        /* \"#utility.yul\":2281:2403   */\n    tag_116:\n        /* \"#utility.yul\":2439:2445   */\n      dup2\n        /* \"#utility.yul\":2426:2446   */\n      calldataload\n        /* \"#utility.yul\":2464:2543   */\n      tag_118\n        /* \"#utility.yul\":2539:2542   */\n      dup5\n        /* \"#utility.yul\":2531:2537   */\n      dup3\n        /* \"#utility.yul\":2524:2528   */\n      0x20\n        /* \"#utility.yul\":2516:2522   */\n      dup7\n        /* \"#utility.yul\":2512:2529   */\n      add\n        /* \"#utility.yul\":2464:2543   */\n      tag_56\n      jump\t// in\n    tag_118:\n        /* \"#utility.yul\":2455:2543   */\n      swap2\n      pop\n        /* \"#utility.yul\":2271:2549   */\n      pop\n        /* \"#utility.yul\":2209:2549   */\n      swap3\n      swap2\n      pop\n      pop\n      jump\t// out\n        /* \"#utility.yul\":2555:3064   */\n    tag_9:\n        /* \"#utility.yul\":2624:2630   */\n      0x00\n        /* \"#utility.yul\":2673:2675   */\n      0x20\n        /* \"#utility.yul\":2661:2670   */\n      dup3\n        /* \"#utility.yul\":2652:2659   */\n      dup5\n        /* \"#utility.yul\":2648:2671   */\n      sub\n        /* \"#utility.yul\":2644:2676   */\n      slt\n        /* \"#utility.yul\":2641:2760   */\n      iszero\n      tag_120\n      jumpi\n        /* \"#utility.yul\":2679:2758   */\n      tag_121\n      tag_46\n      jump\t// in\n    tag_121:\n        /* \"#utility.yul\":2641:2760   */\n    tag_120:\n        /* \"#utility.yul\":2827:2828   */\n      0x00\n        /* \"#utility.yul\":2816:2825   */\n      dup3\n        /* \"#utility.yul\":2812:2829   */\n      add\n        /* \"#utility.yul\":2799:2830   */\n      calldataload\n        /* \"#utility.yul\":2857:2875   */\n      0xffffffffffffffff\n        /* \"#utility.yul\":2849:2855   */\n      dup2\n        /* \"#utility.yul\":2846:2876   */\n      gt\n        /* \"#utility.yul\":2843:2960   */\n      iszero\n      tag_122\n      jumpi\n        /* \"#utility.yul\":2879:2958   */\n      tag_123\n      tag_47\n      jump\t// in\n    tag_123:\n        /* \"#utility.yul\":2843:2960   */\n    tag_122:\n        /* \"#utility.yul\":2984:3047   */\n      tag_124\n        /* \"#utility.yul\":3039:3046   */\n      dup5\n        /* \"#utility.yul\":3030:3036   */\n      dup3\n        /* \"#utility.yul\":3019:3028   */\n      dup6\n        /* \"#utility.yul\":3015:3037   */\n      add\n        /* \"#utility.yul\":2984:3047   */\n      tag_57\n      jump\t// in\n    tag_124:\n        /* \"#utility.yul\":2974:3047   */\n      swap2\n      pop\n        /* \"#utility.yul\":2770:3057   */\n      pop\n        /* \"#utility.yul\":2555:3064   */\n      swap3\n      swap2\n      pop\n      pop\n      jump\t// out\n        /* \"#utility.yul\":3070:3171   */\n    tag_58:\n        /* \"#utility.yul\":3106:3113   */\n      0x00\n        /* \"#utility.yul\":3146:3164   */\n      0xffffffffffffffff\n        /* \"#utility.yul\":3139:3144   */\n      dup3\n        /* \"#utility.yul\":3135:3165   */\n      and\n        /* \"#utility.yul\":3124:3165   */\n      swap1\n      pop\n        /* \"#utility.yul\":3070:3171   */\n      swap2\n      swap1\n      pop\n      jump\t// out\n        /* \"#utility.yul\":3177:3292   */\n    tag_59:\n        /* \"#utility.yul\":3262:3285   */\n      tag_127\n        /* \"#utility.yul\":3279:3284   */\n      dup2\n        /* \"#utility.yul\":3262:3285   */\n      tag_58\n      jump\t// in\n    tag_127:\n        /* \"#utility.yul\":3257:3260   */\n      dup3\n        /* \"#utility.yul\":3250:3286   */\n      mstore\n        /* \"#utility.yul\":3177:3292   */\n      pop\n      pop\n      jump\t// out\n        /* \"#utility.yul\":3298:3516   */\n    tag_14:\n        /* \"#utility.yul\":3389:3393   */\n      0x00\n        /* \"#utility.yul\":3427:3429   */\n      0x20\n        /* \"#utility.yul\":3416:3425   */\n      dup3\n        /* \"#utility.yul\":3412:3430   */\n      add\n        /* \"#utility.yul\":3404:3430   */\n      swap1\n      pop\n        /* \"#utility.yul\":3440:3509   */\n      tag_129\n        /* \"#utility.yul\":3506:3507   */\n      0x00\n        /* \"#utility.yul\":3495:3504   */\n      dup4\n        /* \"#utility.yul\":3491:3508   */\n      add\n        /* \"#utility.yul\":3482:3488   */\n      dup5\n        /* \"#utility.yul\":3440:3509   */\n      tag_59\n      jump\t// in\n    tag_129:\n        /* \"#utility.yul\":3298:3516   */\n      swap3\n      swap2\n      pop\n      pop\n      jump\t// out\n        /* \"#utility.yul\":3522:3599   */\n    tag_60:\n        /* \"#utility.yul\":3559:3566   */\n      0x00\n        /* \"#utility.yul\":3588:3593   */\n      dup2\n        /* \"#utility.yul\":3577:3593   */\n      swap1\n      pop\n        /* \"#utility.yul\":3522:3599   */\n      swap2\n      swap1\n      pop\n      jump\t// out\n        /* \"#utility.yul\":3605:3727   */\n    tag_61:\n        /* \"#utility.yul\":3678:3702   */\n      tag_132\n        /* \"#utility.yul\":3696:3701   */\n      dup2\n        /* \"#utility.yul\":3678:3702   */\n      tag_60\n      jump\t// in\n    tag_132:\n        /* \"#utility.yul\":3671:3676   */\n      dup2\n        /* \"#utility.yul\":3668:3703   */\n      eq\n        /* \"#utility.yul\":3658:3721   */\n      tag_133\n      jumpi\n        /* \"#utility.yul\":3717:3718   */\n      0x00\n        /* \"#utility.yul\":3714:3715   */\n      dup1\n        /* \"#utility.yul\":3707:3719   */\n      revert\n        /* \"#utility.yul\":3658:3721   */\n    tag_133:\n        /* \"#utility.yul\":3605:3727   */\n      pop\n      jump\t// out\n        /* \"#utility.yul\":3733:3872   */\n    tag_62:\n        /* \"#utility.yul\":3779:3784   */\n      0x00\n        /* \"#utility.yul\":3817:3823   */\n      dup2\n        /* \"#utility.yul\":3804:3824   */\n      calldataload\n        /* \"#utility.yul\":3795:3824   */\n      swap1\n      pop\n        /* \"#utility.yul\":3833:3866   */\n      tag_135\n        /* \"#utility.yul\":3860:3865   */\n      dup2\n        /* \"#utility.yul\":3833:3866   */\n      tag_61\n      jump\t// in\n    tag_135:\n        /* \"#utility.yul\":3733:3872   */\n      swap3\n      swap2\n      pop\n      pop\n      jump\t// out\n        /* \"#utility.yul\":3878:4207   */\n    tag_17:\n        /* \"#utility.yul\":3937:3943   */\n      0x00\n        /* \"#utility.yul\":3986:3988   */\n      0x20\n        /* \"#utility.yul\":3974:3983   */\n      dup3\n        /* \"#utility.yul\":3965:3972   */\n      dup5\n        /* \"#utility.yul\":3961:3984   */\n      sub\n        /* \"#utility.yul\":3957:3989   */\n      slt\n        /* \"#utility.yul\":3954:4073   */\n      iszero\n      tag_137\n      jumpi\n        /* \"#utility.yul\":3992:4071   */\n      tag_138\n      tag_46\n      jump\t// in\n    tag_138:\n        /* \"#utility.yul\":3954:4073   */\n    tag_137:\n        /* \"#utility.yul\":4112:4113   */\n      0x00\n        /* \"#utility.yul\":4137:4190   */\n      tag_139\n        /* \"#utility.yul\":4182:4189   */\n      dup5\n        /* \"#utility.yul\":4173:4179   */\n      dup3\n        /* \"#utility.yul\":4162:4171   */\n      dup6\n        /* \"#utility.yul\":4158:4180   */\n      add\n        /* \"#utility.yul\":4137:4190   */\n      tag_62\n      jump\t// in\n    tag_139:\n        /* \"#utility.yul\":4127:4190   */\n      swap2\n      pop\n        /* \"#utility.yul\":4083:4200   */\n      pop\n        /* \"#utility.yul\":3878:4207   */\n      swap3\n      swap2\n      pop\n      pop\n      jump\t// out\n        /* \"#utility.yul\":4213:4321   */\n    tag_63:\n        /* \"#utility.yul\":4290:4314   */\n      tag_141\n        /* \"#utility.yul\":4308:4313   */\n      dup2\n        /* \"#utility.yul\":4290:4314   */\n      tag_60\n      jump\t// in\n    tag_141:\n        /* \"#utility.yul\":4285:4288   */\n      dup3\n        /* \"#utility.yul\":4278:4315   */\n      mstore\n        /* \"#utility.yul\":4213:4321   */\n      pop\n      pop\n      jump\t// out\n        /* \"#utility.yul\":4327:4426   */\n    tag_64:\n        /* \"#utility.yul\":4379:4385   */\n      0x00\n        /* \"#utility.yul\":4413:4418   */\n      dup2\n        /* \"#utility.yul\":4407:4419   */\n      mload\n        /* \"#utility.yul\":4397:4419   */\n      swap1\n      pop\n        /* \"#utility.yul\":4327:4426   */\n      swap2\n      swap1\n      pop\n      jump\t// out\n        /* \"#utility.yul\":4432:4591   */\n    tag_65:\n        /* \"#utility.yul\":4506:4517   */\n      0x00\n        /* \"#utility.yul\":4540:4546   */\n      dup3\n        /* \"#utility.yul\":4535:4538   */\n      dup3\n        /* \"#utility.yul\":4528:4547   */\n      mstore\n        /* \"#utility.yul\":4580:4584   */\n      0x20\n        /* \"#utility.yul\":4575:4578   */\n      dup3\n        /* \"#utility.yul\":4571:4585   */\n      add\n        /* \"#utility.yul\":4556:4585   */\n      swap1\n      pop\n        /* \"#utility.yul\":4432:4591   */\n      swap3\n      swap2\n      pop\n      pop\n      jump\t// out\n        /* \"#utility.yul\":4597:4736   */\n    tag_66:\n        /* \"#utility.yul\":4686:4692   */\n      dup3\n        /* \"#utility.yul\":4681:4684   */\n      dup2\n        /* \"#utility.yul\":4676:4679   */\n      dup4\n        /* \"#utility.yul\":4670:4693   */\n      mcopy\n        /* \"#utility.yul\":4727:4728   */\n      0x00\n        /* \"#utility.yul\":4718:4724   */\n      dup4\n        /* \"#utility.yul\":4713:4716   */\n      dup4\n        /* \"#utility.yul\":4709:4725   */\n      add\n        /* \"#utility.yul\":4702:4729   */\n      mstore\n        /* \"#utility.yul\":4597:4736   */\n      pop\n      pop\n      pop\n      jump\t// out\n        /* \"#utility.yul\":4742:5099   */\n    tag_67:\n        /* \"#utility.yul\":4820:4823   */\n      0x00\n        /* \"#utility.yul\":4848:4887   */\n      tag_146\n        /* \"#utility.yul\":4881:4886   */\n      dup3\n        /* \"#utility.yul\":4848:4887   */\n      tag_64\n      jump\t// in\n    tag_146:\n        /* \"#utility.yul\":4903:4964   */\n      tag_147\n        /* \"#utility.yul\":4957:4963   */\n      dup2\n        /* \"#utility.yul\":4952:4955   */\n      dup6\n        /* \"#utility.yul\":4903:4964   */\n      tag_65\n      jump\t// in\n    tag_147:\n        /* \"#utility.yul\":4896:4964   */\n      swap4\n      pop\n        /* \"#utility.yul\":4973:5038   */\n      tag_148\n        /* \"#utility.yul\":5031:5037   */\n      dup2\n        /* \"#utility.yul\":5026:5029   */\n      dup6\n        /* \"#utility.yul\":5019:5023   */\n      0x20\n        /* \"#utility.yul\":5012:5017   */\n      dup7\n        /* \"#utility.yul\":5008:5024   */\n      add\n        /* \"#utility.yul\":4973:5038   */\n      tag_66\n      jump\t// in\n    tag_148:\n        /* \"#utility.yul\":5063:5092   */\n      tag_149\n        /* \"#utility.yul\":5085:5091   */\n      dup2\n        /* \"#utility.yul\":5063:5092   */\n      tag_50\n      jump\t// in\n    tag_149:\n        /* \"#utility.yul\":5058:5061   */\n      dup5\n        /* \"#utility.yul\":5054:5093   */\n      add\n        /* \"#utility.yul\":5047:5093   */\n      swap2\n      pop\n        /* \"#utility.yul\":4824:5099   */\n      pop\n        /* \"#utility.yul\":4742:5099   */\n      swap3\n      swap2\n      pop\n      pop\n      jump\t// out\n        /* \"#utility.yul\":5149:5748   */\n    tag_68:\n        /* \"#utility.yul\":5256:5259   */\n      0x00\n        /* \"#utility.yul\":5292:5296   */\n      0x40\n        /* \"#utility.yul\":5287:5290   */\n      dup4\n        /* \"#utility.yul\":5283:5297   */\n      add\n        /* \"#utility.yul\":5377:5381   */\n      0x00\n        /* \"#utility.yul\":5370:5375   */\n      dup4\n        /* \"#utility.yul\":5366:5382   */\n      add\n        /* \"#utility.yul\":5360:5383   */\n      mload\n        /* \"#utility.yul\":5396:5459   */\n      tag_151\n        /* \"#utility.yul\":5453:5457   */\n      0x00\n        /* \"#utility.yul\":5448:5451   */\n      dup7\n        /* \"#utility.yul\":5444:5458   */\n      add\n        /* \"#utility.yul\":5430:5442   */\n      dup3\n        /* \"#utility.yul\":5396:5459   */\n      tag_63\n      jump\t// in\n    tag_151:\n        /* \"#utility.yul\":5307:5469   */\n      pop\n        /* \"#utility.yul\":5558:5562   */\n      0x20\n        /* \"#utility.yul\":5551:5556   */\n      dup4\n        /* \"#utility.yul\":5547:5563   */\n      add\n        /* \"#utility.yul\":5541:5564   */\n      mload\n        /* \"#utility.yul\":5611:5614   */\n      dup5\n        /* \"#utility.yul\":5605:5609   */\n      dup3\n        /* \"#utility.yul\":5601:5615   */\n      sub\n        /* \"#utility.yul\":5594:5598   */\n      0x20\n        /* \"#utility.yul\":5589:5592   */\n      dup7\n        /* \"#utility.yul\":5585:5599   */\n      add\n        /* \"#utility.yul\":5578:5616   */\n      mstore\n        /* \"#utility.yul\":5637:5710   */\n      tag_152\n        /* \"#utility.yul\":5705:5709   */\n      dup3\n        /* \"#utility.yul\":5691:5703   */\n      dup3\n        /* \"#utility.yul\":5637:5710   */\n      tag_67\n      jump\t// in\n    tag_152:\n        /* \"#utility.yul\":5629:5710   */\n      swap2\n      pop\n        /* \"#utility.yul\":5479:5721   */\n      pop\n        /* \"#utility.yul\":5738:5742   */\n      dup1\n        /* \"#utility.yul\":5731:5742   */\n      swap2\n      pop\n        /* \"#utility.yul\":5261:5748   */\n      pop\n        /* \"#utility.yul\":5149:5748   */\n      swap3\n      swap2\n      pop\n      pop\n      jump\t// out\n        /* \"#utility.yul\":5754:6103   */\n    tag_20:\n        /* \"#utility.yul\":5885:5889   */\n      0x00\n        /* \"#utility.yul\":5923:5925   */\n      0x20\n        /* \"#utility.yul\":5912:5921   */\n      dup3\n        /* \"#utility.yul\":5908:5926   */\n      add\n        /* \"#utility.yul\":5900:5926   */\n      swap1\n      pop\n        /* \"#utility.yul\":5972:5981   */\n      dup2\n        /* \"#utility.yul\":5966:5970   */\n      dup2\n        /* \"#utility.yul\":5962:5982   */\n      sub\n        /* \"#utility.yul\":5958:5959   */\n      0x00\n        /* \"#utility.yul\":5947:5956   */\n      dup4\n        /* \"#utility.yul\":5943:5960   */\n      add\n        /* \"#utility.yul\":5936:5983   */\n      mstore\n        /* \"#utility.yul\":6000:6096   */\n      tag_154\n        /* \"#utility.yul\":6091:6095   */\n      dup2\n        /* \"#utility.yul\":6082:6088   */\n      dup5\n        /* \"#utility.yul\":6000:6096   */\n      tag_68\n      jump\t// in\n    tag_154:\n        /* \"#utility.yul\":5992:6096   */\n      swap1\n      pop\n        /* \"#utility.yul\":5754:6103   */\n      swap3\n      swap2\n      pop\n      pop\n      jump\t// out\n        /* \"#utility.yul\":6109:6227   */\n    tag_69:\n        /* \"#utility.yul\":6196:6220   */\n      tag_156\n        /* \"#utility.yul\":6214:6219   */\n      dup2\n        /* \"#utility.yul\":6196:6220   */\n      tag_60\n      jump\t// in\n    tag_156:\n        /* \"#utility.yul\":6191:6194   */\n      dup3\n        /* \"#utility.yul\":6184:6221   */\n      mstore\n        /* \"#utility.yul\":6109:6227   */\n      pop\n      pop\n      jump\t// out\n        /* \"#utility.yul\":6233:6402   */\n    tag_70:\n        /* \"#utility.yul\":6317:6328   */\n      0x00\n        /* \"#utility.yul\":6351:6357   */\n      dup3\n        /* \"#utility.yul\":6346:6349   */\n      dup3\n        /* \"#utility.yul\":6339:6358   */\n      mstore\n        /* \"#utility.yul\":6391:6395   */\n      0x20\n        /* \"#utility.yul\":6386:6389   */\n      dup3\n        /* \"#utility.yul\":6382:6396   */\n      add\n        /* \"#utility.yul\":6367:6396   */\n      swap1\n      pop\n        /* \"#utility.yul\":6233:6402   */\n      swap3\n      swap2\n      pop\n      pop\n      jump\t// out\n        /* \"#utility.yul\":6408:6785   */\n    tag_71:\n        /* \"#utility.yul\":6496:6499   */\n      0x00\n        /* \"#utility.yul\":6524:6563   */\n      tag_159\n        /* \"#utility.yul\":6557:6562   */\n      dup3\n        /* \"#utility.yul\":6524:6563   */\n      tag_64\n      jump\t// in\n    tag_159:\n        /* \"#utility.yul\":6579:6650   */\n      tag_160\n        /* \"#utility.yul\":6643:6649   */\n      dup2\n        /* \"#utility.yul\":6638:6641   */\n      dup6\n        /* \"#utility.yul\":6579:6650   */\n      tag_70\n      jump\t// in\n    tag_160:\n        /* \"#utility.yul\":6572:6650   */\n      swap4\n      pop\n        /* \"#utility.yul\":6659:6724   */\n      tag_161\n        /* \"#utility.yul\":6717:6723   */\n      dup2\n        /* \"#utility.yul\":6712:6715   */\n      dup6\n        /* \"#utility.yul\":6705:6709   */\n      0x20\n        /* \"#utility.yul\":6698:6703   */\n      dup7\n        /* \"#utility.yul\":6694:6710   */\n      add\n        /* \"#utility.yul\":6659:6724   */\n      tag_66\n      jump\t// in\n    tag_161:\n        /* \"#utility.yul\":6749:6778   */\n      tag_162\n        /* \"#utility.yul\":6771:6777   */\n      dup2\n        /* \"#utility.yul\":6749:6778   */\n      tag_50\n      jump\t// in\n    tag_162:\n        /* \"#utility.yul\":6744:6747   */\n      dup5\n        /* \"#utility.yul\":6740:6779   */\n      add\n        /* \"#utility.yul\":6733:6779   */\n      swap2\n      pop\n        /* \"#utility.yul\":6500:6785   */\n      pop\n        /* \"#utility.yul\":6408:6785   */\n      swap3\n      swap2\n      pop\n      pop\n      jump\t// out\n        /* \"#utility.yul\":6791:7214   */\n    tag_25:\n        /* \"#utility.yul\":6932:6936   */\n      0x00\n        /* \"#utility.yul\":6970:6972   */\n      0x40\n        /* \"#utility.yul\":6959:6968   */\n      dup3\n        /* \"#utility.yul\":6955:6973   */\n      add\n        /* \"#utility.yul\":6947:6973   */\n      swap1\n      pop\n        /* \"#utility.yul\":6983:7054   */\n      tag_164\n        /* \"#utility.yul\":7051:7052   */\n      0x00\n        /* \"#utility.yul\":7040:7049   */\n      dup4\n        /* \"#utility.yul\":7036:7053   */\n      add\n        /* \"#utility.yul\":7027:7033   */\n      dup6\n        /* \"#utility.yul\":6983:7054   */\n      tag_69\n      jump\t// in\n    tag_164:\n        /* \"#utility.yul\":7101:7110   */\n      dup2\n        /* \"#utility.yul\":7095:7099   */\n      dup2\n        /* \"#utility.yul\":7091:7111   */\n      sub\n        /* \"#utility.yul\":7086:7088   */\n      0x20\n        /* \"#utility.yul\":7075:7084   */\n      dup4\n        /* \"#utility.yul\":7071:7089   */\n      add\n        /* \"#utility.yul\":7064:7112   */\n      mstore\n        /* \"#utility.yul\":7129:7207   */\n      tag_165\n        /* \"#utility.yul\":7202:7206   */\n      dup2\n        /* \"#utility.yul\":7193:7199   */\n      dup5\n        /* \"#utility.yul\":7129:7207   */\n      tag_71\n      jump\t// in\n    tag_165:\n        /* \"#utility.yul\":7121:7207   */\n      swap1\n      pop\n        /* \"#utility.yul\":6791:7214   */\n      swap4\n      swap3\n      pop\n      pop\n      pop\n      jump\t// out\n        /* \"#utility.yul\":7220:7400   */\n    tag_72:\n        /* \"#utility.yul\":7268:7345   */\n      0x4e487b7100000000000000000000000000000000000000000000000000000000\n        /* \"#utility.yul\":7265:7266   */\n      0x00\n        /* \"#utility.yul\":7258:7346   */\n      mstore\n        /* \"#utility.yul\":7365:7369   */\n      0x11\n        /* \"#utility.yul\":7362:7363   */\n      0x04\n        /* \"#utility.yul\":7355:7370   */\n      mstore\n        /* \"#utility.yul\":7389:7393   */\n      0x24\n        /* \"#utility.yul\":7386:7387   */\n      0x00\n        /* \"#utility.yul\":7379:7394   */\n      revert\n        /* \"#utility.yul\":7406:7589   */\n    tag_28:\n        /* \"#utility.yul\":7444:7447   */\n      0x00\n        /* \"#utility.yul\":7467:7490   */\n      tag_168\n        /* \"#utility.yul\":7484:7489   */\n      dup3\n        /* \"#utility.yul\":7467:7490   */\n      tag_58\n      jump\t// in\n    tag_168:\n        /* \"#utility.yul\":7458:7490   */\n      swap2\n      pop\n        /* \"#utility.yul\":7512:7530   */\n      0xffffffffffffffff\n        /* \"#utility.yul\":7505:7510   */\n      dup3\n        /* \"#utility.yul\":7502:7531   */\n      sub\n        /* \"#utility.yul\":7499:7554   */\n      tag_169\n      jumpi\n        /* \"#utility.yul\":7534:7552   */\n      tag_170\n      tag_72\n      jump\t// in\n    tag_170:\n        /* \"#utility.yul\":7499:7554   */\n    tag_169:\n        /* \"#utility.yul\":7581:7582   */\n      0x01\n        /* \"#utility.yul\":7574:7579   */\n      dup3\n        /* \"#utility.yul\":7570:7583   */\n      add\n        /* \"#utility.yul\":7563:7583   */\n      swap1\n      pop\n        /* \"#utility.yul\":7406:7589   */\n      swap2\n      swap1\n      pop\n      jump\t// out\n        /* \"#utility.yul\":7595:7775   */\n    tag_73:\n        /* \"#utility.yul\":7643:7720   */\n      0x4e487b7100000000000000000000000000000000000000000000000000000000\n        /* \"#utility.yul\":7640:7641   */\n      0x00\n        /* \"#utility.yul\":7633:7721   */\n      mstore\n        /* \"#utility.yul\":7740:7744   */\n      0x22\n        /* \"#utility.yul\":7737:7738   */\n      0x04\n        /* \"#utility.yul\":7730:7745   */\n      mstore\n        /* \"#utility.yul\":7764:7768   */\n      0x24\n        /* \"#utility.yul\":7761:7762   */\n      0x00\n        /* \"#utility.yul\":7754:7769   */\n      revert\n        /* \"#utility.yul\":7781:8101   */\n    tag_35:\n        /* \"#utility.yul\":7825:7831   */\n      0x00\n        /* \"#utility.yul\":7862:7863   */\n      0x02\n        /* \"#utility.yul\":7856:7860   */\n      dup3\n        /* \"#utility.yul\":7852:7864   */\n      div\n        /* \"#utility.yul\":7842:7864   */\n      swap1\n      pop\n        /* \"#utility.yul\":7909:7910   */\n      0x01\n        /* \"#utility.yul\":7903:7907   */\n      dup3\n        /* \"#utility.yul\":7899:7911   */\n      and\n        /* \"#utility.yul\":7930:7948   */\n      dup1\n        /* \"#utility.yul\":7920:8001   */\n      tag_173\n      jumpi\n        /* \"#utility.yul\":7986:7990   */\n      0x7f\n        /* \"#utility.yul\":7978:7984   */\n      dup3\n        /* \"#utility.yul\":7974:7991   */\n      and\n        /* \"#utility.yul\":7964:7991   */\n      swap2\n      pop\n        /* \"#utility.yul\":7920:8001   */\n    tag_173:\n        /* \"#utility.yul\":8048:8050   */\n      0x20\n        /* \"#utility.yul\":8040:8046   */\n      dup3\n        /* \"#utility.yul\":8037:8051   */\n      lt\n        /* \"#utility.yul\":8017:8035   */\n      dup2\n        /* \"#utility.yul\":8014:8052   */\n      sub\n        /* \"#utility.yul\":8011:8095   */\n      tag_174\n      jumpi\n        /* \"#utility.yul\":8067:8085   */\n      tag_175\n      tag_73\n      jump\t// in\n    tag_175:\n        /* \"#utility.yul\":8011:8095   */\n    tag_174:\n        /* \"#utility.yul\":7832:8101   */\n      pop\n        /* \"#utility.yul\":7781:8101   */\n      swap2\n      swap1\n      pop\n      jump\t// out\n        /* \"#utility.yul\":8107:8248   */\n    tag_74:\n        /* \"#utility.yul\":8156:8160   */\n      0x00\n        /* \"#utility.yul\":8179:8182   */\n      dup2\n        /* \"#utility.yul\":8171:8182   */\n      swap1\n      pop\n        /* \"#utility.yul\":8202:8205   */\n      dup2\n        /* \"#utility.yul\":8199:8200   */\n      0x00\n        /* \"#utility.yul\":8192:8206   */\n      mstore\n        /* \"#utility.yul\":8236:8240   */\n      0x20\n        /* \"#utility.yul\":8233:8234   */\n      0x00\n        /* \"#utility.yul\":8223:8241   */\n      keccak256\n        /* \"#utility.yul\":8215:8241   */\n      swap1\n      pop\n        /* \"#utility.yul\":8107:8248   */\n      swap2\n      swap1\n      pop\n      jump\t// out\n        /* \"#utility.yul\":8254:8347   */\n    tag_75:\n        /* \"#utility.yul\":8291:8297   */\n      0x00\n        /* \"#utility.yul\":8338:8340   */\n      0x20\n        /* \"#utility.yul\":8333:8335   */\n      0x1f\n        /* \"#utility.yul\":8326:8331   */\n      dup4\n        /* \"#utility.yul\":8322:8336   */\n      add\n        /* \"#utility.yul\":8318:8341   */\n      div\n        /* \"#utility.yul\":8308:8341   */\n      swap1\n      pop\n        /* \"#utility.yul\":8254:8347   */\n      swap2\n      swap1\n      pop\n      jump\t// out\n        /* \"#utility.yul\":8353:8460   */\n    tag_76:\n        /* \"#utility.yul\":8397:8405   */\n      0x00\n        /* \"#utility.yul\":8447:8452   */\n      dup3\n        /* \"#utility.yul\":8441:8445   */\n      dup3\n        /* \"#utility.yul\":8437:8453   */\n      shl\n        /* \"#utility.yul\":8416:8453   */\n      swap1\n      pop\n        /* \"#utility.yul\":8353:8460   */\n      swap3\n      swap2\n      pop\n      pop\n      jump\t// out\n        /* \"#utility.yul\":8466:8859   */\n    tag_77:\n        /* \"#utility.yul\":8535:8541   */\n      0x00\n        /* \"#utility.yul\":8585:8586   */\n      0x08\n        /* \"#utility.yul\":8573:8583   */\n      dup4\n        /* \"#utility.yul\":8569:8587   */\n      mul\n        /* \"#utility.yul\":8608:8705   */\n      tag_180\n        /* \"#utility.yul\":8638:8704   */\n      0xffffffffffffffffffffffffffffffffffffffffffffffffffffffffffffffff\n        /* \"#utility.yul\":8627:8636   */\n      dup3\n        /* \"#utility.yul\":8608:8705   */\n      tag_76\n      jump\t// in\n    tag_180:\n        /* \"#utility.yul\":8726:8765   */\n      tag_181\n        /* \"#utility.yul\":8756:8764   */\n      dup7\n        /* \"#utility.yul\":8745:8754   */\n      dup4\n        /* \"#utility.yul\":8726:8765   */\n      tag_76\n      jump\t// in\n    tag_181:\n        /* \"#utility.yul\":8714:8765   */\n      swap6\n      pop\n        /* \"#utility.yul\":8798:8802   */\n      dup1\n        /* \"#utility.yul\":8794:8803   */\n      not\n        /* \"#utility.yul\":8787:8792   */\n      dup5\n        /* \"#utility.yul\":8783:8804   */\n      and\n        /* \"#utility.yul\":8774:8804   */\n      swap4\n      pop\n        /* \"#utility.yul\":8847:8851   */\n      dup1\n        /* \"#utility.yul\":8837:8845   */\n      dup7\n        /* \"#utility.yul\":8833:8852   */\n      and\n        /* \"#utility.yul\":8826:8831   */\n      dup5\n        /* \"#utility.yul\":8823:8853   */\n      or\n        /* \"#utility.yul\":8813:8853   */\n      swap3\n      pop\n        /* \"#utility.yul\":8542:8859   */\n      pop\n      pop\n        /* \"#utility.yul\":8466:8859   */\n      swap4\n      swap3\n      pop\n      pop\n      pop\n      jump\t// out\n        /* \"#utility.yul\":8865:8925   */\n    tag_78:\n        /* \"#utility.yul\":8893:8896   */\n      0x00\n        /* \"#utility.yul\":8914:8919   */\n      dup2\n        /* \"#utility.yul\":8907:8919   */\n      swap1\n      pop\n        /* \"#utility.yul\":8865:8925   */\n      swap2\n      swap1\n      pop\n      jump\t// out\n        /* \"#utility.yul\":8931:9073   */\n    tag_79:\n        /* \"#utility.yul\":8981:8990   */\n      0x00\n        /* \"#utility.yul\":9014:9067   */\n      tag_184\n        /* \"#utility.yul\":9032:9066   */\n      tag_185\n        /* \"#utility.yul\":9041:9065   */\n      tag_186\n        /* \"#utility.yul\":9059:9064   */\n      dup5\n        /* \"#utility.yul\":9041:9065   */\n      tag_60\n      jump\t// in\n    tag_186:\n        /* \"#utility.yul\":9032:9066   */\n      tag_78\n      jump\t// in\n    tag_185:\n        /* \"#utility.yul\":9014:9067   */\n      tag_60\n      jump\t// in\n    tag_184:\n        /* \"#utility.yul\":9001:9067   */\n      swap1\n      pop\n        /* \"#utility.yul\":8931:9073   */\n      swap2\n      swap1\n      pop\n      jump\t// out\n        /* \"#utility.yul\":9079:9154   */\n    tag_80:\n        /* \"#utility.yul\":9122:9125   */\n      0x00\n        /* \"#utility.yul\":9143:9148   */\n      dup2\n        /* \"#utility.yul\":9136:9148   */\n      swap1\n      pop\n        /* \"#utility.yul\":9079:9154   */\n      swap2\n      swap1\n      pop\n      jump\t// out\n        /* \"#utility.yul\":9160:9429   */\n    tag_81:\n        /* \"#utility.yul\":9270:9309   */\n      tag_189\n        /* \"#utility.yul\":9301:9308   */\n      dup4\n        /* \"#utility.yul\":9270:9309   */\n      tag_79\n      jump\t// in\n    tag_189:\n        /* \"#utility.yul\":9331:9422   */\n      tag_190\n        /* \"#utility.yul\":9380:9421   */\n      tag_191\n        /* \"#utility.yul\":9404:9420   */\n      dup3\n        /* \"#utility.yul\":9380:9421   */\n      tag_80\n      jump\t// in\n    tag_191:\n        /* \"#utility.yul\":9372:9378   */\n      dup5\n        /* \"#utility.yul\":9365:9369   */\n      dup5\n        /* \"#utility.yul\":9359:9370   */\n      sload\n        /* \"#utility.yul\":9331:9422   */\n      tag_77\n      jump\t// in\n    tag_190:\n        /* \"#utility.yul\":9325:9329   */\n      dup3\n        /* \"#utility.yul\":9318:9423   */\n      sstore\n        /* \"#utility.yul\":9236:9429   */\n      pop\n        /* \"#utility.yul\":9160:9429   */\n      pop\n      pop\n      pop\n      jump\t// out\n        /* \"#utility.yul\":9435:9508   */\n    tag_82:\n        /* \"#utility.yul\":9480:9483   */\n      0x00\n        /* \"#utility.yul\":9435:9508   */\n      swap1\n      jump\t// out\n        /* \"#utility.yul\":9514:9703   */\n    tag_83:\n        /* \"#utility.yul\":9591:9623   */\n      tag_194\n      tag_82\n      jump\t// in\n    tag_194:\n        /* \"#utility.yul\":9632:9697   */\n      tag_195\n        /* \"#utility.yul\":9690:9696   */\n      dup2\n        /* \"#utility.yul\":9682:9688   */\n      dup5\n        /* \"#utility.yul\":9676:9680   */\n      dup5\n        /* \"#utility.yul\":9632:9697   */\n      tag_81\n      jump\t// in\n    tag_195:\n        /* \"#utility.yul\":9567:9703   */\n      pop\n        /* \"#utility.yul\":9514:9703   */\n      pop\n      pop\n      jump\t// out\n        /* \"#utility.yul\":9709:9895   */\n    tag_84:\n        /* \"#utility.yul\":9769:9889   */\n    tag_197:\n        /* \"#utility.yul\":9786:9789   */\n      dup2\n        /* \"#utility.yul\":9779:9784   */\n      dup2\n        /* \"#utility.yul\":9776:9790   */\n      lt\n        /* \"#utility.yul\":9769:9889   */\n      iszero\n      tag_199\n      jumpi\n        /* \"#utility.yul\":9840:9879   */\n      tag_200\n        /* \"#utility.yul\":9877:9878   */\n      0x00\n        /* \"#utility.yul\":9870:9875   */\n      dup3\n        /* \"#utility.yul\":9840:9879   */\n      tag_83\n      jump\t// in\n    tag_200:\n        /* \"#utility.yul\":9813:9814   */\n      0x01\n        /* \"#utility.yul\":9806:9811   */\n      dup2\n        /* \"#utility.yul\":9802:9815   */\n      add\n        /* \"#utility.yul\":9793:9815   */\n      swap1\n      pop\n        /* \"#utility.yul\":9769:9889   */\n      jump(tag_197)\n    tag_199:\n        /* \"#utility.yul\":9709:9895   */\n      pop\n      pop\n      jump\t// out\n        /* \"#utility.yul\":9901:10444   */\n    tag_85:\n        /* \"#utility.yul\":10002:10004   */\n      0x1f\n        /* \"#utility.yul\":9997:10000   */\n      dup3\n        /* \"#utility.yul\":9994:10005   */\n      gt\n        /* \"#utility.yul\":9991:10437   */\n      iszero\n      tag_202\n      jumpi\n        /* \"#utility.yul\":10036:10074   */\n      tag_203\n        /* \"#utility.yul\":10068:10073   */\n      dup2\n        /* \"#utility.yul\":10036:10074   */\n      tag_74\n      jump\t// in\n    tag_203:\n        /* \"#utility.yul\":10120:10149   */\n      tag_204\n        /* \"#utility.yul\":10138:10148   */\n      dup5\n        /* \"#utility.yul\":10120:10149   */\n      tag_75\n      jump\t// in\n    tag_204:\n        /* \"#utility.yul\":10110:10118   */\n      dup2\n        /* \"#utility.yul\":10106:10150   */\n      add\n        /* \"#utility.yul\":10303:10305   */\n      0x20\n        /* \"#utility.yul\":10291:10301   */\n      dup6\n        /* \"#utility.yul\":10288:10306   */\n      lt\n        /* \"#utility.yul\":10285:10334   */\n      iszero\n      tag_205\n      jumpi\n        /* \"#utility.yul\":10324:10332   */\n      dup2\n        /* \"#utility.yul\":10309:10332   */\n      swap1\n      pop\n        /* \"#utility.yul\":10285:10334   */\n    tag_205:\n        /* \"#utility.yul\":10347:10427   */\n      tag_206\n        /* \"#utility.yul\":10403:10425   */\n      tag_207\n        /* \"#utility.yul\":10421:10424   */\n      dup6\n        /* \"#utility.yul\":10403:10425   */\n      tag_75\n      jump\t// in\n    tag_207:\n        /* \"#utility.yul\":10393:10401   */\n      dup4\n        /* \"#utility.yul\":10389:10426   */\n      add\n        /* \"#utility.yul\":10376:10387   */\n      dup3\n        /* \"#utility.yul\":10347:10427   */\n      tag_84\n      jump\t// in\n    tag_206:\n        /* \"#utility.yul\":10006:10437   */\n      pop\n      pop\n        /* \"#utility.yul\":9991:10437   */\n    tag_202:\n        /* \"#utility.yul\":9901:10444   */\n      pop\n      pop\n      pop\n      jump\t// out\n        /* \"#utility.yul\":10450:10567   */\n    tag_86:\n        /* \"#utility.yul\":10504:10512   */\n      0x00\n        /* \"#utility.yul\":10554:10559   */\n      dup3\n        /* \"#utility.yul\":10548:10552   */\n      dup3\n        /* \"#utility.yul\":10544:10560   */\n      shr\n        /* \"#utility.yul\":10523:10560   */\n      swap1\n      pop\n        /* \"#utility.yul\":10450:10567   */\n      swap3\n      swap2\n      pop\n      pop\n      jump\t// out\n        /* \"#utility.yul\":10573:10742   */\n    tag_87:\n        /* \"#utility.yul\":10617:10623   */\n      0x00\n        /* \"#utility.yul\":10650:10701   */\n      tag_210\n        /* \"#utility.yul\":10698:10699   */\n      0x00\n        /* \"#utility.yul\":10694:10700   */\n      not\n        /* \"#utility.yul\":10686:10691   */\n      dup5\n        /* \"#utility.yul\":10683:10684   */\n      0x08\n        /* \"#utility.yul\":10679:10692   */\n      mul\n        /* \"#utility.yul\":10650:10701   */\n      tag_86\n      jump\t// in\n    tag_210:\n        /* \"#utility.yul\":10646:10702   */\n      not\n        /* \"#utility.yul\":10731:10735   */\n      dup1\n        /* \"#utility.yul\":10725:10729   */\n      dup4\n        /* \"#utility.yul\":10721:10736   */\n      and\n        /* \"#utility.yul\":10711:10736   */\n      swap2\n      pop\n        /* \"#utility.yul\":10624:10742   */\n      pop\n        /* \"#utility.yul\":10573:10742   */\n      swap3\n      swap2\n      pop\n      pop\n      jump\t// out\n        /* \"#utility.yul\":10747:11042   */\n    tag_88:\n        /* \"#utility.yul\":10823:10827   */\n      0x00\n        /* \"#utility.yul\":10969:10998   */\n      tag_212\n        /* \"#utility.yul\":10994:10997   */\n      dup4\n        /* \"#utility.yul\":10988:10992   */\n      dup4\n        /* \"#utility.yul\":10969:10998   */\n      tag_87\n      jump\t// in\n    tag_212:\n        /* \"#utility.yul\":10961:10998   */\n      swap2\n      pop\n        /* \"#utility.yul\":11031:11034   */\n      dup3\n        /* \"#utility.yul\":11028:11029   */\n      0x02\n        /* \"#utility.yul\":11024:11035   */\n      mul\n        /* \"#utility.yul\":11018:11022   */\n      dup3\n        /* \"#utility.yul\":11015:11036   */\n      or\n        /* \"#utility.yul\":11007:11036   */\n      swap1\n      pop\n        /* \"#utility.yul\":10747:11042   */\n      swap3\n      swap2\n      pop\n      pop\n      jump\t// out\n        /* \"#utility.yul\":11047:12442   */\n    tag_30:\n        /* \"#utility.yul\":11164:11201   */\n      tag_214\n        /* \"#utility.yul\":11197:11200   */\n      dup3\n        /* \"#utility.yul\":11164:11201   */\n      tag_64\n      jump\t// in\n    tag_214:\n        /* \"#utility.yul\":11266:11284   */\n      0xffffffffffffffff\n        /* \"#utility.yul\":11258:11264   */\n      dup2\n        /* \"#utility.yul\":11255:11285   */\n      gt\n        /* \"#utility.yul\":11252:11308   */\n      iszero\n      tag_215\n      jumpi\n        /* \"#utility.yul\":11288:11306   */\n      tag_216\n      tag_51\n      jump\t// in\n    tag_216:\n        /* \"#utility.yul\":11252:11308   */\n    tag_215:\n        /* \"#utility.yul\":11332:11370   */\n      tag_217\n        /* \"#utility.yul\":11364:11368   */\n      dup3\n        /* \"#utility.yul\":11358:11369   */\n      sload\n        /* \"#utility.yul\":11332:11370   */\n      tag_35\n      jump\t// in\n    tag_217:\n        /* \"#utility.yul\":11417:11484   */\n      tag_218\n        /* \"#utility.yul\":11477:11483   */\n      dup3\n        /* \"#utility.yul\":11469:11475   */\n      dup3\n        /* \"#utility.yul\":11463:11467   */\n      dup6\n        /* \"#utility.yul\":11417:11484   */\n      tag_85\n      jump\t// in\n    tag_218:\n        /* \"#utility.yul\":11511:11512   */\n      0x00\n        /* \"#utility.yul\":11535:11539   */\n      0x20\n        /* \"#utility.yul\":11522:11539   */\n      swap1\n      pop\n        /* \"#utility.yul\":11567:11569   */\n      0x1f\n        /* \"#utility.yul\":11559:11565   */\n      dup4\n        /* \"#utility.yul\":11556:11570   */\n      gt\n        /* \"#utility.yul\":11584:11585   */\n      0x01\n        /* \"#utility.yul\":11579:12197   */\n      dup2\n      eq\n      tag_220\n      jumpi\n        /* \"#utility.yul\":12241:12242   */\n      0x00\n        /* \"#utility.yul\":12258:12264   */\n      dup5\n        /* \"#utility.yul\":12255:12332   */\n      iszero\n      tag_221\n      jumpi\n        /* \"#utility.yul\":12307:12316   */\n      dup3\n        /* \"#utility.yul\":12302:12305   */\n      dup8\n        /* \"#utility.yul\":12298:12317   */\n      add\n        /* \"#utility.yul\":12292:12318   */\n      mload\n        /* \"#utility.yul\":12283:12318   */\n      swap1\n      pop\n        /* \"#utility.yul\":12255:12332   */\n    tag_221:\n        /* \"#utility.yul\":12358:12425   */\n      tag_222\n        /* \"#utility.yul\":12418:12424   */\n      dup6\n        /* \"#utility.yul\":12411:12416   */\n      dup3\n        /* \"#utility.yul\":12358:12425   */\n      tag_88\n      jump\t// in\n    tag_222:\n        /* \"#utility.yul\":12352:12356   */\n      dup7\n        /* \"#utility.yul\":12345:12426   */\n      sstore\n        /* \"#utility.yul\":12214:12436   */\n      pop\n        /* \"#utility.yul\":11549:12436   */\n      jump(tag_219)\n        /* \"#utility.yul\":11579:12197   */\n    tag_220:\n        /* \"#utility.yul\":11631:11635   */\n      0x1f\n        /* \"#utility.yul\":11627:11636   */\n      not\n        /* \"#utility.yul\":11619:11625   */\n      dup5\n        /* \"#utility.yul\":11615:11637   */\n      and\n        /* \"#utility.yul\":11665:11702   */\n      tag_223\n        /* \"#utility.yul\":11697:11701   */\n      dup7\n        /* \"#utility.yul\":11665:11702   */\n      tag_74\n      jump\t// in\n    tag_223:\n        /* \"#utility.yul\":11724:11725   */\n      0x00\n        /* \"#utility.yul\":11738:11946   */\n    tag_224:\n        /* \"#utility.yul\":11752:11759   */\n      dup3\n        /* \"#utility.yul\":11749:11750   */\n      dup2\n        /* \"#utility.yul\":11746:11760   */\n      lt\n        /* \"#utility.yul\":11738:11946   */\n      iszero\n      tag_226\n      jumpi\n        /* \"#utility.yul\":11831:11840   */\n      dup5\n        /* \"#utility.yul\":11826:11829   */\n      dup10\n        /* \"#utility.yul\":11822:11841   */\n      add\n        /* \"#utility.yul\":11816:11842   */\n      mload\n        /* \"#utility.yul\":11808:11814   */\n      dup3\n        /* \"#utility.yul\":11801:11843   */\n      sstore\n        /* \"#utility.yul\":11882:11883   */\n      0x01\n        /* \"#utility.yul\":11874:11880   */\n      dup3\n        /* \"#utility.yul\":11870:11884   */\n      add\n        /* \"#utility.yul\":11860:11884   */\n      swap2\n      pop\n        /* \"#utility.yul\":11929:11931   */\n      0x20\n        /* \"#utility.yul\":11918:11927   */\n      dup6\n        /* \"#utility.yul\":11914:11932   */\n      add\n        /* \"#utility.yul\":11901:11932   */\n      swap5\n      pop\n        /* \"#utility.yul\":11775:11779   */\n      0x20\n        /* \"#utility.yul\":11772:11773   */\n      dup2\n        /* \"#utility.yul\":11768:11780   */\n      add\n        /* \"#utility.yul\":11763:11780   */\n      swap1\n      pop\n        /* \"#utility.yul\":11738:11946   */\n      jump(tag_224)\n    tag_226:\n        /* \"#utility.yul\":11974:11980   */\n      dup7\n        /* \"#utility.yul\":11965:11972   */\n      dup4\n        /* \"#utility.yul\":11962:11981   */\n      lt\n        /* \"#utility.yul\":11959:12138   */\n      iszero\n      tag_227\n      jumpi\n        /* \"#utility.yul\":12032:12041   */\n      dup5\n        /* \"#utility.yul\":12027:12030   */\n      dup10\n        /* \"#utility.yul\":12023:12042   */\n      add\n        /* \"#utility.yul\":12017:12043   */\n      mload\n        /* \"#utility.yul\":12075:12123   */\n      tag_228\n        /* \"#utility.yul\":12117:12121   */\n      0x1f\n        /* \"#utility.yul\":12109:12115   */\n      dup10\n        /* \"#utility.yul\":12105:12122   */\n      and\n        /* \"#utility.yul\":12094:12103   */\n      dup3\n        /* \"#utility.yul\":12075:12123   */\n      tag_87\n      jump\t// in\n    tag_228:\n        /* \"#utility.yul\":12067:12073   */\n      dup4\n        /* \"#utility.yul\":12060:12124   */\n      sstore\n        /* \"#utility.yul\":11982:12138   */\n      pop\n        /* \"#utility.yul\":11959:12138   */\n    tag_227:\n        /* \"#utility.yul\":12184:12185   */\n      0x01\n        /* \"#utility.yul\":12180:12181   */\n      0x02\n        /* \"#utility.yul\":12172:12178   */\n      dup9\n        /* \"#utility.yul\":12168:12182   */\n      mul\n        /* \"#utility.yul\":12164:12186   */\n      add\n        /* \"#utility.yul\":12158:12162   */\n      dup9\n        /* \"#utility.yul\":12151:12187   */\n      sstore\n        /* \"#utility.yul\":11586:12197   */\n      pop\n      pop\n      pop\n        /* \"#utility.yul\":11549:12436   */\n    tag_219:\n      pop\n        /* \"#utility.yul\":11139:12442   */\n      pop\n      pop\n      pop\n        /* \"#utility.yul\":11047:12442   */\n      pop\n      pop\n      jump\t// out\n\n    auxdata: 0xa264697066735822122039f826c214a1ef9a28333cfad86a5444c10dd295ae464ee716c09f59a4460cb364736f6c634300081a0033\n}\n",
				"bytecode": {
					"linkReferences": {},
					"object": "60806040525f805f6101000a81548167ffffffffffffffff021916908367ffffffffffffffff1602179055503480156035575f80fd5b50610a29806100435f395ff3fe608060405234801561000f575f80fd5b506004361061004a575f3560e01c80633d54eebb1461004e5780636bfb0d011461006a578063838b96bd14610088578063bfb231d2146100b8575b5f80fd5b610068600480360381019061006391906104a0565b6100e9565b005b6100726101b9565b60405161007f9190610509565b60405180910390f35b6100a2600480360381019061009d9190610555565b6101d0565b6040516100af9190610629565b60405180910390f35b6100d260048036038101906100cd9190610555565b610294565b6040516100e09291906106a0565b60405180910390f35b5f8081819054906101000a900467ffffffffffffffff168092919061010d906106fb565b91906101000a81548167ffffffffffffffff021916908367ffffffffffffffff1602179055505060405180604001604052805f8054906101000a900467ffffffffffffffff1667ffffffffffffffff1681526020018281525060015f805f9054906101000a900467ffffffffffffffff1667ffffffffffffffff1681526020019081526020015f205f820151815f015560208201518160010190816101b29190610924565b5090505050565b5f8054906101000a900467ffffffffffffffff1681565b6101d861033a565b60015f8381526020019081526020015f206040518060400160405290815f820154815260200160018201805461020d90610757565b80601f016020809104026020016040519081016040528092919081815260200182805461023990610757565b80156102845780601f1061025b57610100808354040283529160200191610284565b820191905f5260205f20905b81548152906001019060200180831161026757829003601f168201915b5050505050815250509050919050565b6001602052805f5260405f205f91509050805f0154908060010180546102b990610757565b80601f01602080910402602001604051908101604052809291908181526020018280546102e590610757565b80156103305780601f1061030757610100808354040283529160200191610330565b820191905f5260205f20905b81548152906001019060200180831161031357829003601f168201915b5050505050905082565b60405180604001604052805f8152602001606081525090565b5f604051905090565b5f80fd5b5f80fd5b5f80fd5b5f80fd5b5f601f19601f8301169050919050565b7f4e487b71000000000000000000000000000000000000000000000000000000005f52604160045260245ffd5b6103b28261036c565b810181811067ffffffffffffffff821117156103d1576103d061037c565b5b80604052505050565b5f6103e3610353565b90506103ef82826103a9565b919050565b5f67ffffffffffffffff82111561040e5761040d61037c565b5b6104178261036c565b9050602081019050919050565b828183375f83830152505050565b5f61044461043f846103f4565b6103da565b9050828152602081018484840111156104605761045f610368565b5b61046b848285610424565b509392505050565b5f82601f83011261048757610486610364565b5b8135610497848260208601610432565b91505092915050565b5f602082840312156104b5576104b461035c565b5b5f82013567ffffffffffffffff8111156104d2576104d1610360565b5b6104de84828501610473565b91505092915050565b5f67ffffffffffffffff82169050919050565b610503816104e7565b82525050565b5f60208201905061051c5f8301846104fa565b92915050565b5f819050919050565b61053481610522565b811461053e575f80fd5b50565b5f8135905061054f8161052b565b92915050565b5f6020828403121561056a5761056961035c565b5b5f61057784828501610541565b91505092915050565b61058981610522565b82525050565b5f81519050919050565b5f82825260208201905092915050565b8281835e5f83830152505050565b5f6105c18261058f565b6105cb8185610599565b93506105db8185602086016105a9565b6105e48161036c565b840191505092915050565b5f604083015f8301516106045f860182610580565b506020830151848203602086015261061c82826105b7565b9150508091505092915050565b5f6020820190508181035f83015261064181846105ef565b905092915050565b61065281610522565b82525050565b5f82825260208201905092915050565b5f6106728261058f565b61067c8185610658565b935061068c8185602086016105a9565b6106958161036c565b840191505092915050565b5f6040820190506106b35f830185610649565b81810360208301526106c58184610668565b90509392505050565b7f4e487b71000000000000000000000000000000000000000000000000000000005f52601160045260245ffd5b5f610705826104e7565b915067ffffffffffffffff820361071f5761071e6106ce565b5b600182019050919050565b7f4e487b71000000000000000000000000000000000000000000000000000000005f52602260045260245ffd5b5f600282049050600182168061076e57607f821691505b6020821081036107815761078061072a565b5b50919050565b5f819050815f5260205f209050919050565b5f6020601f8301049050919050565b5f82821b905092915050565b5f600883026107e37fffffffffffffffffffffffffffffffffffffffffffffffffffffffffffffffff826107a8565b6107ed86836107a8565b95508019841693508086168417925050509392505050565b5f819050919050565b5f61082861082361081e84610522565b610805565b610522565b9050919050565b5f819050919050565b6108418361080e565b61085561084d8261082f565b8484546107b4565b825550505050565b5f90565b61086961085d565b610874818484610838565b505050565b5b818110156108975761088c5f82610861565b60018101905061087a565b5050565b601f8211156108dc576108ad81610787565b6108b684610799565b810160208510156108c5578190505b6108d96108d185610799565b830182610879565b50505b505050565b5f82821c905092915050565b5f6108fc5f19846008026108e1565b1980831691505092915050565b5f61091483836108ed565b9150826002028217905092915050565b61092d8261058f565b67ffffffffffffffff8111156109465761094561037c565b5b6109508254610757565b61095b82828561089b565b5f60209050601f83116001811461098c575f841561097a578287015190505b6109848582610909565b8655506109eb565b601f19841661099a86610787565b5f5b828110156109c15784890151825560018201915060208501945060208101905061099c565b868310156109de57848901516109da601f8916826108ed565b8355505b6001600288020188555050505b50505050505056fea264697066735822122039f826c214a1ef9a28333cfad86a5444c10dd295ae464ee716c09f59a4460cb364736f6c634300081a0033",
					"opcodes": "PUSH1 0x80 PUSH1 0x40 MSTORE PUSH0 DUP1 PUSH0 PUSH2 0x100 EXP DUP2 SLOAD DUP2 PUSH8 0xFFFFFFFFFFFFFFFF MUL NOT AND SWAP1 DUP4 PUSH8 0xFFFFFFFFFFFFFFFF AND MUL OR SWAP1 SSTORE POP CALLVALUE DUP1 ISZERO PUSH1 0x35 JUMPI PUSH0 DUP1 REVERT JUMPDEST POP PUSH2 0xA29 DUP1 PUSH2 0x43 PUSH0 CODECOPY PUSH0 RETURN INVALID PUSH1 0x80 PUSH1 0x40 MSTORE CALLVALUE DUP1 ISZERO PUSH2 0xF JUMPI PUSH0 DUP1 REVERT JUMPDEST POP PUSH1 0x4 CALLDATASIZE LT PUSH2 0x4A JUMPI PUSH0 CALLDATALOAD PUSH1 0xE0 SHR DUP1 PUSH4 0x3D54EEBB EQ PUSH2 0x4E JUMPI DUP1 PUSH4 0x6BFB0D01 EQ PUSH2 0x6A JUMPI DUP1 PUSH4 0x838B96BD EQ PUSH2 0x88 JUMPI DUP1 PUSH4 0xBFB231D2 EQ PUSH2 0xB8 JUMPI JUMPDEST PUSH0 DUP1 REVERT JUMPDEST PUSH2 0x68 PUSH1 0x4 DUP1 CALLDATASIZE SUB DUP2 ADD SWAP1 PUSH2 0x63 SWAP2 SWAP1 PUSH2 0x4A0 JUMP JUMPDEST PUSH2 0xE9 JUMP JUMPDEST STOP JUMPDEST PUSH2 0x72 PUSH2 0x1B9 JUMP JUMPDEST PUSH1 0x40 MLOAD PUSH2 0x7F SWAP2 SWAP1 PUSH2 0x509 JUMP JUMPDEST PUSH1 0x40 MLOAD DUP1 SWAP2 SUB SWAP1 RETURN JUMPDEST PUSH2 0xA2 PUSH1 0x4 DUP1 CALLDATASIZE SUB DUP2 ADD SWAP1 PUSH2 0x9D SWAP2 SWAP1 PUSH2 0x555 JUMP JUMPDEST PUSH2 0x1D0 JUMP JUMPDEST PUSH1 0x40 MLOAD PUSH2 0xAF SWAP2 SWAP1 PUSH2 0x629 JUMP JUMPDEST PUSH1 0x40 MLOAD DUP1 SWAP2 SUB SWAP1 RETURN JUMPDEST PUSH2 0xD2 PUSH1 0x4 DUP1 CALLDATASIZE SUB DUP2 ADD SWAP1 PUSH2 0xCD SWAP2 SWAP1 PUSH2 0x555 JUMP JUMPDEST PUSH2 0x294 JUMP JUMPDEST PUSH1 0x40 MLOAD PUSH2 0xE0 SWAP3 SWAP2 SWAP1 PUSH2 0x6A0 JUMP JUMPDEST PUSH1 0x40 MLOAD DUP1 SWAP2 SUB SWAP1 RETURN JUMPDEST PUSH0 DUP1 DUP2 DUP2 SWAP1 SLOAD SWAP1 PUSH2 0x100 EXP SWAP1 DIV PUSH8 0xFFFFFFFFFFFFFFFF AND DUP1 SWAP3 SWAP2 SWAP1 PUSH2 0x10D SWAP1 PUSH2 0x6FB JUMP JUMPDEST SWAP2 SWAP1 PUSH2 0x100 EXP DUP2 SLOAD DUP2 PUSH8 0xFFFFFFFFFFFFFFFF MUL NOT AND SWAP1 DUP4 PUSH8 0xFFFFFFFFFFFFFFFF AND MUL OR SWAP1 SSTORE POP POP PUSH1 0x40 MLOAD DUP1 PUSH1 0x40 ADD PUSH1 0x40 MSTORE DUP1 PUSH0 DUP1 SLOAD SWAP1 PUSH2 0x100 EXP SWAP1 DIV PUSH8 0xFFFFFFFFFFFFFFFF AND PUSH8 0xFFFFFFFFFFFFFFFF AND DUP2 MSTORE PUSH1 0x20 ADD DUP3 DUP2 MSTORE POP PUSH1 0x1 PUSH0 DUP1 PUSH0 SWAP1 SLOAD SWAP1 PUSH2 0x100 EXP SWAP1 DIV PUSH8 0xFFFFFFFFFFFFFFFF AND PUSH8 0xFFFFFFFFFFFFFFFF AND DUP2 MSTORE PUSH1 0x20 ADD SWAP1 DUP2 MSTORE PUSH1 0x20 ADD PUSH0 KECCAK256 PUSH0 DUP3 ADD MLOAD DUP2 PUSH0 ADD SSTORE PUSH1 0x20 DUP3 ADD MLOAD DUP2 PUSH1 0x1 ADD SWAP1 DUP2 PUSH2 0x1B2 SWAP2 SWAP1 PUSH2 0x924 JUMP JUMPDEST POP SWAP1 POP POP POP JUMP JUMPDEST PUSH0 DUP1 SLOAD SWAP1 PUSH2 0x100 EXP SWAP1 DIV PUSH8 0xFFFFFFFFFFFFFFFF AND DUP2 JUMP JUMPDEST PUSH2 0x1D8 PUSH2 0x33A JUMP JUMPDEST PUSH1 0x1 PUSH0 DUP4 DUP2 MSTORE PUSH1 0x20 ADD SWAP1 DUP2 MSTORE PUSH1 0x20 ADD PUSH0 KECCAK256 PUSH1 0x40 MLOAD DUP1 PUSH1 0x40 ADD PUSH1 0x40 MSTORE SWAP1 DUP2 PUSH0 DUP3 ADD SLOAD DUP2 MSTORE PUSH1 0x20 ADD PUSH1 0x1 DUP3 ADD DUP1 SLOAD PUSH2 0x20D SWAP1 PUSH2 0x757 JUMP JUMPDEST DUP1 PUSH1 0x1F ADD PUSH1 0x20 DUP1 SWAP2 DIV MUL PUSH1 0x20 ADD PUSH1 0x40 MLOAD SWAP1 DUP2 ADD PUSH1 0x40 MSTORE DUP1 SWAP3 SWAP2 SWAP1 DUP2 DUP2 MSTORE PUSH1 0x20 ADD DUP3 DUP1 SLOAD PUSH2 0x239 SWAP1 PUSH2 0x757 JUMP JUMPDEST DUP1 ISZERO PUSH2 0x284 JUMPI DUP1 PUSH1 0x1F LT PUSH2 0x25B JUMPI PUSH2 0x100 DUP1 DUP4 SLOAD DIV MUL DUP4 MSTORE SWAP2 PUSH1 0x20 ADD SWAP2 PUSH2 0x284 JUMP JUMPDEST DUP3 ADD SWAP2 SWAP1 PUSH0 MSTORE PUSH1 0x20 PUSH0 KECCAK256 SWAP1 JUMPDEST DUP2 SLOAD DUP2 MSTORE SWAP1 PUSH1 0x1 ADD SWAP1 PUSH1 0x20 ADD DUP1 DUP4 GT PUSH2 0x267 JUMPI DUP3 SWAP1 SUB PUSH1 0x1F AND DUP3 ADD SWAP2 JUMPDEST POP POP POP POP POP DUP2 MSTORE POP POP SWAP1 POP SWAP2 SWAP1 POP JUMP JUMPDEST PUSH1 0x1 PUSH1 0x20 MSTORE DUP1 PUSH0 MSTORE PUSH1 0x40 PUSH0 KECCAK256 PUSH0 SWAP2 POP SWAP1 POP DUP1 PUSH0 ADD SLOAD SWAP1 DUP1 PUSH1 0x1 ADD DUP1 SLOAD PUSH2 0x2B9 SWAP1 PUSH2 0x757 JUMP JUMPDEST DUP1 PUSH1 0x1F ADD PUSH1 0x20 DUP1 SWAP2 DIV MUL PUSH1 0x20 ADD PUSH1 0x40 MLOAD SWAP1 DUP2 ADD PUSH1 0x40 MSTORE DUP1 SWAP3 SWAP2 SWAP1 DUP2 DUP2 MSTORE PUSH1 0x20 ADD DUP3 DUP1 SLOAD PUSH2 0x2E5 SWAP1 PUSH2 0x757 JUMP JUMPDEST DUP1 ISZERO PUSH2 0x330 JUMPI DUP1 PUSH1 0x1F LT PUSH2 0x307 JUMPI PUSH2 0x100 DUP1 DUP4 SLOAD DIV MUL DUP4 MSTORE SWAP2 PUSH1 0x20 ADD SWAP2 PUSH2 0x330 JUMP JUMPDEST DUP3 ADD SWAP2 SWAP1 PUSH0 MSTORE PUSH1 0x20 PUSH0 KECCAK256 SWAP1 JUMPDEST DUP2 SLOAD DUP2 MSTORE SWAP1 PUSH1 0x1 ADD SWAP1 PUSH1 0x20 ADD DUP1 DUP4 GT PUSH2 0x313 JUMPI DUP3 SWAP1 SUB PUSH1 0x1F AND DUP3 ADD SWAP2 JUMPDEST POP POP POP POP POP SWAP1 POP DUP3 JUMP JUMPDEST PUSH1 0x40 MLOAD DUP1 PUSH1 0x40 ADD PUSH1 0x40 MSTORE DUP1 PUSH0 DUP2 MSTORE PUSH1 0x20 ADD PUSH1 0x60 DUP2 MSTORE POP SWAP1 JUMP JUMPDEST PUSH0 PUSH1 0x40 MLOAD SWAP1 POP SWAP1 JUMP JUMPDEST PUSH0 DUP1 REVERT JUMPDEST PUSH0 DUP1 REVERT JUMPDEST PUSH0 DUP1 REVERT JUMPDEST PUSH0 DUP1 REVERT JUMPDEST PUSH0 PUSH1 0x1F NOT PUSH1 0x1F DUP4 ADD AND SWAP1 POP SWAP2 SWAP1 POP JUMP JUMPDEST PUSH32 0x4E487B7100000000000000000000000000000000000000000000000000000000 PUSH0 MSTORE PUSH1 0x41 PUSH1 0x4 MSTORE PUSH1 0x24 PUSH0 REVERT JUMPDEST PUSH2 0x3B2 DUP3 PUSH2 0x36C JUMP JUMPDEST DUP2 ADD DUP2 DUP2 LT PUSH8 0xFFFFFFFFFFFFFFFF DUP3 GT OR ISZERO PUSH2 0x3D1 JUMPI PUSH2 0x3D0 PUSH2 0x37C JUMP JUMPDEST JUMPDEST DUP1 PUSH1 0x40 MSTORE POP POP POP JUMP JUMPDEST PUSH0 PUSH2 0x3E3 PUSH2 0x353 JUMP JUMPDEST SWAP1 POP PUSH2 0x3EF DUP3 DUP3 PUSH2 0x3A9 JUMP JUMPDEST SWAP2 SWAP1 POP JUMP JUMPDEST PUSH0 PUSH8 0xFFFFFFFFFFFFFFFF DUP3 GT ISZERO PUSH2 0x40E JUMPI PUSH2 0x40D PUSH2 0x37C JUMP JUMPDEST JUMPDEST PUSH2 0x417 DUP3 PUSH2 0x36C JUMP JUMPDEST SWAP1 POP PUSH1 0x20 DUP2 ADD SWAP1 POP SWAP2 SWAP1 POP JUMP JUMPDEST DUP3 DUP2 DUP4 CALLDATACOPY PUSH0 DUP4 DUP4 ADD MSTORE POP POP POP JUMP JUMPDEST PUSH0 PUSH2 0x444 PUSH2 0x43F DUP5 PUSH2 0x3F4 JUMP JUMPDEST PUSH2 0x3DA JUMP JUMPDEST SWAP1 POP DUP3 DUP2 MSTORE PUSH1 0x20 DUP2 ADD DUP5 DUP5 DUP5 ADD GT ISZERO PUSH2 0x460 JUMPI PUSH2 0x45F PUSH2 0x368 JUMP JUMPDEST JUMPDEST PUSH2 0x46B DUP5 DUP3 DUP6 PUSH2 0x424 JUMP JUMPDEST POP SWAP4 SWAP3 POP POP POP JUMP JUMPDEST PUSH0 DUP3 PUSH1 0x1F DUP4 ADD SLT PUSH2 0x487 JUMPI PUSH2 0x486 PUSH2 0x364 JUMP JUMPDEST JUMPDEST DUP2 CALLDATALOAD PUSH2 0x497 DUP5 DUP3 PUSH1 0x20 DUP7 ADD PUSH2 0x432 JUMP JUMPDEST SWAP2 POP POP SWAP3 SWAP2 POP POP JUMP JUMPDEST PUSH0 PUSH1 0x20 DUP3 DUP5 SUB SLT ISZERO PUSH2 0x4B5 JUMPI PUSH2 0x4B4 PUSH2 0x35C JUMP JUMPDEST JUMPDEST PUSH0 DUP3 ADD CALLDATALOAD PUSH8 0xFFFFFFFFFFFFFFFF DUP2 GT ISZERO PUSH2 0x4D2 JUMPI PUSH2 0x4D1 PUSH2 0x360 JUMP JUMPDEST JUMPDEST PUSH2 0x4DE DUP5 DUP3 DUP6 ADD PUSH2 0x473 JUMP JUMPDEST SWAP2 POP POP SWAP3 SWAP2 POP POP JUMP JUMPDEST PUSH0 PUSH8 0xFFFFFFFFFFFFFFFF DUP3 AND SWAP1 POP SWAP2 SWAP1 POP JUMP JUMPDEST PUSH2 0x503 DUP2 PUSH2 0x4E7 JUMP JUMPDEST DUP3 MSTORE POP POP JUMP JUMPDEST PUSH0 PUSH1 0x20 DUP3 ADD SWAP1 POP PUSH2 0x51C PUSH0 DUP4 ADD DUP5 PUSH2 0x4FA JUMP JUMPDEST SWAP3 SWAP2 POP POP JUMP JUMPDEST PUSH0 DUP2 SWAP1 POP SWAP2 SWAP1 POP JUMP JUMPDEST PUSH2 0x534 DUP2 PUSH2 0x522 JUMP JUMPDEST DUP2 EQ PUSH2 0x53E JUMPI PUSH0 DUP1 REVERT JUMPDEST POP JUMP JUMPDEST PUSH0 DUP2 CALLDATALOAD SWAP1 POP PUSH2 0x54F DUP2 PUSH2 0x52B JUMP JUMPDEST SWAP3 SWAP2 POP POP JUMP JUMPDEST PUSH0 PUSH1 0x20 DUP3 DUP5 SUB SLT ISZERO PUSH2 0x56A JUMPI PUSH2 0x569 PUSH2 0x35C JUMP JUMPDEST JUMPDEST PUSH0 PUSH2 0x577 DUP5 DUP3 DUP6 ADD PUSH2 0x541 JUMP JUMPDEST SWAP2 POP POP SWAP3 SWAP2 POP POP JUMP JUMPDEST PUSH2 0x589 DUP2 PUSH2 0x522 JUMP JUMPDEST DUP3 MSTORE POP POP JUMP JUMPDEST PUSH0 DUP2 MLOAD SWAP1 POP SWAP2 SWAP1 POP JUMP JUMPDEST PUSH0 DUP3 DUP3 MSTORE PUSH1 0x20 DUP3 ADD SWAP1 POP SWAP3 SWAP2 POP POP JUMP JUMPDEST DUP3 DUP2 DUP4 MCOPY PUSH0 DUP4 DUP4 ADD MSTORE POP POP POP JUMP JUMPDEST PUSH0 PUSH2 0x5C1 DUP3 PUSH2 0x58F JUMP JUMPDEST PUSH2 0x5CB DUP2 DUP6 PUSH2 0x599 JUMP JUMPDEST SWAP4 POP PUSH2 0x5DB DUP2 DUP6 PUSH1 0x20 DUP7 ADD PUSH2 0x5A9 JUMP JUMPDEST PUSH2 0x5E4 DUP2 PUSH2 0x36C JUMP JUMPDEST DUP5 ADD SWAP2 POP POP SWAP3 SWAP2 POP POP JUMP JUMPDEST PUSH0 PUSH1 0x40 DUP4 ADD PUSH0 DUP4 ADD MLOAD PUSH2 0x604 PUSH0 DUP7 ADD DUP3 PUSH2 0x580 JUMP JUMPDEST POP PUSH1 0x20 DUP4 ADD MLOAD DUP5 DUP3 SUB PUSH1 0x20 DUP7 ADD MSTORE PUSH2 0x61C DUP3 DUP3 PUSH2 0x5B7 JUMP JUMPDEST SWAP2 POP POP DUP1 SWAP2 POP POP SWAP3 SWAP2 POP POP JUMP JUMPDEST PUSH0 PUSH1 0x20 DUP3 ADD SWAP1 POP DUP2 DUP2 SUB PUSH0 DUP4 ADD MSTORE PUSH2 0x641 DUP2 DUP5 PUSH2 0x5EF JUMP JUMPDEST SWAP1 POP SWAP3 SWAP2 POP POP JUMP JUMPDEST PUSH2 0x652 DUP2 PUSH2 0x522 JUMP JUMPDEST DUP3 MSTORE POP POP JUMP JUMPDEST PUSH0 DUP3 DUP3 MSTORE PUSH1 0x20 DUP3 ADD SWAP1 POP SWAP3 SWAP2 POP POP JUMP JUMPDEST PUSH0 PUSH2 0x672 DUP3 PUSH2 0x58F JUMP JUMPDEST PUSH2 0x67C DUP2 DUP6 PUSH2 0x658 JUMP JUMPDEST SWAP4 POP PUSH2 0x68C DUP2 DUP6 PUSH1 0x20 DUP7 ADD PUSH2 0x5A9 JUMP JUMPDEST PUSH2 0x695 DUP2 PUSH2 0x36C JUMP JUMPDEST DUP5 ADD SWAP2 POP POP SWAP3 SWAP2 POP POP JUMP JUMPDEST PUSH0 PUSH1 0x40 DUP3 ADD SWAP1 POP PUSH2 0x6B3 PUSH0 DUP4 ADD DUP6 PUSH2 0x649 JUMP JUMPDEST DUP2 DUP2 SUB PUSH1 0x20 DUP4 ADD MSTORE PUSH2 0x6C5 DUP2 DUP5 PUSH2 0x668 JUMP JUMPDEST SWAP1 POP SWAP4 SWAP3 POP POP POP JUMP JUMPDEST PUSH32 0x4E487B7100000000000000000000000000000000000000000000000000000000 PUSH0 MSTORE PUSH1 0x11 PUSH1 0x4 MSTORE PUSH1 0x24 PUSH0 REVERT JUMPDEST PUSH0 PUSH2 0x705 DUP3 PUSH2 0x4E7 JUMP JUMPDEST SWAP2 POP PUSH8 0xFFFFFFFFFFFFFFFF DUP3 SUB PUSH2 0x71F JUMPI PUSH2 0x71E PUSH2 0x6CE JUMP JUMPDEST JUMPDEST PUSH1 0x1 DUP3 ADD SWAP1 POP SWAP2 SWAP1 POP JUMP JUMPDEST PUSH32 0x4E487B7100000000000000000000000000000000000000000000000000000000 PUSH0 MSTORE PUSH1 0x22 PUSH1 0x4 MSTORE PUSH1 0x24 PUSH0 REVERT JUMPDEST PUSH0 PUSH1 0x2 DUP3 DIV SWAP1 POP PUSH1 0x1 DUP3 AND DUP1 PUSH2 0x76E JUMPI PUSH1 0x7F DUP3 AND SWAP2 POP JUMPDEST PUSH1 0x20 DUP3 LT DUP2 SUB PUSH2 0x781 JUMPI PUSH2 0x780 PUSH2 0x72A JUMP JUMPDEST JUMPDEST POP SWAP2 SWAP1 POP JUMP JUMPDEST PUSH0 DUP2 SWAP1 POP DUP2 PUSH0 MSTORE PUSH1 0x20 PUSH0 KECCAK256 SWAP1 POP SWAP2 SWAP1 POP JUMP JUMPDEST PUSH0 PUSH1 0x20 PUSH1 0x1F DUP4 ADD DIV SWAP1 POP SWAP2 SWAP1 POP JUMP JUMPDEST PUSH0 DUP3 DUP3 SHL SWAP1 POP SWAP3 SWAP2 POP POP JUMP JUMPDEST PUSH0 PUSH1 0x8 DUP4 MUL PUSH2 0x7E3 PUSH32 0xFFFFFFFFFFFFFFFFFFFFFFFFFFFFFFFFFFFFFFFFFFFFFFFFFFFFFFFFFFFFFFFF DUP3 PUSH2 0x7A8 JUMP JUMPDEST PUSH2 0x7ED DUP7 DUP4 PUSH2 0x7A8 JUMP JUMPDEST SWAP6 POP DUP1 NOT DUP5 AND SWAP4 POP DUP1 DUP7 AND DUP5 OR SWAP3 POP POP POP SWAP4 SWAP3 POP POP POP JUMP JUMPDEST PUSH0 DUP2 SWAP1 POP SWAP2 SWAP1 POP JUMP JUMPDEST PUSH0 PUSH2 0x828 PUSH2 0x823 PUSH2 0x81E DUP5 PUSH2 0x522 JUMP JUMPDEST PUSH2 0x805 JUMP JUMPDEST PUSH2 0x522 JUMP JUMPDEST SWAP1 POP SWAP2 SWAP1 POP JUMP JUMPDEST PUSH0 DUP2 SWAP1 POP SWAP2 SWAP1 POP JUMP JUMPDEST PUSH2 0x841 DUP4 PUSH2 0x80E JUMP JUMPDEST PUSH2 0x855 PUSH2 0x84D DUP3 PUSH2 0x82F JUMP JUMPDEST DUP5 DUP5 SLOAD PUSH2 0x7B4 JUMP JUMPDEST DUP3 SSTORE POP POP POP POP JUMP JUMPDEST PUSH0 SWAP1 JUMP JUMPDEST PUSH2 0x869 PUSH2 0x85D JUMP JUMPDEST PUSH2 0x874 DUP2 DUP5 DUP5 PUSH2 0x838 JUMP JUMPDEST POP POP POP JUMP JUMPDEST JUMPDEST DUP2 DUP2 LT ISZERO PUSH2 0x897 JUMPI PUSH2 0x88C PUSH0 DUP3 PUSH2 0x861 JUMP JUMPDEST PUSH1 0x1 DUP2 ADD SWAP1 POP PUSH2 0x87A JUMP JUMPDEST POP POP JUMP JUMPDEST PUSH1 0x1F DUP3 GT ISZERO PUSH2 0x8DC JUMPI PUSH2 0x8AD DUP2 PUSH2 0x787 JUMP JUMPDEST PUSH2 0x8B6 DUP5 PUSH2 0x799 JUMP JUMPDEST DUP2 ADD PUSH1 0x20 DUP6 LT ISZERO PUSH2 0x8C5 JUMPI DUP2 SWAP1 POP JUMPDEST PUSH2 0x8D9 PUSH2 0x8D1 DUP6 PUSH2 0x799 JUMP JUMPDEST DUP4 ADD DUP3 PUSH2 0x879 JUMP JUMPDEST POP POP JUMPDEST POP POP POP JUMP JUMPDEST PUSH0 DUP3 DUP3 SHR SWAP1 POP SWAP3 SWAP2 POP POP JUMP JUMPDEST PUSH0 PUSH2 0x8FC PUSH0 NOT DUP5 PUSH1 0x8 MUL PUSH2 0x8E1 JUMP JUMPDEST NOT DUP1 DUP4 AND SWAP2 POP POP SWAP3 SWAP2 POP POP JUMP JUMPDEST PUSH0 PUSH2 0x914 DUP4 DUP4 PUSH2 0x8ED JUMP JUMPDEST SWAP2 POP DUP3 PUSH1 0x2 MUL DUP3 OR SWAP1 POP SWAP3 SWAP2 POP POP JUMP JUMPDEST PUSH2 0x92D DUP3 PUSH2 0x58F JUMP JUMPDEST PUSH8 0xFFFFFFFFFFFFFFFF DUP2 GT ISZERO PUSH2 0x946 JUMPI PUSH2 0x945 PUSH2 0x37C JUMP JUMPDEST JUMPDEST PUSH2 0x950 DUP3 SLOAD PUSH2 0x757 JUMP JUMPDEST PUSH2 0x95B DUP3 DUP3 DUP6 PUSH2 0x89B JUMP JUMPDEST PUSH0 PUSH1 0x20 SWAP1 POP PUSH1 0x1F DUP4 GT PUSH1 0x1 DUP2 EQ PUSH2 0x98C JUMPI PUSH0 DUP5 ISZERO PUSH2 0x97A JUMPI DUP3 DUP8 ADD MLOAD SWAP1 POP JUMPDEST PUSH2 0x984 DUP6 DUP3 PUSH2 0x909 JUMP JUMPDEST DUP7 SSTORE POP PUSH2 0x9EB JUMP JUMPDEST PUSH1 0x1F NOT DUP5 AND PUSH2 0x99A DUP7 PUSH2 0x787 JUMP JUMPDEST PUSH0 JUMPDEST DUP3 DUP2 LT ISZERO PUSH2 0x9C1 JUMPI DUP5 DUP10 ADD MLOAD DUP3 SSTORE PUSH1 0x1 DUP3 ADD SWAP2 POP PUSH1 0x20 DUP6 ADD SWAP5 POP PUSH1 0x20 DUP2 ADD SWAP1 POP PUSH2 0x99C JUMP JUMPDEST DUP7 DUP4 LT ISZERO PUSH2 0x9DE JUMPI DUP5 DUP10 ADD MLOAD PUSH2 0x9DA PUSH1 0x1F DUP10 AND DUP3 PUSH2 0x8ED JUMP JUMPDEST DUP4 SSTORE POP JUMPDEST PUSH1 0x1 PUSH1 0x2 DUP9 MUL ADD DUP9 SSTORE POP POP POP JUMPDEST POP POP POP POP POP POP JUMP INVALID LOG2 PUSH5 0x6970667358 0x22 SLT KECCAK256 CODECOPY 0xF8 0x26 0xC2 EQ LOG1 0xEF SWAP11 0x28 CALLER EXTCODECOPY STATICCALL 0xD8 PUSH11 0x5444C10DD295AE464EE716 0xC0 SWAP16 MSIZE LOG4 CHAINID 0xC 0xB3 PUSH5 0x736F6C6343 STOP ADDMOD BYTE STOP CALLER "
				},
				"gasEstimates": {
					"creation": {
						"codeDepositCost": "520200",
						"executionCost": "24819",
						"totalCost": "545019"
					},
					"external": {
						"createItem(string)": "infinite",
						"itemCount()": "2463",
						"items(uint256)": "infinite",
						"readItem(uint256)": "infinite"
					}
				},
				"methodIdentifiers": {
					"createItem(string)": "3d54eebb",
					"itemCount()": "6bfb0d01",
					"items(uint256)": "bfb231d2",
					"readItem(uint256)": "838b96bd"
				}
			},
			"storageLayout": {
				"storage": [
					{
						"astId": 4,
						"contract": "CRUD/crud.sol:CRUD",
						"label": "itemCount",
						"offset": 0,
						"slot": "0",
						"type": "t_uint64"
					},
					{
						"astId": 14,
						"contract": "CRUD/crud.sol:CRUD",
						"label": "items",
						"offset": 0,
						"slot": "1",
						"type": "t_mapping(t_uint256,t_struct(Item)9_storage)"
					}
				],
				"types": {
					"t_mapping(t_uint256,t_struct(Item)9_storage)": {
						"encoding": "mapping",
						"key": "t_uint256",
						"label": "mapping(uint256 => struct CRUD.Item)",
						"numberOfBytes": "32",
						"value": "t_struct(Item)9_storage"
					},
					"t_string_storage": {
						"encoding": "bytes",
						"label": "string",
						"numberOfBytes": "32"
					},
					"t_struct(Item)9_storage": {
						"encoding": "inplace",
						"label": "struct CRUD.Item",
						"members": [
							{
								"astId": 6,
								"contract": "CRUD/crud.sol:CRUD",
								"label": "id",
								"offset": 0,
								"slot": "0",
								"type": "t_uint256"
							},
							{
								"astId": 8,
								"contract": "CRUD/crud.sol:CRUD",
								"label": "description",
								"offset": 0,
								"slot": "1",
								"type": "t_string_storage"
							}
						],
						"numberOfBytes": "64"
					},
					"t_uint256": {
						"encoding": "inplace",
						"label": "uint256",
						"numberOfBytes": "32"
					},
					"t_uint64": {
						"encoding": "inplace",
						"label": "uint64",
						"numberOfBytes": "8"
					}
				}
			},
			"userdoc": {
				"kind": "user",
				"methods": {},
				"version": 1
			}
		}
	}
}